:100000000C942A000C9447000C9447000C94470071
:100010000C94B6070C94E9070C94F9070C940908A2
:100020000C9419080C9429080C9439080C946C0849
:100030000C9447000C9447000C9447000C94470024
:100040000C94B8010C9447000C9447000C944700A2
:100050000C94470011241FBECFE5D8E0DEBFCDBF12
:1000600010E0A0E6B0E0E0E4F3E102C005900D92FC
:10007000A837B107D9F710E0A8E7B0E001C01D929A
:10008000A538B107E1F70E947C080C949E090C94F6
:100090000000DF93CF93CDB7DEB7A7E2B0E0E7E291
:1000A000F0E080818F778C93A7E2B0E0E7E2F0E0A8
:1000B000808180648C93A7E2B0E0E7E2F0E0808189
:1000C0008F7D8C93A6E2B0E0E6E2F0E080818F7D48
:1000D0008C93A6E2B0E0E6E2F0E08081877F8C932B
:1000E000A6E2B0E0E6E2F0E08081887F8C93A6E2B1
:1000F000B0E0E6E2F0E0808187608C93A6E2B0E0B9
:10010000E6E2F0E0808180688C93CF91DF910895E2
:10011000DF93CF93CDB7DEB728970FB6F894DEBF45
:100120000FBECDBF8E8378876F831A821B821C829D
:100130001D82198280917C00882309F064C08F8120
:100140009885009719F482E089835FC081E08093ED
:100150007C00A7E2B0E0E7E2F0E08081807E8C9353
:10016000A7E2B0E0E7E2F0E090818E81892B8C93EA
:10017000A6E2B0E0E6E2F0E0808180648C930BC000
:100180008A819B81AC81BD810196A11DB11D8A83AD
:100190009B83AC83BD83E6E2F0E0808182958F7023
:1001A000882F90E081709070009761F48A819B8124
:1001B000AC81BD81803221EA920727E0A20720E0CE
:1001C000B207F1F68A819B81AC81BD81803221EA40
:1001D000920727E0A20720E0B20719F481E08983A3
:1001E00014C0A6E2B0E0E6E2F0E0808180618C938A
:1001F000E4E2F0E080819181EF81F8859183808352
:1002000010927C0002C083E08983898128960FB612
:10021000F894DEBF0FBECDBFCF91DF910895DF937D
:10022000CF9300D000D000D0CDB7DEB78A837C83D7
:100230006B835E834D83198280917C008823D1F586
:1002400081E080937C008B819C81009721F08D81DF
:100250009E81009719F482E089832EC010927D0060
:100260008B819C8190937900809378008D819E8111
:1002700090937B0080937A00A7E2B0E0E7E2F0E0A1
:100280008081807E8C93A7E2B0E0E7E2F0E090818D
:100290008A81892B8C93A6E2B0E0E6E2F0E08081CF
:1002A00080648C93A6E2B0E0E6E2F0E080818860B2
:1002B0008C9302C083E08983898126960FB6F894D7
:1002C000DEBF0FBECDBFCF91DF910895DF93CF93F7
:1002D00000D00F92CDB7DEB79B838A8319828091BD
:1002E0007C008823E1F581E080937C008A819B81FA
:1002F000009719F482E0898334C081E080937D0007
:100300008A819B8190937F0080937E001092800071
:10031000A7E2B0E0E7E2F0E08081807E8C93A7E284
:10032000B0E0E7E2F0E0408180918000282F30E0EB
:100330008A819B81FC01E20FF31F8081842B8C93C7
:10034000A6E2B0E0E6E2F0E0808180648C93A6E271
:10035000B0E0E6E2F0E0808188608C9302C083E048
:10036000898389810F900F900F90CF91DF9108952D
:100370001F920F920FB60F9211242F933F934F931A
:100380005F936F937F938F939F93AF93BF93EF93FD
:10039000FF93DF93CF93CDB7DEB780917D008823A5
:1003A000C9F4A0917800B0917900E4E2F0E0808196
:1003B00091818D939C9310927C00E0917A00F09152
:1003C0007B000995A6E2B0E0E6E2F0E08081877F5D
:1003D0008C935AC080917D00813009F055C0E09126
:1003E0007E00F0917F0090A180918000981791F499
:1003F000E0917E00F0917F0001A0F2A1E02D09952F
:10040000A6E2B0E0E6E2F0E08081877F8C93109274
:100410007C003AC040917E0050917F008091800026
:10042000882F90E0E4E2F0E020813181880F991F6D
:10043000840F951FFC01B396318320838091800047
:100440008F5F80938000A7E2B0E0E7E2F0E0808178
:10045000807E8C93A7E2B0E0E7E2F0E0408120915B
:100460007E0030917F0080918000882F90E0F9011C
:10047000E80FF91F8081842B8C93A6E2B0E0E6E2BE
:10048000F0E0808180648C93CF91DF91FF91EF91B8
:10049000BF91AF919F918F917F916F915F914F919C
:1004A0003F912F910F900FBE0F901F901895DF93E3
:1004B000CF93CDB7DEB728970FB6F894DEBF0FBE47
:1004C000CDBF8A836B834C8319828B81883008F07F
:1004D000F4C08C81882309F077C08A81282F30E00E
:1004E00038872F838F8198858130910559F12F812D
:1004F0003885223031052CF48F819885009769F07A
:1005000060C02F8138852230310589F18F8198852F
:100510008330910509F440C054C0ABE3B0E0EBE395
:10052000F0E08081482F8B81282F30E081E090E03F
:10053000022E02C0880F991F0A94E2F78095842347
:100540008C93BDC0A8E3B0E0E8E3F0E08081482FE1
:100550008B81282F30E081E090E0022E02C0880FCE
:10056000991F0A94E2F7809584238C93A8C0A5E391
:10057000B0E0E5E3F0E08081482F8B81282F30E068
:1005800081E090E0022E02C0880F991F0A94E2F7E2
:10059000809584238C9393C0A2E3B0E0E2E3F0E083
:1005A0008081482F8B81282F30E081E090E0022E5F
:1005B00002C0880F991F0A94E2F7809584238C93D8
:1005C0007EC081E089837BC08C81813009F072C05C
:1005D0008A81282F30E03E832D838D819E8181305A
:1005E000910549F12D813E81223031052CF48D8118
:1005F0009E81009761F05BC02D813E8122303105E4
:1006000071F18D819E8183309105E9F150C0ABE39A
:10061000B0E0EBE3F0E08081482F8B81282F30E0C1
:1006200081E090E0022E02C0880F991F0A94E2F741
:10063000842B8C9344C0A8E3B0E0E8E3F0E0808131
:10064000482F8B81282F30E081E090E0022E02C0FD
:10065000880F991F0A94E2F7842B8C9330C0A5E38E
:10066000B0E0E5E3F0E08081482F8B81282F30E077
:1006700081E090E0022E02C0880F991F0A94E2F7F1
:10068000842B8C931CC0A2E3B0E0E2E3F0E0808115
:10069000482F8B81282F30E081E090E0022E02C0AD
:1006A000880F991F0A94E2F7842B8C9308C081E08D
:1006B000898305C081E0898302C081E089838981C3
:1006C00028960FB6F894DEBF0FBECDBFCF91DF9155
:1006D0000895DF93CF9300D000D00F92CDB7DEB74F
:1006E0008A836B8319828A81282F30E03D832C8393
:1006F0008C819D8181309105D1F02C813D8122300A
:1007000031052CF48C819D81009761F01FC02C81F4
:100710003D812230310581F08C819D8183309105AE
:1007200081F014C0EBE3F0E08B81808311C0E8E33B
:10073000F0E08B8180830CC0E5E3F0E08B81808367
:1007400007C0E2E3F0E08B81808302C081E089830F
:1007500089810F900F900F900F900F90CF91DF91A4
:100760000895DF93CF93CDB7DEB727970FB6F894F0
:10077000DEBF0FBECDBF8A836B835D834C8319823E
:100780008C819D81009709F478C08B81883008F0B6
:1007900074C08A81282F30E03F832E834E815F8191
:1007A0004130510559F18E819F818230910534F499
:1007B0002E813F812115310569F05CC04E815F813A
:1007C0004230510579F18E819F818330910509F482
:1007D0003DC050C0E9E3F0E08081282F30E08B81FC
:1007E000882F90E0A90102C0559547958A95E2F7B8
:1007F000CA018170EC81FD81808341C0E6E3F0E0B5
:100800008081282F30E08B81882F90E0A90102C0E1
:10081000559547958A95E2F7CA018170EC81FD8173
:1008200080832DC0E3E3F0E08081282F30E08B81CE
:10083000882F90E0A90102C0559547958A95E2F767
:10084000CA018170EC81FD81808319C0E0E3F0E092
:100850008081282F30E08B81882F90E0A90102C091
:10086000559547958A95E2F7CA018170EC81FD8123
:10087000808305C081E0898302C081E0898389810A
:1008800027960FB6F894DEBF0FBECDBFCF91DF9194
:100890000895DF93CF9300D000D000D0CDB7DEB75E
:1008A0008A837C836B8319828A81282F30E03E8380
:1008B0002D838D819E8181309105E1F02D813E81D6
:1008C000223031052CF48D819E81009761F027C084
:1008D0002D813E8122303105A1F08D819E818330B2
:1008E0009105B1F01CC0E9E3F0E08081EB81FC816F
:1008F000808317C0E6E3F0E08081EB81FC81808398
:1009000010C0E3E3F0E08081EB81FC81808309C0CB
:10091000E0E3F0E08081EB81FC81808302C081E034
:100920008983898126960FB6F894DEBF0FBECDBFAE
:10093000CF91DF910895DF93CF9300D000D00F9235
:10094000CDB7DEB78FEF8B831A825EC08A81882F86
:1009500090E0FC01EC59FF4F908183E0692F40E06B
:100960000E94570219823DC08981882F90E0FC01C6
:10097000E05AFF4F90819E012C5F3F4F83E0692F2B
:10098000A9010E94B1038C81882341F58981482FF8
:1009900050E08A81282F30E0CA01880F991F880F04
:1009A000991F820F931FFC01E859FF4F80818B83B1
:1009B0000FC08981882F90E0FC01E05AFF4F9081A1
:1009C0009E012C5F3F4F83E0692FA9010E94B10374
:1009D0008C81882371F38B818D831CC089818F5F0B
:1009E00089838981843008F4BFCF8A81882F90E081
:1009F000FC01EC59FF4F908183E0692F41E00E9498
:100A000057028A818F5F8A838A81843008F49ECF5F
:100A10008B818D838D810F900F900F900F900F9091
:100A2000CF91DF910895DF93CF93CDB7DEB7609775
:100A30000FB6F894DEBF0FBECDBF69877A878B876C
:100A40009C872D873E874F87588B81E090E0A0E000
:100A5000B0E08D839E83AF83B88719821A821B8290
:100A60001C821DC08D819E81AF81B88529853A8504
:100A70004B855C85BC01CD010E944209DC01CB01A4
:100A80008D839E83AF83B88789819A81AB81BC8136
:100A90000196A11DB11D89839A83AB83BC832D85EB
:100AA0003E854F85588989819A81AB81BC818217A7
:100AB0009307A407B507B0F28D819E81AF81B885F9
:100AC000BC01CD0160960FB6F894DEBF0FBECDBF5E
:100AD000CF91DF910895AF92BF92CF92DF92EF92C4
:100AE000FF920F931F93DF93CF93CDB7DEB7649739
:100AF0000FB6F894DEBF0FBECDBF6D837E838F83AC
:100B0000988729873A874B875C87ED86FE860F8713
:100B1000188BA98ABA8ACB8ADC8A29893A894B89B7
:100B20005C898D859E85AF85B88979018A01E81A2F
:100B3000F90A0A0B1B0B29A13AA14BA15CA18D81DB
:100B40009E81AF81B885281B390B4A0B5B0BC8010E
:100B5000B7010E9442097B018C0129853A854B85AA
:100B60005C858D819E81AF81B885281B390B4A0B2E
:100B70005B0BC801B7010E946109DA01C9019C0140
:100B8000AD018D859E85AF85B889820F931FA41F07
:100B9000B51F89839A83AB83BC8389819A81AB819A
:100BA000BC81BC01CD0164960FB6F894DEBF0FBEC8
:100BB000CDBFCF91DF911F910F91FF90EF90DF900C
:100BC000CF90BF90AF900895DF93CF93CDB7DEB7AE
:100BD000EAE3F0E01082E7E3F0E01082E4E3F0E023
:100BE0001082E1E3F0E080E38083EBE3F0E088E073
:100BF0008083E8E3F0E01082E5E3F0E01082E2E3D6
:100C0000F0E08FEF8083CF91DF910895DF93CF9352
:100C1000CDB7DEB7A3E5B0E0E3E5F0E08081886022
:100C20008C93A3E5B0E0E3E5F0E0808180648C93F1
:100C3000A3E5B0E0E3E5F0E080818F7C8C93A3E551
:100C4000B0E0E3E5F0E0808180628C93A9E5B0E05C
:100C5000E9E5F0E080818D7F8C93A9E5B0E0E9E5DE
:100C6000F0E080818E7F8C93A3E5B0E0E3E5F0E0D7
:100C70008081887F8C93A3E5B0E0E3E5F0E080819C
:100C800083608C93CF91DF910895DF93CF930F9280
:100C9000CDB7DEB78983ECE5F0E0898180830F90E2
:100CA000CF91DF910895DF93CF930F92CDB7DEB749
:100CB0008983E2E5F0E0898180830F90CF91DF9115
:100CC0000895DF93CF9300D00F92CDB7DEB79B830B
:100CD0008A8319828A819B81009739F08A819B815E
:100CE000909382008093810002C082E08983898191
:100CF0000F900F900F90CF91DF910895EF92FF9298
:100D00000F931F93DF93CF9300D0CDB7DEB78A83C5
:100D100019828A818536B0F40F2EFCE5EF2EFF2470
:100D2000F02D8A81E82FF0E080E090E064E670E04A
:100D300040E050E02FEF30E08F010E946B05F7019B
:100D4000808302C081E0898389810F900F90CF91C9
:100D5000DF911F910F91FF90EF900895DF93CF9354
:100D6000CDB7DEB7AEE4B0E0EEE4F0E080818061C4
:100D70008C93AEE4B0E0EEE4F0E0808188608C9388
:100D8000AFE4B0E0EFE4F0E0808182608C93AFE408
:100D9000B0E0EFE4F0E080818E7F8C93AFE4B0E0D0
:100DA000EFE4F0E080818F708C93AFE4B0E0EFE48B
:100DB000F0E0808180628C93AFE4B0E0EFE4F0E09B
:100DC000808180688C93A9E5B0E0E9E5F0E080815E
:100DD0008F7E8C93A9E5B0E0E9E5F0E08081877F24
:100DE0008C93A9E5B0E0E9E5F0E080818B7F8C93FE
:100DF000AEE4B0E0EEE4F0E08081887F8C93AEE476
:100E0000B0E0EEE4F0E0808182608C93CF91DF91DE
:100E10000895DF93CF9300D0CDB7DEB79A8389834F
:100E2000EAE4F0E089819A81918380830F900F90AA
:100E3000CF91DF910895DF93CF9300D0CDB7DEB788
:100E40009A838983E8E4F0E089819A8191838083A1
:100E50000F900F90CF91DF910895DF93CF9300D043
:100E6000CDB7DEB79A838983E6E4F0E089819A8181
:100E7000918380830F900F90CF91DF910895DF933E
:100E8000CF93CDB7DEB7A5E4B0E0E5E4F0E0808134
:100E900088608C93A5E4B0E0E5E4F0E080818F7B8E
:100EA0008C93A5E4B0E0E5E4F0E080818F7C8C9346
:100EB000A5E4B0E0E5E4F0E080818C93A9E5B0E042
:100EC000E9E5F0E0808180688C93A9E5B0E0E9E590
:100ED000F0E0808180648C93A5E4B0E0E5E4F0E08C
:100EE0008081887F8C93A5E4B0E0E5E4F0E0808128
:100EF00082608C93CF91DF910895DF93CF930F920F
:100F0000CDB7DEB78983E3E4F0E0898180830F9079
:100F1000CF91DF910895DF93CF930F92CDB7DEB7D6
:100F20008983E4E4F0E0898180830F90CF91DF91A1
:100F30000895DF93CF9300D00F92CDB7DEB79B8398
:100F40008A8319828A819B81009739F08A819B81EB
:100F5000909384008093830002C082E0898389811A
:100F60000F900F900F90CF91DF9108951F920F92E5
:100F70000FB60F9211242F933F934F935F936F936C
:100F80007F938F939F93AF93BF93EF93FF93DF93E1
:100F9000CF93CDB7DEB78091830090918400009706
:100FA00029F0E0918300F09184000995CF91DF91C1
:100FB000FF91EF91BF91AF919F918F917F916F9131
:100FC0005F914F913F912F910F900FBE0F901F9007
:100FD00018951F920F920FB60F921124DF93CF93A3
:100FE000CDB7DEB7CF91DF910F900FBE0F901F905E
:100FF00018951F920F920FB60F921124DF93CF9383
:10100000CDB7DEB7CF91DF910F900FBE0F901F903D
:1010100018951F920F920FB60F921124DF93CF9362
:10102000CDB7DEB7CF91DF910F900FBE0F901F901D
:1010300018951F920F920FB60F921124DF93CF9342
:10104000CDB7DEB7CF91DF910F900FBE0F901F90FD
:1010500018951F920F920FB60F921124DF93CF9322
:10106000CDB7DEB7CF91DF910F900FBE0F901F90DD
:1010700018951F920F920FB60F9211242F933F9342
:101080004F935F936F937F938F939F93AF93BF9390
:10109000EF93FF93DF93CF93CDB7DEB780918100BD
:1010A00090918200009729F0E0918100F0918200F8
:1010B0000995CF91DF91FF91EF91BF91AF919F91F2
:1010C0008F917F916F915F914F913F912F910F90F1
:1010D0000FBE0F901F9018951F920F920FB60F9290
:1010E0001124DF93CF93CDB7DEB7CF91DF910F906F
:1010F0000FBE0F901F901895AF92BF92CF92DF92C4
:10110000EF92FF920F931F93DF93CF93CDB7DEB78C
:101110002A970FB6F894DEBF0FBECDBF0E94E4053C
:101120000E94AE0680E29EE40E942D070E944900C4
:101130001C821B829E01295F3F4F81E0B9010E9402
:1011400088009E01275F3F4F80E0B9010E94880020
:101150008F819885CC01A0E0B0E000D000D0EDB741
:10116000FEB7319680839183A283B38360E070E001
:1011700080E090E02CEB32E040E050E00F2EF8E809
:10118000EF2EF3E1FF2EF0E00F2FF0E01F2FF02DF8
:10119000AA24BB2465010E946B050F900F900F904D
:1011A0000F90DC01CB019E838D8389859A85CC01CC
:1011B000A0E0B0E000D000D0EDB7FEB7319680835C
:1011C0009183A283B38360E070E080E090E02FEF32
:1011D00033E040E050E0EE24FF2487010F2EF4EFCF
:1011E000AF2EF1E0BF2EF0E0CF2EF0E0DF2EF02D9D
:1011F0000E946B050F900F900F900F90DC01CB01B8
:101200009A83898389819A8187319105B0F1898197
:101210009A818832910588F589819A81CC01A0E074
:10122000B0E000D000D0EDB7FEB731968083918357
:10123000A283B38367E170E080E090E028E230E0D1
:1012400040E050E0EE24FF2487010F2EF0E2AF2EA5
:10125000FEE4BF2EF0E0CF2EF0E0DF2EF02D0E9456
:101260006B050F900F900F900F90DC01CB019C83CA
:101270008B838B819C810E9409078D819E810E94B6
:101280001B0756CF629FD001739FF001829FE00D34
:10129000F11D649FE00DF11D929FF00D839FF00DF5
:1012A000749FF00D659FF00D9927729FB00DE11DA1
:1012B000F91F639FB00DE11DF91FBD01CF0111247E
:1012C000089597FB092E05260ED057FD04D014D0A3
:1012D0000AD0001C38F450954095309521953F4F29
:1012E0004F4F5F4F0895F6F79095809570956195F3
:1012F0007F4F8F4F9F4F0895A1E21A2EAA1BBB1B51
:10130000FD010DC0AA1FBB1FEE1FFF1FA217B307D1
:10131000E407F50720F0A21BB30BE40BF50B661FE7
:10132000771F881F991F1A9469F7609570958095AB
:1013300090959B01AC01BD01CF010895F894FFCFBA
:10134000040506070302010001020304050607085D
:08135000090A0B0C0D0E0F1031
:00000001FF
