:100000000C942A000C943F000C943F000C943F0089
:100010000C943F000C943F000C943F000C943F0064
:100020000C943F000C943F000C943F000C943F0054
:100030000C943F000C943F000C943F000C943F0044
:100040000C943F000C943F000C943F000C943F0034
:100050000C943F0011241FBECFE5D8E0DEBFCDBF1A
:1000600011E0A0E6B0E0E6E7F8E202C005900D92EC
:10007000A431B107D9F70E94B5100C9439140C942F
:100080000000EF92FF920F931F937B018C0120E001
:1000900030E040E05FE40E94410388238CF0C80117
:1000A000B70120E030E040E05FE40E94B9010E9427
:1000B000A1039B01AC01205030404040504806C095
:1000C000C801B7010E94A1039B01AC01B901CA019B
:1000D0001F910F91FF90EF900895A0E0B0E0E3E74B
:1000E000F0E00C940214DC012B01FA019C91923097
:1000F00008F439C1EB018881823008F433C19430AF
:1001000069F4843009F02FC111969C91119789816F
:10011000981709F428C1A3EFB0E025C1843009F491
:1001200021C18230A9F4923009F01DC19A01AD01BC
:1001300088E0EA010990AE01E90109929E0181502F
:10014000C1F7E201898111969C918923818308C1BD
:10015000923009F407C112962D903C901397EB0151
:100160008A819B811496AD90BD90CD90DC901797BD
:10017000EC80FD800E811F819101281B390BB90194
:1001800037FF04C066277727621B730B6032710547
:100190000CF061C0121613066CF537014801062EEB
:1001A00004C096948794779467940A94D2F721E0D8
:1001B00030E040E050E004C0220F331F441F551FC1
:1001C0006A95D2F721503040404050402E213F21C7
:1001D00040235123211531054105510521F021E02E
:1001E00030E040E050E079018A01E628F72808294C
:1001F00019293CC0232BD1F1260E371E35014601AB
:10020000062E04C096948794779467940A94D2F744
:1002100021E030E040E050E004C0220F331F441FD3
:10022000551F6A95D2F721503040404050402A2156
:100230003B214C215D21211531054105510521F05E
:1002400021E030E040E050E059016A01A628B728DB
:10025000C828D9280BC0821593052CF01C01AA24AC
:10026000BB24650103C0EE24FF24870111969C91F5
:10027000D20111968C91981709F445C0992339F051
:10028000A80197012A193B094C095D0906C0A6017E
:1002900095012E193F09400B510B57FD08C01182E3
:1002A0003382228224833583468357831DC081E0B5
:1002B00081833382228288279927DC01821B930B5A
:1002C000A40BB50B84839583A683B7830DC0220F3F
:1002D000331F441F551F24833583468357838281F0
:1002E000938101979383828324813581468157814D
:1002F000DA01C9010197A109B1098F5F9F4FAF4F83
:10030000BF4328F30BC0918333822282EA0CFB1C8B
:100310000C1D1D1DE482F5820683178383E0808314
:10032000248135814681578157FF1AC0C901AA2708
:1003300097FDA095BA2F81709070A070B0705695FF
:10034000479537952795822B932BA42BB52B848328
:100350009583A683B7838281938101969383828359
:10036000DF0101C0D201CD01CDB7DEB7E2E10C94CF
:100370001E14A0E2B0E0EFEBF1E00C940E146983E0
:100380007A838B839C832D833E834F835887E9E058
:10039000EE2EF12CEC0EFD1ECE010196B7010E944F
:1003A000CA048E010F5E1F4FCE010596B8010E9450
:1003B000CA048A8991E089278A8BC701B801AE01F6
:1003C000475E5F4F0E946D000E94F503A096E6E035
:1003D0000C942A14A0E2B0E0E0EFF1E00C940E14CB
:1003E00069837A838B839C832D833E834F835887D5
:1003F000F9E0EF2EF12CEC0EFD1ECE010196B701B7
:100400000E94CA048E010F5E1F4FCE010596B801EF
:100410000E94CA04C701B801AE01475E5F4F0E9447
:100420006D000E94F503A096E6E00C942A14A0E269
:10043000B0E0EDE1F2E00C94021469837A838B83DF
:100440009C832D833E834F835887CE010196BE0146
:10045000675F7F4F0E94CA04CE010596BE016F5EA2
:100460007F4F0E94CA049985923088F08989823032
:10047000C8F0943019F4823051F404C0843029F467
:10048000923081F483EF90E0C6C0923049F420E0CE
:100490009A858A89981321E02A87CE010996BBC0E4
:1004A000823049F420E09A858A89981321E02A8BCA
:1004B000CE014196B0C02D843E844F8458886D880B
:1004C0007E888F88988CEE24FF248701AA24BB2481
:1004D000650140E050E060E070E0E0E0F0E0C10184
:1004E00081709070892BE9F0E60CF71C081D191D2E
:1004F0009A01AB012A0D3B1D4C1D5D1D80E090E073
:10050000A0E0B0E0E614F7040805190520F481E046
:1005100090E0A0E0B0E0BA01A901480F591F6A1F9E
:100520007B1FAA0CBB1CCC1CDD1C97FE08C081E005
:1005300090E0A0E0B0E0A82AB92ACA2ADB2A3196C6
:10054000E032F10549F0660C771C881C991C569422
:10055000479437942794C3CFFA85EA892B893C893D
:100560008B859C85280F391F2E5F3F4F17C0CA010E
:1005700081709070892B61F016950795F794E79438
:1005800080E090E0A0E0B0E8E82AF92A0A2B1B2BD3
:1005900076956795579547952F5F3F4F77FDE7CF46
:1005A0000CC0440F551F661F771F17FD4160EE0CEE
:1005B000FF1C001F111F21503040403090E05907B0
:1005C00090E0690790E4790760F32B8F3C8FDB01A3
:1005D000CA018F779070A070B07080349105A1052A
:1005E000B10561F447FD0AC0E114F10401051105EC
:1005F00029F0405C5F4F6F4F7F4F40781A8EFE1797
:1006000011F081E08A8F4D8F5E8F6F8F78A383E02A
:10061000898FCE0149960E94F503A096E2E10C94E1
:100620001E14A8E1B0E0E7E1F3E00C940E14698336
:100630007A838B839C832D833E834F83588789E005
:10064000E82EF12CEC0EFD1ECE010196B7010E94A2
:10065000CA048E010F5E1F4FCE010596B8010E949D
:10066000CA048985823040F08989823028F0C70128
:10067000B8010E94420501C08FEF6896E6E00C9435
:100680002A14A8E1B0E0E7E4F3E00C940E146983C7
:100690007A838B839C832D833E834F83588789E0A5
:1006A000E82EF12CEC0EFD1ECE010196B7010E9442
:1006B000CA048E010F5E1F4FCE010596B8010E943D
:1006C000CA048985823040F08989823028F0C701C8
:1006D000B8010E94420501C08FEF6896E6E00C94D5
:1006E0002A14A8E1B0E0E7E7F3E00C940E14698364
:1006F0007A838B839C832D833E834F83588789E045
:10070000E82EF12CEC0EFD1ECE010196B7010E94E1
:10071000CA048E010F5E1F4FCE010596B8010E94DC
:10072000CA048985823040F08989823028F0C70167
:10073000B8010E94420501C081E06896E6E00C9491
:100740002A14ACE0B0E0E7EAF3E00C9412146983F9
:100750007A838B839C83CE010196BE016B5F7F4FB2
:100760000E94CA048D81823061F1823050F1843060
:1007700021F48E81882351F12EC02F81388537FDD9
:1007800020C06E812F3131051CF06623F9F023C0A3
:100790008EE190E0821B930B29853A854B855C8521
:1007A00004C056954795379527958A95D2F76623C5
:1007B000B1F050954095309521953F4F4F4F5F4F89
:1007C0000EC020E030E040E050E009C02FEF3FEFE6
:1007D0004FEF5FE704C020E030E040E050E8B901AF
:1007E000CA012C96E2E00C942E14DF92EF92FF9255
:1007F0000F931F93FC01E480F58006811781D1805F
:100800008081823048F480E090E0A0E1B0E0E82A06
:10081000F92A0A2B1B2BA5C0843009F49FC0823013
:1008200021F4EE24FF24870105C0E114F104010541
:10083000110519F4E0E0F0E096C0628173819FEF4A
:10084000623879070CF05BC022E83FEF261B370BBC
:100850002A3131052CF020E030E040E050E02AC0A1
:10086000B801A701022E04C0769567955795479564
:100870000A94D2F781E090E0A0E0B0E004C0880FD5
:10088000991FAA1FBB1F2A95D2F70197A109B10989
:100890008E219F21A023B1230097A105B10521F04E
:1008A00081E090E0A0E0B0E09A01AB01282B392B69
:1008B0004A2B5B2BDA01C9018F779070A070B07062
:1008C00080349105A105B10539F427FF09C0205CEA
:1008D0003F4F4F4F5F4F04C0215C3F4F4F4F5F4F23
:1008E000E0E0F0E02030A0E03A07A0E04A07A0E412
:1008F0005A0710F0E1E0F0E079018A0127C0603882
:10090000710564F5FB01E158FF4FD801C7018F77EE
:100910009070A070B07080349105A105B10539F4D4
:10092000E7FE0DC080E490E0A0E0B0E004C08FE3FB
:1009300090E0A0E0B0E0E80EF91E0A1F1B1F17FFB1
:1009400005C016950795F794E794319687E01695BC
:100950000795F794E7948A95D1F705C0EE24FF2414
:100960008701EFEFF0E06E2F679566276795902F70
:100970009F77D794DD24D7948E2F8695492F462BC9
:10098000582F5D29B701CA011F910F91FF90EF9079
:10099000DF900895FC01DB01408151812281622FAB
:1009A0006F7770E0221F2227221F9381892F880FE3
:1009B000822B282F30E0991F9927991F11969C931D
:1009C000119721153105A9F54115510561057105ED
:1009D00011F482E037C082E89FEF13969C938E93C8
:1009E00012979A01AB0167E0220F331F441F551F76
:1009F0006A95D1F783E08C930DC0220F331F441FFB
:100A0000551F12968D919C911397019713969C9365
:100A10008E931297203080E0380780E0480780E40A
:100A2000580758F314962D933D934D935C93179765
:100A300008952F3F310579F4411551056105710580
:100A400019F484E08C93089564FF03C081E08C93D3
:100A500012C01C9210C02F57304013963C932E9317
:100A6000129783E08C9387E0440F551F661F771F12
:100A70008A95D1F7706414964D935D936D937C9332
:100A8000179708951F93DC01FB019C91923008F4A5
:100A900047C08081823008F443C0943051F41196ED
:100AA0001C91843099F58181682F70E0611B710978
:100AB0003FC0843021F0923031F48230B9F181812D
:100AC000882389F12DC011961C9111978230F1F085
:100AD00081811817D9F412962D913C911397828138
:100AE00093818217930794F028173907BCF0149666
:100AF0008D919D910D90BC91A02D248135814681D1
:100B00005781281739074A075B0718F4112341F06A
:100B10000AC082179307A407B50740F4112319F000
:100B200061E070E005C06FEF7FEF02C060E070E051
:100B3000CB011F910895DF93CF93CDB7DEB72F97E9
:100B40000FB6F894DEBF0FBECDBF8F8783E067E09E
:100B500040E00E94060983E066E040E00E9406094A
:100B600082E06F850E94180A83E065E041E00E9400
:100B7000060980E090E0A0E0B0E48B879C87AD8719
:100B8000BE876B857C858D859E8520E030E04AEFB1
:100B900054E40E941702DC01CB018F839887A98758
:100BA000BA876F81788589859A8520E030E040E8B2
:100BB0005FE30E94710388232CF481E090E09E8320
:100BC0008D833FC06F81788589859A8520E03FEFCE
:100BD0004FE757E40E94110318164CF56B857C858E
:100BE0008D859E8520E030E040E251E40E941702AE
:100BF000DC01CB01BC01CD010E944100DC01CB0135
:100C00009E838D830FC088EC90E09C838B838B81C7
:100C10009C810197F1F79C838B838D819E81019745
:100C20009E838D838D819E81009769F714C06F81AB
:100C3000788589859A850E944100DC01CB019E83DD
:100C40008D838D819E819A83898389819A81019781
:100C5000F1F79A83898383E065E040E00E9406090A
:100C60002F960FB6F894DEBF0FBECDBFCF91DF91A8
:100C70000895DF93CF93CDB7DEB72F970FB6F894D3
:100C8000DEBF0FBECDBF8F8783E067E041E00E94EB
:100C9000060983E066E040E00E94060982E06F8575
:100CA0000E94180A83E065E041E00E94060980E0A6
:100CB00090E0A0E0B0E48B879C87AD87BE876B8512
:100CC0007C858D859E8520E030E04AEF54E40E94CB
:100CD0001702DC01CB018F839887A987BA876F81C0
:100CE000788589859A8520E030E040E85FE30E94BE
:100CF000710388232CF481E090E09E838D833FC0B4
:100D00006F81788589859A8520E03FEF4FE757E42A
:100D10000E94110318164CF56B857C858D859E8588
:100D200020E030E040E251E40E941702DC01CB01F8
:100D3000BC01CD010E944100DC01CB019E838D836B
:100D40000FC088EC90E09C838B838B819C81019702
:100D5000F1F79C838B838D819E8101979E838D8388
:100D60008D819E81009769F714C06F817885898590
:100D70009A850E944100DC01CB019E838D838D8189
:100D80009E819A83898389819A810197F1F79A8359
:100D9000898383E065E040E00E9406092F960FB644
:100DA000F894DEBF0FBECDBFCF91DF910895DF93E2
:100DB000CF9300D0CDB7DEB79A8389830AC0E9818B
:100DC000FA8180810E94390689819A8101969A83ED
:100DD0008983E981FA818081882389F70F900F90B8
:100DE000CF91DF910895DF93CF93CDB7DEB72E97E4
:100DF0000FB6F894DEBF0FBECDBF80E090E0A0E25A
:100E0000B2E48B879C87AD87BE876B857C858D859B
:100E10009E8520E030E04AEF54E40E941702DC0196
:100E2000CB018F839887A987BA876F817885898559
:100E30009A8520E030E040E85FE30E947103882358
:100E40002CF481E090E09E838D833FC06F81788594
:100E500089859A8520E03FEF4FE757E40E94110310
:100E600018164CF56B857C858D859E8520E030E0DD
:100E700040E251E40E941702DC01CB01BC01CD012C
:100E80000E944100DC01CB019E838D830FC088EC62
:100E900090E09C838B838B819C810197F1F79C83ED
:100EA0008B838D819E8101979E838D838D819E8111
:100EB000009769F714C06F81788589859A850E94AB
:100EC0004100DC01CB019E838D838D819E819A83BD
:100ED000898389819A810197F1F79A83898388E3CD
:100EE0000E949B058CE00E949B0581E00E949B056F
:100EF0002E960FB6F894DEBF0FBECDBFCF91DF9117
:100F00000895DF93CF9300D00F92CDB7DEB78A83D9
:100F10006B838A81882319F48B81898306C08A8137
:100F2000813019F48B81805C898389818068898311
:100F300089810E949B050F900F900F90CF91DF91B8
:100F40000895DF93CF9300D000D00F92CDB7DEB7D6
:100F50009C838B836D838D81882F90E0880F991FF0
:100F6000880F991F880F991F8983898180648983DD
:100F700089810E949B051A820EC08A81282F30E049
:100F80008B819C81FC01E20FF31F80810E94390656
:100F90008A818F5F8A838A81883078F30F900F90DF
:100FA0000F900F900F90CF91DF910895DF93CF9323
:100FB00000D00F92CDB7DEB789836A834B838A81D5
:100FC0006B810E94810789810E9439060F900F90E2
:100FD0000F90CF91DF910895DF93CF93CDB7DEB718
:100FE0002B970FB6F894DEBF0FBECDBF6887798709
:100FF0008A879B8781E08F831E821BC08E818F5FD3
:101000008E838E81282F30E040E050E06AE070E06F
:1010100080E090E00E947B089B01AC018885998567
:10102000AA85BB85BC01CD010E94E013DA01C9018C
:101030008F838F81882311F78E81882F90E001970D
:10104000AA2797FDA095BA2F89839A83AB83BC8387
:1010500042C029813A814B815C816AE070E080E086
:1010600090E00E947B089B01AC0188859985AA8548
:10107000BB85BC01CD010E94E013DA01C9018D835B
:1010800029813A814B815C816AE070E080E090E0E8
:101090000E947B089B01AC0188859985AA85BB8548
:1010A000BC01CD010E94E013DC01CB018887998748
:1010B000AA87BB878D81805D8D838D810E943906D3
:1010C00089819A81AB81BC810197A109B10989838A
:1010D0009A83AB83BC8389819A81AB81BC81BB231A
:1010E0000CF0B7CF2B960FB6F894DEBF0FBECDBF76
:1010F000CF91DF910895DF93CF93CDB7DEB760979F
:101100000FB6F894DEBF0FBECDBF69877A878B8795
:101110009C872D873E874F87588B81E090E0A0E029
:10112000B0E08D839E83AF83B88719821A821B82B9
:101130001C821DC08D819E81AF81B88529853A852D
:101140004B855C85BC01CD010E94C113DC01CB0144
:101150008D839E83AF83B88789819A81AB81BC815F
:101160000196A11DB11D89839A83AB83BC832D8514
:101170003E854F85588989819A81AB81BC818217D0
:101180009307A407B507B0F28D819E81AF81B88522
:10119000BC01CD0160960FB6F894DEBF0FBECDBF87
:1011A000CF91DF910895DF93CF93CDB7DEB781E084
:1011B00064E040E00E94060981E065E041E00E94B1
:1011C0000609CF91DF910895DF93CF93CDB7DEB7B6
:1011D00081E065E040E00E94060981E064E041E0D2
:1011E0000E940609CF91DF910895DF93CF93CDB789
:1011F000DEB781E065E040E00E94060981E064E03E
:1012000040E00E940609CF91DF910895DF93CF93CC
:10121000CDB7DEB728970FB6F894DEBF0FBECDBFAF
:101220008A836B834C8319828B81883008F0F4C0E9
:101230008C81882309F077C08A81282F30E0388795
:101240002F838F8198858130910559F12F813885C1
:10125000223031052CF48F819885009769F060C0A9
:101260002F8138852230310589F18F81988583302F
:10127000910509F440C054C0ABE3B0E0EBE3F0E00B
:101280008081482F8B81282F30E081E090E0022E72
:1012900002C0880F991F0A94E2F7809584238C93EB
:1012A000BDC0A8E3B0E0E8E3F0E08081482F8B8187
:1012B000282F30E081E090E0022E02C0880F991FB5
:1012C0000A94E2F7809584238C93A8C0A5E3B0E04C
:1012D000E5E3F0E08081482F8B81282F30E081E02A
:1012E00090E0022E02C0880F991F0A94E2F78095C1
:1012F00084238C9393C0A2E3B0E0E2E3F0E080812A
:10130000482F8B81282F30E081E090E0022E02C030
:10131000880F991F0A94E2F7809584238C937EC0EE
:1013200081E089837BC08C81813009F072C08A8121
:10133000282F30E03E832D838D819E818130910561
:1013400049F12D813E81223031052CF48D819E8121
:10135000009761F05BC02D813E812230310571F133
:101360008D819E8183309105E9F150C0ABE3B0E0FF
:10137000EBE3F0E08081482F8B81282F30E081E083
:1013800090E0022E02C0880F991F0A94E2F7842B86
:101390008C9344C0A8E3B0E0E8E3F0E08081482FFC
:1013A0008B81282F30E081E090E0022E02C0880F70
:1013B000991F0A94E2F7842B8C9330C0A5E3B0E028
:1013C000E5E3F0E08081482F8B81282F30E081E039
:1013D00090E0022E02C0880F991F0A94E2F7842B36
:1013E0008C931CC0A2E3B0E0E2E3F0E08081482FE0
:1013F0008B81282F30E081E090E0022E02C0880F20
:10140000991F0A94E2F7842B8C9308C081E08983AA
:1014100005C081E0898302C081E0898389812896A3
:101420000FB6F894DEBF0FBECDBFCF91DF91089508
:10143000DF93CF9300D000D00F92CDB7DEB78A8371
:101440006B8319828A81282F30E03D832C838C8125
:101450009D8181309105D1F02C813D812230310573
:101460002CF48C819D81009761F01FC02C813D81FF
:101470002230310581F08C819D818330910581F08E
:1014800014C0EBE3F0E08B81808311C0E8E3F0E06F
:101490008B8180830CC0E5E3F0E08B81808307C003
:1014A000E2E3F0E08B81808302C081E0898389815F
:1014B0000F900F900F900F900F90CF91DF910895A4
:1014C000DF93CF93CDB7DEB727970FB6F894DEBF83
:1014D0000FBECDBF8A836B835D834C8319828C8161
:1014E0009D81009709F478C08B81883008F074C022
:1014F0008A81282F30E03F832E834E815F814130E7
:10150000510559F18E819F818230910534F42E81ED
:101510003F812115310569F05CC04E815F81423009
:10152000510579F18E819F818330910509F43DC089
:1015300050C0E9E3F0E08081282F30E08B81882FD4
:1015400090E0A90102C0559547958A95E2F7CA0136
:101550008170EC81FD81808341C0E6E3F0E0808111
:10156000282F30E08B81882F90E0A90102C055958B
:1015700047958A95E2F7CA018170EC81FD818083ED
:101580002DC0E3E3F0E08081282F30E08B81882FAD
:1015900090E0A90102C0559547958A95E2F7CA01E6
:1015A0008170EC81FD81808319C0E0E3F0E08081EF
:1015B000282F30E08B81882F90E0A90102C055953B
:1015C00047958A95E2F7CA018170EC81FD8180839D
:1015D00005C081E0898302C081E0898389812796E3
:1015E0000FB6F894DEBF0FBECDBFCF91DF91089547
:1015F000DF93CF9300D000D000D0CDB7DEB78A8381
:101600007C836B8319828A81282F30E03E832D836F
:101610008D819E8181309105E1F02D813E812230C6
:1016200031052CF48D819E81009761F027C02D81BA
:101630003E8122303105A1F08D819E81833091055C
:10164000B1F01CC0E9E3F0E08081EB81FC81808394
:1016500017C0E6E3F0E08081EB81FC81808310C05D
:10166000E3E3F0E08081EB81FC81808309C0E0E36B
:10167000F0E08081EB81FC81808302C081E089837E
:10168000898126960FB6F894DEBF0FBECDBFCF91ED
:10169000DF910895DF93CF9300D000D00F92CDB7A4
:1016A000DEB78FEF8B831A825EC08A81882F90E02D
:1016B000FC01E150FF4F908180E0692F40E00E94E3
:1016C000060919823DC08981882F90E0FC01E55010
:1016D000FF4F90819E012C5F3F4F80E0692FA90151
:1016E0000E94600A8C81882341F58981482F50E04F
:1016F0008A81282F30E0CA01880F991F880F991F0F
:10170000820F931FFC01ED5FFE4F80818B830FC022
:101710008981882F90E0FC01E550FF4F90819E0168
:101720002C5F3F4F80E0692FA9010E94600A8C81E5
:10173000882371F38B818D831CC089818F5F89839E
:101740008981843008F4BFCF8A81882F90E0FC0122
:10175000E150FF4F908180E0692F41E00E9406092F
:101760008A818F5F8A838A81843008F49ECF8B813F
:101770008D838D810F900F900F900F900F90CF91D0
:10178000DF910895DF93CF93CDB7DEB7EAE3F0E0C2
:101790008FE08083E7E3F0E08FE38083E4E3F0E031
:1017A0008FEF8083E1E3F0E080EE8083EBE3F0E015
:1017B0008FEF8083E8E3F0E01082E5E3F0E0108251
:1017C000E2E3F0E01082CF91DF910895DF93CF93B1
:1017D000CDB7DEB7E8970FB6F894DEBF0FBECDBF2A
:1017E00081E060E040E00E94060981E061E040E0C5
:1017F0000E94060981E062E040E00E94060981E063
:1018000063E041E00E94060980E090E0A0E0B0E4DF
:101810008DAB9EABAFABB8AF6DA97EA98FA998ADCC
:1018200020E030E04AEF54E40E941702DC01CB01D3
:1018300089AB9AABABABBCAB69A97AA98BA99CA9C4
:1018400020E030E040E85FE30E94710388232CF43D
:1018500081E090E098AB8FA73FC069A97AA98BA9D6
:101860009CA920E03FEF4FE757E40E9411031816B0
:101870004CF56DA97EA98FA998AD20E030E040E23B
:1018800051E40E941702DC01CB01BC01CD010E9492
:101890004100DC01CB0198AB8FA70FC088EC90E032
:1018A0009EA78DA78DA59EA50197F1F79EA78DA751
:1018B0008FA598A9019798AB8FA78FA598A9009796
:1018C00069F714C069A97AA98BA99CA90E94410053
:1018D000DC01CB0198AB8FA78FA598A99CA78BA7FC
:1018E0008BA59CA50197F1F79CA78BA781E060E0F1
:1018F00040E00E94060981E061E040E00E940609A4
:1019000081E062E041E00E94060981E063E040E09E
:101910000E94060980E090E0A0E0B0E48FA398A7C1
:10192000A9A7BAA76FA178A589A59AA520E030E05C
:101930004AEF54E40E941702DC01CB018BA39CA365
:10194000ADA3BEA36BA17CA18DA19EA120E030E040
:1019500040E85FE30E94710388232CF481E090E06B
:101960009AA389A33FC06BA17CA18DA19EA120E079
:101970003FEF4FE757E40E94110318164CF56FA193
:1019800078A589A59AA520E030E040E251E40E94C4
:101990001702DC01CB01BC01CD010E944100DC013A
:1019A000CB019AA389A30FC088EC90E098A38F8FF6
:1019B0008F8D98A10197F1F798A38F8F89A19AA194
:1019C00001979AA389A389A19AA1009769F714C0E6
:1019D0006BA17CA18DA19EA10E944100DC01CB01E5
:1019E0009AA389A389A19AA19E8F8D8F8D8D9E8D9B
:1019F0000197F1F79E8F8D8F81E060E040E00E94BB
:101A0000060981E061E041E00E94060981E062E0B0
:101A100040E00E94060981E063E040E00E94060980
:101A200080E090E0A0E0B0E4898F9A8FAB8FBC8F0C
:101A3000698D7A8D8B8D9C8D20E030E04AEF54E4E7
:101A40000E941702DC01CB018D8B9E8BAF8BB88F70
:101A50006D897E898F89988D20E030E040E85FE3D2
:101A60000E94710388232CF481E090E09C8B8B8B87
:101A70003FC06D897E898F89988D20E03FEF4FE7C9
:101A800057E40E94110318164CF5698D7A8D8B8DE1
:101A90009C8D20E030E040E251E40E941702DC011E
:101AA000CB01BC01CD010E944100DC01CB019C8B2C
:101AB0008B8B0FC088EC90E09A8B898B89899A89EF
:101AC0000197F1F79A8B898B8B899C8901979C8B65
:101AD0008B8B8B899C89009769F714C06D897E89EF
:101AE0008F89988D0E944100DC01CB019C8B8B8BF0
:101AF0008B899C89988B8F878F8598890197F1F7BF
:101B0000988B8F8781E060E041E00E94060981E0C8
:101B100061E040E00E94060981E062E040E00E944E
:101B2000060981E063E040E00E94060980E090E061
:101B3000A0E0B0E48B879C87AD87BE876B857C85F2
:101B40008D859E8520E030E04AEF54E40E94170224
:101B5000DC01CB018F839887A987BA876F8178854D
:101B600089859A8520E030E040E85FE30E947103B8
:101B700088232CF481E090E09E838D833FC06F81A9
:101B8000788589859A8520E03FEF4FE757E40E94EA
:101B9000110318164CF56B857C858D859E8520E09C
:101BA00030E040E251E40E941702DC01CB01BC01AD
:101BB000CD010E944100DC01CB019E838D830FC0CB
:101BC00088EC90E09C838B838B819C810197F1F75B
:101BD0009C838B838D819E8101979E838D838D81D4
:101BE0009E81009769F714C06F81788589859A85F1
:101BF0000E944100DC01CB019E838D838D819E81FB
:101C00009A83898389819A810197F1F79A838983DD
:101C1000E8960FB6F894DEBF0FBECDBFCF91DF912F
:101C20000895DF93CF93CDB7DEB7E8970FB6F8945A
:101C3000DEBF0FBECDBF81E060E041E00E9406093B
:101C400081E061E040E00E94060981E062E040E05E
:101C50000E94060981E063E040E00E94060980E0FE
:101C600090E0A0E0B0E48DAB9EABAFABB8AF6DA998
:101C70007EA98FA998AD20E030E04AEF54E40E949D
:101C80001702DC01CB0189AB9AABABABBCAB69A94A
:101C90007AA98BA99CA920E030E040E85FE30E948C
:101CA000710388232CF481E090E098AB8FA73FC0AC
:101CB00069A97AA98BA99CA920E03FEF4FE757E4D7
:101CC0000E94110318164CF56DA97EA98FA998AD35
:101CD00020E030E040E251E40E941702DC01CB0139
:101CE000BC01CD010E944100DC01CB0198AB8FA764
:101CF0000FC088EC90E09EA78DA78DA59EA50197AB
:101D0000F1F79EA78DA78FA598A9019798AB8FA7EC
:101D10008FA598A9009769F714C069A97AA98BA91A
:101D20009CA90E944100DC01CB0198AB8FA78FA535
:101D300098A99CA78BA78BA59CA50197F1F79CA7B9
:101D40008BA781E060E040E00E94060981E061E04D
:101D500041E00E94060981E062E040E00E9406093D
:101D600081E063E040E00E94060980E090E0A0E0AE
:101D7000B0E48FA398A7A9A7BAA76FA178A589A552
:101D80009AA520E030E04AEF54E40E941702DC01FB
:101D9000CB018BA39CA3ADA3BEA36BA17CA18DA102
:101DA0009EA120E030E040E85FE30E9471038823B9
:101DB0002CF481E090E09AA389A33FC06BA17CA1A1
:101DC0008DA19EA120E03FEF4FE757E40E94110351
:101DD00018164CF56FA178A589A59AA520E030E0EA
:101DE00040E251E40E941702DC01CB01BC01CD01AD
:101DF0000E944100DC01CB019AA389A30FC088ECAB
:101E000090E098A38F8F8F8D98A10197F1F798A3F9
:101E10008F8F89A19AA101979AA389A389A19AA1D9
:101E2000009769F714C06BA17CA18DA19EA10E94AF
:101E30004100DC01CB019AA389A389A19AA19E8FBD
:101E40008D8F8D8D9E8D0197F1F79E8F8D8F81E007
:101E500060E040E00E94060981E061E040E00E940D
:101E6000060981E062E041E00E94060981E063E04A
:101E700040E00E94060980E090E0A0E0B0E4898F95
:101E80009A8FAB8FBC8F698D7A8D8B8D9C8D20E066
:101E900030E04AEF54E40E941702DC01CB018D8B45
:101EA0009E8BAF8BB88F6D897E898F89988D20E04E
:101EB00030E040E85FE30E94710388232CF481E066
:101EC00090E09C8B8B8B3FC06D897E898F89988D2C
:101ED00020E03FEF4FE757E40E94110318164CF53E
:101EE000698D7A8D8B8D9C8D20E030E040E251E44D
:101EF0000E941702DC01CB01BC01CD010E94410010
:101F0000DC01CB019C8B8B8B0FC088EC90E09A8B13
:101F1000898B89899A890197F1F79A8B898B8B89AB
:101F20009C8901979C8B8B8B8B899C89009769F787
:101F300014C06D897E898F89988D0E944100DC01D3
:101F4000CB019C8B8B8B8B899C89988B8F878F8502
:101F500098890197F1F7988B8F8781E060E040E0E6
:101F60000E94060981E061E040E00E94060981E0EC
:101F700062E040E00E94060981E063E041E00E94E7
:101F8000060980E090E0A0E0B0E48B879C87AD87F5
:101F9000BE876B857C858D859E8520E030E04AEF8D
:101FA00054E40E941702DC01CB018F839887A98734
:101FB000BA876F81788589859A8520E030E040E88E
:101FC0005FE30E94710388232CF481E090E09E83FC
:101FD0008D833FC06F81788589859A8520E03FEFAA
:101FE0004FE757E40E94110318164CF56B857C856A
:101FF0008D859E8520E030E040E251E40E9417028A
:10200000DC01CB01BC01CD010E944100DC01CB0110
:102010009E838D830FC088EC90E09C838B838B81A3
:102020009C810197F1F79C838B838D819E81019721
:102030009E838D838D819E81009769F714C06F8187
:10204000788589859A850E944100DC01CB019E83B9
:102050008D838D819E819A83898389819A8101975D
:10206000F1F79A838983E8960FB6F894DEBF0FBE26
:10207000CDBFCF91DF910895DF93CF93CDB7DEB77A
:1020800061970FB6F894DEBF0FBECDBF8D874E8728
:102090005F87688B798B8E859F85A889B9892AE0AF
:1020A00030E040E050E0BC01CD010E94C113DC01F2
:1020B000CB0127E030E040E050E0BC01CD010E94C0
:1020C000E013DA01C90189879A87AB87BC878D85C0
:1020D000882301F51D821E821F8218860DC00E9472
:1020E000E60B8D819E81AF81B8850196A11DB11D42
:1020F0008D839E83AF83B8872D813E814F81588524
:1021000089859A85AB85BC85281739074A075B07FF
:1021100030F322C08D858130F9F419821A821B8236
:102120001C820DC00E94110E89819A81AB81BC81F5
:102130000196A11DB11D89839A83AB83BC8329813C
:102140003A814B815C8189859A85AB85BC8528174E
:1021500039074A075B0730F361960FB6F894DEBF84
:102160000FBECDBFCF91DF910895EF92FF920F93F5
:102170001F93DF93CF93CDB7DEB769970FB6F8946F
:10218000DEBF0FBECDBF0E94C20B0E94F3060E94AD
:102190009A12CE0146960E9453138E89813049F5DA
:1021A0000E943D13CE0146960E9453138E898130C2
:1021B00019F40E94D30805C08E89823011F40E9460
:1021C000E40881E00E949B0580E690E00E94D7062B
:1021D00081E060E00E9481078EE690E00E94D706D1
:1021E000CE0146960E9453130E94F5080E949A124F
:1021F000D0CF8E89823009F014C10E943D13CE01E8
:1022000046960E9453138E89813009F083C081E085
:102210000E949B0586E790E00E94D7061D8ACE01AA
:1022200046960E9453138E898536B1F08D89282FEA
:1022300030E04E89CE014796FC01E20FF31F408348
:102240008E89882F90E0A0E0B0E0BC01CD010E9413
:10225000EC078D898F5F8D8B8E89853601F71C8AFF
:102260001B8A1A8A35C08D89282F30E08A89882FE9
:1022700090E0A901481B590BCA0101979C01442712
:1022800037FD4095542F6AE070E080E090E00E94B6
:1022900069137B018C018A89282F30E0CE01479693
:1022A000FC01E20FF31F8081282F30E040E050E076
:1022B000C801B7010E94C113DC01CB019C018B89CD
:1022C0009C89820F931F9C8B8B8B8A898F5F8A8B53
:1022D0009A898D89981738F28B899C899C0140E0F6
:1022E00050E080E0BA01A9010E943C10198A0CC09C
:1022F0008989282F30E0CE014796FC01E20FF31FB9
:10230000108289898F5F898B8989833088F30E9445
:102310009A123FCF8E89823009F03BCF81E00E9434
:102320009B0586E790E00E94D7061D8ACE0146965F
:102330000E9453138E898536B1F08D89282F30E0A5
:102340004E89CE014796FC01E20FF31F40838E8930
:10235000882F90E0A0E0B0E0BC01CD010E94EC0726
:102360008D898F5F8D8B8E89853601F71C8A1B8A3C
:10237000188A35C08D89282F30E08889882F90E011
:10238000A901481B590BCA0101979C01442737FD3D
:102390004095542F6AE070E080E090E00E9469135D
:1023A0007B018C018889282F30E0CE014796FC0103
:1023B000E20FF31F8081282F30E040E050E0C80199
:1023C000B7010E94C113DC01CB019C018B899C8960
:1023D000820F931F9C8B8B8B88898F5F888B98894A
:1023E0008D89981738F28B899C899C0140E050E0D8
:1023F00081E0BA01A9010E943C101F860CC08F85A4
:10240000282F30E0CE014796FC01E20FF31F108227
:102410008F858F5F8F878F85833088F30E949A1214
:10242000B8CE8E89833009F0B4CE81E00E949B053E
:102430008DE790E00E94D70681E060E00E9481076E
:102440008BE890E00E94D70680E090E0AAEFB4E429
:102450008B879C87AD87BE876B857C858D859E85A8
:1024600020E030E04AEF54E40E941702DC01CB0187
:102470008F839887A987BA876F81788589859A85A0
:1024800020E030E040E85FE30E94710388232CF4F1
:1024900081E090E09E838D833FC06F817885898540
:1024A0009A8520E03FEF4FE757E40E94110318168A
:1024B0004CF56B857C858D859E8520E030E040E283
:1024C00051E40E941702DC01CB01BC01CD010E9446
:1024D0004100DC01CB019E838D830FC088EC90E02E
:1024E0009C838B838B819C810197F1F79C838B83E9
:1024F0008D819E8101979E838D838D819E81009722
:1025000069F714C06F81788589859A850E9441009A
:10251000DC01CB019E838D838D819E819A8389838B
:1025200089819A810197F1F79A83898381E00E94DA
:102530009B052FCEDF93CF93CDB7DEB72E970FB687
:10254000F894DEBF0FBECDBF81E00E949B0589E9F4
:1025500090E00E94D70681E060E00E9481078AEA4D
:1025600090E00E94D70680E090E0AAE7B5E48B8770
:102570009C87AD87BE876B857C858D859E8520E099
:1025800030E04AEF54E40E941702DC01CB018F8354
:102590009887A987BA876F81788589859A8520E091
:1025A00030E040E85FE30E94710388232CF481E06F
:1025B00090E09E838D833FC06F81788589859A8561
:1025C00020E03FEF4FE757E40E94110318164CF547
:1025D0006B857C858D859E8520E030E040E251E46E
:1025E0000E941702DC01CB01BC01CD010E94410019
:1025F000DC01CB019E838D830FC088EC90E09C832F
:102600008B838B819C810197F1F79C838B838D81D8
:102610009E8101979E838D838D819E81009769F7AE
:1026200014C06F81788589859A850E944100DC01FC
:10263000CB019E838D838D819E819A83898389813D
:102640009A810197F1F79A83898381E00E949B0523
:1026500088EB90E00E94D70681E060E00E9481074D
:1026600087EC90E00E94D7062E960FB6F894DEBF56
:102670000FBECDBFCF91DF910895DF93CF93CDB73C
:10268000DEB781E00E949B0588ED90E00E94D706AE
:1026900081E060E00E94810785EE90E00E94D7060D
:1026A000CF91DF910895DF93CF9300D0CDB7DEB700
:1026B0009A8389830E944A0BE981FA818083E981A8
:1026C000FA8180818F3FB1F30F900F90CF91DF910E
:1026D0000895DF93CF93CDB7DEB760970FB6F89428
:1026E000DEBF0FBECDBF69877A878B879C872D871A
:1026F0003E874F87588B81E090E0A0E0B0E08D836B
:102700009E83AF83B88719821A821B821C821DC0E8
:102710008D819E81AF81B88529853A854B855C8501
:10272000BC01CD010E94C113DC01CB018D839E83CE
:10273000AF83B88789819A81AB81BC810196A11D45
:10274000B11D89839A83AB83BC832D853E854F85DC
:10275000588989819A81AB81BC8182179307A4072C
:10276000B507B0F28D819E81AF81B885BC01CD01E6
:1027700060960FB6F894DEBF0FBECDBFCF91DF914C
:102780000895629FD001739FF001829FE00DF11DBB
:10279000649FE00DF11D929FF00D839FF00D749FDB
:1027A000F00D659FF00D9927729FB00DE11DF91F87
:1027B000639FB00DE11DF91FBD01CF0111240895E4
:1027C000A1E21A2EAA1BBB1BFD010DC0AA1FBB1F35
:1027D000EE1FFF1FA217B307E407F50720F0A21BA7
:1027E000B30BE40BF50B661F771F881F991F1A9414
:1027F00069F760957095809590959B01AC01BD013E
:10280000CF0108952F923F924F925F926F927F92E5
:102810008F929F92AF92BF92CF92DF92EF92FF92F0
:102820000F931F93CF93DF93CDB7DEB7CA1BDB0B9C
:102830000FB6F894DEBF0FBECDBF09942A88398841
:1028400048885F846E847D848C849B84AA84B98448
:10285000C884DF80EE80FD800C811B81AA81B98154
:10286000CE0FD11D0FB6F894DEBF0FBECDBFED0168
:062870000895F894FFCF6B
:10287600507265737320416E79204B657900546FF1
:102886002053746F7000416E676C653A005468613E
:102896006E6B20796F7520666F72007573696E674F
:1028A60020746865206170700057656C636F6D6594
:1028B60020746F206D6F746F720044617368626F6D
:1028C6006172642041707000666F72204443204D2F
:1028D6006F746F723E3100537465707065723E326C
:1028E60020457869743E3300526F746174652043E5
:1028F600572D3E3100526F74617465204343572D46
:102906003E32000000000000000000040506070338
:102916000201000001020304050607080965616C4F
:04292600726F730059
:00000001FF
