:100000000C942A000C9447000C9447000C94470071
:100010000C94860E0C94B90E0C94EC0E0C941F0FDD
:100020000C94520F0C94850F0C94B80F0C94EB0F9A
:100030000C9447000C9447000C9447000C94470024
:100040000C94BC010C9447000C9447000C9447009E
:100050000C94470011241FBECFE5D8E0DEBFCDBF12
:1000600010E0A0E6B0E0ECEFF1E202C005900D92E6
:10007000A437B107D9F710E0A4E7B0E001C01D92A2
:10008000AE38B107E1F70E941E100C94FC100C94DE
:100090000000DF93CF93CDB7DEB7A7E2B0E0E7E291
:1000A000F0E080818F778C93A7E2B0E0E7E2F0E0A8
:1000B000808180648C93A7E2B0E0E7E2F0E0808189
:1000C00080628C93A6E2B0E0E6E2F0E080818F7D72
:1000D0008C93A6E2B0E0E6E2F0E08081877F8C932B
:1000E000A6E2B0E0E6E2F0E08081887F8C93A6E2B1
:1000F000B0E0E6E2F0E0808187608C93A6E2B0E0B9
:10010000E6E2F0E0808180688C93CF91DF910895E2
:10011000DF93CF93CDB7DEB728970FB6F894DEBF45
:100120000FBECDBF8E8378876F831A821B821C829D
:100130001D82198280917800882309F065C08F8123
:100140009885009719F482E0898360C081E08093EC
:100150007800A7E2B0E0E7E2F0E08081807E8C9357
:10016000A7E2B0E0E7E2F0E090818E81892B8C93EA
:10017000A6E2B0E0E6E2F0E0808180648C930BC000
:100180008A819B81AC81BD810196A11DB11D8A83AD
:100190009B83AC83BD83E6E2F0E0808182958F7023
:1001A000882F90E081709070009761F48A819B8124
:1001B000AC81BD81803523EC920720E0A20720E0CE
:1001C000B207F1F68A819B81AC81BD81803523EC39
:1001D000920720E0A20720E0B20719F481E08983AA
:1001E00015C0A6E2B0E0E6E2F0E0808180618C9389
:1001F000E5E2F0E08081882F90E0EF81F88591833F
:1002000080831092780002C083E0898389812896D8
:100210000FB6F894DEBF0FBECDBFCF91DF9108952A
:10022000DF93CF9300D000D000D0CDB7DEB78A8364
:100230007C836B835E834D83198280917800882351
:10024000D1F581E0809378008B819C81009721F02B
:100250008D819E81009719F482E089832EC01092CF
:100260007C008B819C8190937500809374008D81BC
:100270009E819093770080937600A7E2B0E0E7E25A
:10028000F0E08081807E8C93A7E2B0E0E7E2F0E0CE
:1002900090818A81892B8C93A6E2B0E0E6E2F0E0BF
:1002A000808180648C93A6E2B0E0E6E2F0E0808199
:1002B00088608C9302C083E08983898126960FB67B
:1002C000F894DEBF0FBECDBFCF91DF910895DF93CD
:1002D000CF9300D00F92CDB7DEB79B838A8319826C
:1002E00080917800882309F03EC08A819B81009725
:1002F00019F482E0898339C081E08093780081E03D
:1003000080937C008A819B8190937A00809379000E
:1003100010927B00A7E2B0E0E7E2F0E08081807E0F
:100320008C93A7E2B0E0E7E2F0E04081EA81FB8154
:100330002081318180917B00882F90E0F901E80FC6
:10034000F91F8081842B8C93A6E2B0E0E6E2F0E016
:10035000808180648C93A6E2B0E0E6E2F0E08081E8
:1003600088608C9302C083E0898389810F900F900D
:100370000F90CF91DF9108951F920F920FB60F92B9
:1003800011242F933F934F935F936F937F938F939A
:100390009F93AF93BF93EF93FF93DF93CF93CDB72B
:1003A000DEB780917C008823D1F4A0917400B091D5
:1003B0007500E5E2F0E08081882F90E08D939C93BA
:1003C00010927800E0917600F09177000995A6E20E
:1003D000B0E0E6E2F0E08081877F8C935FC080919F
:1003E0007C00813009F05AC0E0917900F0917A00E8
:1003F0002281338180917B00882F90E0880F991FA4
:10040000D901A80FB91FE5E2F0E08081882F90E0C4
:1004100011969C938E9380917B008F5F80937B00DD
:10042000E0917900F0917A00948180917B00981797
:1004300091F4E0917900F0917A000580F681E02D49
:100440000995A6E2B0E0E6E2F0E08081877F8C9338
:100450001092780023C0A7E2B0E0E7E2F0E08081EC
:10046000807E8C93A7E2B0E0E7E2F0E04081E0918B
:100470007900F0917A002081318180917B00882F72
:1004800090E0F901E80FF91F8081842B8C93A6E29C
:10049000B0E0E6E2F0E0808180648C93CF91DF9160
:1004A000FF91EF91BF91AF919F918F917F916F914C
:1004B0005F914F913F912F910F900FBE0F901F9022
:1004C0001895DF93CF93CDB7DEB728970FB6F89482
:1004D000DEBF0FBECDBF8A836B834C8319828B81B5
:1004E000883008F0F4C08C81882309F077C08A81B5
:1004F000282F30E038872F838F81988581309105B0
:1005000059F12F813885223031052CF48F8198855F
:10051000009769F060C02F8138852230310589F15C
:100520008F8198858330910509F440C054C0ABE3B6
:10053000B0E0EBE3F0E08081482F8B81282F30E0A2
:1005400081E090E0022E02C0880F991F0A94E2F722
:10055000809584238C93BDC0A8E3B0E0E8E3F0E08D
:100560008081482F8B81282F30E081E090E0022E9F
:1005700002C0880F991F0A94E2F7809584238C9318
:10058000A8C0A5E3B0E0E5E3F0E08081482F8B81CF
:10059000282F30E081E090E0022E02C0880F991FE2
:1005A0000A94E2F7809584238C9393C0A2E3B0E091
:1005B000E2E3F0E08081482F8B81282F30E081E05A
:1005C00090E0022E02C0880F991F0A94E2F78095EE
:1005D00084238C937EC081E089837BC08C818130B1
:1005E00009F072C08A81282F30E03E832D838D81EF
:1005F0009E818130910549F12D813E812230310566
:100600002CF48D819E81009761F05BC02D813E812D
:100610002230310571F18D819E8183309105E9F1A0
:1006200050C0ABE3B0E0EBE3F0E08081482F8B817A
:10063000282F30E081E090E0022E02C0880F991F41
:100640000A94E2F7842B8C9344C0A8E3B0E0E8E37B
:10065000F0E08081482F8B81282F30E081E090E00E
:10066000022E02C0880F991F0A94E2F7842B8C9304
:1006700030C0A5E3B0E0E5E3F0E08081482F8B8156
:10068000282F30E081E090E0022E02C0880F991FF1
:100690000A94E2F7842B8C931CC0A2E3B0E0E2E35F
:1006A000F0E08081482F8B81282F30E081E090E0BE
:1006B000022E02C0880F991F0A94E2F7842B8C93B4
:1006C00008C081E0898305C081E0898302C081E0A0
:1006D0008983898128960FB6F894DEBF0FBECDBFFF
:1006E000CF91DF910895DF93CF9300D000D00F9288
:1006F000CDB7DEB78A836B8319828A81282F30E0D9
:100700003D832C838C819D8181309105D1F02C819A
:100710003D81223031052CF48C819D81009761F060
:100720001FC02C813D812230310581F08C819D815B
:100730008330910581F014C0EBE3F0E08B8180837E
:1007400011C0E8E3F0E08B8180830CC0E5E3F0E0CA
:100750008B81808307C0E2E3F0E08B81808302C05D
:1007600081E0898389810F900F900F900F900F90F7
:10077000CF91DF910895DF93CF93CDB7DEB7279761
:100780000FB6F894DEBF0FBECDBF8A836B835D8347
:100790004C8319828C819D81009709F478C08B81EC
:1007A000883008F074C08A81282F30E03F832E8380
:1007B0004E815F814130510559F18E819F81823098
:1007C000910534F42E813F812115310569F05CC01B
:1007D0004E815F814230510579F18E819F81833056
:1007E000910509F43DC050C0E9E3F0E08081282F75
:1007F00030E08B81882F90E0A90102C05595479584
:100800008A95E2F7CA018170EC81FD81808341C045
:10081000E6E3F0E08081282F30E08B81882F90E0A4
:10082000A90102C0559547958A95E2F7CA018170E2
:10083000EC81FD8180832DC0E3E3F0E08081282FEF
:1008400030E08B81882F90E0A90102C05595479533
:100850008A95E2F7CA018170EC81FD81808319C01D
:10086000E0E3F0E08081282F30E08B81882F90E05A
:10087000A90102C0559547958A95E2F7CA01817092
:10088000EC81FD81808305C081E0898302C081E025
:100890008983898127960FB6F894DEBF0FBECDBF3E
:1008A000CF91DF910895DF93CF9300D000D000D097
:1008B000CDB7DEB78A837C836B8319828A81282F28
:1008C00030E03E832D838D819E8181309105E1F062
:1008D0002D813E81223031052CF48D819E8100973F
:1008E00061F027C02D813E8122303105A1F08D813C
:1008F0009E8183309105B1F01CC0E9E3F0E0808176
:10090000EB81FC81808317C0E6E3F0E08081EB811E
:10091000FC81808310C0E3E3F0E08081EB81FC8107
:10092000808309C0E0E3F0E08081EB81FC8180837B
:1009300002C081E08983898126960FB6F894DEBFD4
:100940000FBECDBFCF91DF910895DF93CF9300D03D
:1009500000D00F92CDB7DEB78A836B8319828B816B
:10096000883008F072C08A81282F30E03D832C83C4
:100970008C819D818130910549F12C813D8122300E
:1009800031052CF48C819D81009761F05BC02C8136
:100990003D812230310571F18C819D81833091053B
:1009A000E9F150C0ABE3B0E0EBE3F0E08081482F29
:1009B0008B81282F30E081E090E0022E02C0880F6A
:1009C000991F0A94E2F784278C9341C0A8E3B0E012
:1009D000E8E3F0E08081482F8B81282F30E081E030
:1009E00090E0022E02C0880F991F0A94E2F7842734
:1009F0008C932DC0A5E3B0E0E5E3F0E08081482FC3
:100A00008B81282F30E081E090E0022E02C0880F19
:100A1000991F0A94E2F784278C9319C0A2E3B0E0EF
:100A2000E2E3F0E08081482F8B81282F30E081E0E5
:100A300090E0022E02C0880F991F0A94E2F78427E3
:100A40008C9305C081E0898302C081E0898389811C
:100A50000F900F900F900F900F90CF91DF9108950E
:100A6000DF93CF93CDB7DEB7AFE5B0E0EFE5F0E0D1
:100A7000808180688C93CF91DF910895DF93CF932D
:100A8000CDB7DEB7AFE5B0E0EFE5F0E080818F777E
:100A90008C93CF91DF910895DF93CF93CDB7DEB7DD
:100AA00060970FB6F894DEBF0FBECDBF69877A8717
:100AB0008B879C872D873E874F87588B81E090E0FE
:100AC000A0E0B0E08D839E83AF83B88719821A823D
:100AD0001B821C821DC08D819E81AF81B8852985B6
:100AE0003A854B855C85BC01CD010E94A010DC01DC
:100AF000CB018D839E83AF83B88789819A81AB8137
:100B0000BC810196A11DB11D89839A83AB83BC83EF
:100B10002D853E854F85588989819A81AB81BC811D
:100B200082179307A407B507B0F28D819E81AF812C
:100B3000B885BC01CD0160960FB6F894DEBF0FBE3C
:100B4000CDBFCF91DF910895AF92BF92CF92DF9248
:100B5000EF92FF920F931F93DF93CF93CDB7DEB742
:100B600064970FB6F894DEBF0FBECDBF6D837E8352
:100B70008F83988729873A874B875C87ED86FE8627
:100B80000F87188BA98ABA8ACB8ADC8A29893A8985
:100B90004B895C898D859E85AF85B88979018A01ED
:100BA000E81AF90A0A0B1B0B29A13AA14BA15CA177
:100BB0008D819E81AF81B885281B390B4A0B5B0B59
:100BC000C801B7010E94A0107B018C0129853A85DC
:100BD0004B855C858D819E81AF81B885281B390B43
:100BE0004A0B5B0BC801B7010E94E110DA01C90191
:100BF0009C01AD018D859E85AF85B889820F931FBD
:100C0000A41FB51F89839A83AB83BC8389819A8192
:100C1000AB81BC81BC01CD0164960FB6F894DEBFF8
:100C20000FBECDBFCF91DF911F910F91FF90EF903D
:100C3000DF90CF90BF90AF900895DF93CF93CDB763
:100C4000DEB7EAE3F0E08EEF8083E7E3F0E088E0F0
:100C50008083E4E3F0E080EF8083E1E3F0E083E28F
:100C60008083EBE3F0E01082E8E3F0E01082E5E35C
:100C7000F0E080EE8083E2E3F0E081E08083CF91DA
:100C8000DF9108958F929F92AF92BF92CF92DF92A1
:100C9000EF92FF920F931F93DF93CF9300D0CDB7C6
:100CA000DEB78A831982A3E5B0E0E3E5F0E0808156
:100CB00088608C93A3E5B0E0E3E5F0E08081806498
:100CC0008C93A3E5B0E0E3E5F0E080818F7C8C932A
:100CD000A3E5B0E0E3E5F0E0808180628C938A8157
:100CE000853698F50F2EFCE58F2E9924F02D8A81FC
:100CF000882F90E0A0E0B0E000D000D0EDB7FEB7C4
:100D0000319680839183A283B38360E070E080E0BA
:100D100090E024E630E040E050E0EE24FF2487013C
:100D20000F2EFFEFAF2EF0E0BF2EF0E0CF2EF0E061
:100D3000DF2EF02D0E94A4050F900F900F900F90C2
:100D4000DC01CB01F401808302C081E08983A3E54B
:100D5000B0E0E3E5F0E08081887F8C93A3E5B0E02C
:100D6000E3E5F0E0808183608C9389810F900F90A0
:100D7000CF91DF911F910F91FF90EF90DF90CF9077
:100D8000BF90AF909F908F900895DF93CF9300D046
:100D900000D0CDB7DEB78A837C836B8319828A81CA
:100DA0008A3068F5EB81FC818081813089F4EB81A8
:100DB000FC8121818A81882F90E0FC01E05AFF4F5D
:100DC0008081982F9095822F692F0E94730319C0FC
:100DD000EB81FC818081882379F4EB81FC81218186
:100DE0008A81882F90E0FC01E05AFF4F9081822F8A
:100DF000692F0E94730305C081E0898302C081E0EE
:100E0000898389810F900F900F900F90CF91DF9180
:100E10000895DF93CF9300D00F92CDB7DEB79B83B9
:100E20008A831982EA81FB818081813059F4EA81C9
:100E3000FB818281EA81FB819381692F41E00E94DD
:100E4000610212C0EA81FB818081882359F4EA8122
:100E5000FB818281EA81FB819381692F40E00E94BE
:100E6000610202C081E0898389810F900F900F9009
:100E7000CF91DF910895DF93CF9300D00F92CDB73C
:100E8000DEB79B838A831982EA81FB81808181306E
:100E900059F4EA81FB818281EA81FB819381692F88
:100EA00040E00E94610212C0EA81FB8180818823B8
:100EB00059F4EA81FB818281EA81FB819381692F68
:100EC00041E00E94610202C081E0898389810F9024
:100ED0000F900F90CF91DF910895DF93CF9300D0C3
:100EE00000D000D0CDB7DEB78A837C836B831982B4
:100EF0008A81282F30E03E832D838D819E81813031
:100F0000910519F12D813E81223031052CF48D811E
:100F10009E81009761F035C02D813E8122303105E0
:100F2000D9F08D819E8183309105E9F02AC08B81B3
:100F30009C818F3F910509F028F4ECE5F0E08B816E
:100F4000808321C081E089831EC0EAE4F0E08B81C8
:100F50009C819183808317C0E8E4F0E08B819C81C1
:100F60009183808310C08B819C818F3F910509F014
:100F700028F4E3E4F0E08B81808305C081E089837D
:100F800002C081E08983898126960FB6F894DEBF7E
:100F90000FBECDBFCF91DF910895DF93CF9300D0E7
:100FA00000D000D0CDB7DEB78A837C836B831982F3
:100FB0008A81282F30E03E832D838D819E81813070
:100FC000910519F12D813E81223031052CF48D815E
:100FD0009E81009761F035C02D813E812230310520
:100FE000D9F08D819E8183309105E9F02AC08B81F3
:100FF0009C818F3F910509F028F4E2E5F0E08B81B8
:10100000808321C081E089831EC0ECE4F0E08B8105
:101010009C819183808317C0ECE4F0E08B819C81FC
:101020009183808310C08B819C818F3F910509F053
:1010300028F4E4E4F0E08B81808305C081E08983BB
:1010400002C081E08983898126960FB6F894DEBFBD
:101050000FBECDBFCF91DF910895DF93CF9300D026
:101060000F92CDB7DEB79B838A8319828A819B81D9
:10107000009709F4B6C0EA81FB818081813079F460
:10108000A3E5B0E0E3E5F0E08081877F8C93A3E502
:10109000B0E0E3E5F0E080818F7B8C933EC0EA8195
:1010A000FB818081823079F4A3E5B0E0E3E5F0E0F4
:1010B0008081877F8C93A3E5B0E0E3E5F0E0808159
:1010C00080648C932AC0EA81FB818081833079F42B
:1010D000A3E5B0E0E3E5F0E0808188608C93A3E5D0
:1010E000B0E0E3E5F0E080818F7B8C9316C0EA816D
:1010F000FB818081843079F4A3E5B0E0E3E5F0E0A2
:10110000808188608C93A3E5B0E0E3E5F0E0808126
:1011100080648C9302C081E08983A3E5B0E0E3E5BD
:10112000F0E080818F7C8C93A3E5B0E0E3E5F0E014
:101130008081282FEA81FB818281882F90E082952F
:101140009295907F9827807F9827822B8C93EA81B5
:10115000FB818381813041F4A9E5B0E0E9E5F0E06D
:10116000808182608C930FC0EA81FB818381823011
:1011700041F4A9E5B0E0E9E5F0E080818D7F8C9352
:1011800002C081E08983EA81FB818481813041F45E
:10119000A9E5B0E0E9E5F0E0808181608C930FC0C3
:1011A000EA81FB818481823041F4A9E5B0E0E9E580
:1011B000F0E080818E7F8C9302C081E08983A3E57B
:1011C000B0E0E3E5F0E08081887F8C93A3E5B0E0B8
:1011D000E3E5F0E09081EA81FB818181892B8C93AA
:1011E00002C082E0898389810F900F900F90CF9188
:1011F000DF910895DF93CF9300D00F92CDB7DEB784
:101200009B838A8319828A819B81009709F4B2C2E9
:10121000EA81FB8180818130E9F4AEE4B0E0EEE464
:10122000F0E080818F7E8C93AEE4B0E0EEE4F0E0FD
:101230008081877F8C93AFE4B0E0EFE4F0E08081C1
:101240008D7F8C93AFE4B0E0EFE4F0E080818E7F9F
:101250008C93DEC1EA81FB8180818230E9F4AEE4C7
:10126000B0E0EEE4F0E080818F7E8C93AEE4B0E0FD
:10127000EEE4F0E08081877F8C93AFE4B0E0EFE4B0
:10128000F0E080818D7F8C93AFE4B0E0EFE4F0E09C
:10129000808181608C93BCC1EA81FB818081833035
:1012A000E9F4AEE4B0E0EEE4F0E080818F7E8C9370
:1012B000AEE4B0E0EEE4F0E08081877F8C93AFE4B1
:1012C000B0E0EFE4F0E0808182608C93AFE4B0E0C6
:1012D000EFE4F0E080818E7F8C939AC1EA81FB81FC
:1012E00080818430E9F4AEE4B0E0EEE4F0E08081A7
:1012F0008F7E8C93AEE4B0E0EEE4F0E08081877FF7
:101300008C93AFE4B0E0EFE4F0E0808182608C93F6
:10131000AFE4B0E0EFE4F0E0808181608C9378C1CD
:10132000EA81FB8180818530E9F4AEE4B0E0EEE44F
:10133000F0E080818F7E8C93AEE4B0E0EEE4F0E0EC
:10134000808188608C93AFE4B0E0EFE4F0E08081CE
:101350008D7F8C93AFE4B0E0EFE4F0E080818E7F8E
:101360008C9356C1EA81FB8180818630E9F4AEE43A
:10137000B0E0EEE4F0E080818F7E8C93AEE4B0E0EC
:10138000EEE4F0E0808188608C93AFE4B0E0EFE4BD
:10139000F0E080818D7F8C93AFE4B0E0EFE4F0E08B
:1013A000808181608C9334C1EA81FB8180818730A8
:1013B000E9F4AEE4B0E0EEE4F0E080818F7E8C935F
:1013C000AEE4B0E0EEE4F0E0808188608C93AFE4BE
:1013D000B0E0EFE4F0E0808182608C93AFE4B0E0B5
:1013E000EFE4F0E080818E7F8C9312C1EA81FB8173
:1013F00080818830E9F4AEE4B0E0EEE4F0E0808192
:101400008F7E8C93AEE4B0E0EEE4F0E08081886003
:101410008C93AFE4B0E0EFE4F0E0808182608C93E5
:10142000AFE4B0E0EFE4F0E0808181608C93F0C045
:10143000EA81FB8180818930E9F4AEE4B0E0EEE43A
:10144000F0E0808180618C93AEE4B0E0EEE4F0E007
:101450008081877F8C93AFE4B0E0EFE4F0E080819F
:101460008D7F8C93AFE4B0E0EFE4F0E080818E7F7D
:101470008C93CEC0EA81FB8180818A30E9F4AEE4AE
:10148000B0E0EEE4F0E0808180618C93AEE4B0E007
:10149000EEE4F0E08081877F8C93AFE4B0E0EFE48E
:1014A000F0E080818D7F8C93AFE4B0E0EFE4F0E07A
:1014B000808181608C93ACC0EA81FB8180818B301C
:1014C000E9F4AEE4B0E0EEE4F0E0808180618C937A
:1014D000AEE4B0E0EEE4F0E08081877F8C93AFE48F
:1014E000B0E0EFE4F0E0808182608C93AFE4B0E0A4
:1014F000EFE4F0E080818E7F8C938AC0EA81FB81EB
:1015000080818C30E9F4AEE4B0E0EEE4F0E080817C
:1015100080618C93AEE4B0E0EEE4F0E08081877F00
:101520008C93AFE4B0E0EFE4F0E0808182608C93D4
:10153000AFE4B0E0EFE4F0E0808181608C9368C0BC
:10154000EA81FB8180818D30E9F4AEE4B0E0EEE425
:10155000F0E0808180618C93AEE4B0E0EEE4F0E0F6
:10156000808188608C93AFE4B0E0EFE4F0E08081AC
:101570008D7F8C93AFE4B0E0EFE4F0E080818E7F6C
:101580008C9346C0EA81FB8180818E30E9F4AEE421
:10159000B0E0EEE4F0E0808180618C93AEE4B0E0F6
:1015A000EEE4F0E0808188608C93AFE4B0E0EFE49B
:1015B000F0E0808182608C93AFE4B0E0EFE4F0E093
:1015C00080818E7F8C9324C0EA81FB8180818F3063
:1015D000E9F4AEE4B0E0EEE4F0E0808180618C9369
:1015E000AEE4B0E0EEE4F0E0808188608C93AFE49C
:1015F000B0E0EFE4F0E0808182608C93AFE4B0E093
:10160000EFE4F0E0808181608C9302C081E0898307
:10161000AFE4B0E0EFE4F0E080818F708C93AFE452
:10162000B0E0EFE4F0E08081282FEA81FB81838144
:10163000882F90E082959295907F9827807F9827B9
:10164000822B8C93AFE4B0E0EFE4F0E08081282FB0
:10165000EA81FB818281882F90E00024969587950E
:101660000794969587950794982F802D822B8C93BD
:10167000EA81FB818481813041F4A9E5B0E0E9E5AC
:10168000F0E0808180618C930FC0EA81FB818481CE
:10169000823041F4A9E5B0E0E9E5F0E080818F7E99
:1016A0008C9302C081E08983EA81FB81858181304E
:1016B00041F4A9E5B0E0E9E5F0E0808188608C9331
:1016C0000FC0EA81FB818581823041F4A9E5B0E059
:1016D000E9E5F0E08081877F8C9302C081E0898317
:1016E000EA81FB818681813041F4A9E5B0E0E9E53A
:1016F000F0E0808184608C930FC0EA81FB81868159
:10170000823041F4A9E5B0E0E9E5F0E080818B7F2B
:101710008C9302C081E08983EA81FB8187818130DB
:1017200041F4A9E5B0E0E9E5F0E0808180628C93C6
:101730000FC0EA81FB818781823041F4A9E5B0E0E6
:10174000E9E5F0E080818F7D8C9302C081E08983A0
:10175000AEE4B0E0EEE4F0E08081887F8C93AEE40C
:10176000B0E0EEE4F0E09081EA81FB818181892B99
:101770008C9302C082E0898389810F900F900F9033
:10178000CF91DF910895DF93CF9300D0CDB7DEB72F
:101790009A838983E6E4F0E089819A81918380834A
:1017A0000F900F90CF91DF910895DF93CF93CDB736
:1017B000DEB72A970FB6F894DEBF0FBECDBF9B836E
:1017C0008A836C835E834D8338872F8319828A8155
:1017D0009B81009709F48FC0EA81FB8180818E3064
:1017E00009F086C0EA81FB818181282F30E03A87A9
:1017F000298789859A858330910579F129853A85EC
:10180000243031055CF489859A858130910589F011
:1018100029853A8522303105C9F047C089859A85E6
:101820008430910539F129853A852530310589F1D2
:101830003CC0E6E4F0E08D819E81880F991F880FFF
:10184000991F880F991F9183808331C0E6E4F0E0EF
:101850008D819E81918380832AC0E6E4F0E08D81B2
:101860009E81969587959695879596958795918370
:1018700080831DC0E6E4F0E08D819E81969587957A
:10188000929582958F7089279F7089279183808395
:101890000EC0E6E4F0E08D819E81880F892F881FBD
:1018A000990B91959183808302C081E089832F8178
:1018B00038858D819E8182179307B8F08C818130A5
:1018C00039F4EAE4F0E08F8198859183808315C034
:1018D0008C81823039F4E8E4F0E08F81988591833F
:1018E00080830BC081E0898308C081E0898305C0C3
:1018F00081E0898302C082E0898389812A960FB6BC
:10190000F894DEBF0FBECDBFCF91DF910895DF9376
:10191000CF9300D00F92CDB7DEB79B838A83198215
:101920008A819B81009709F4B6C0EA81FB8180819E
:10193000813079F4A5E4B0E0E5E4F0E08081877FD0
:101940008C93A5E4B0E0E5E4F0E080818F7B8C939C
:101950003EC0EA81FB818081823079F4A5E4B0E069
:10196000E5E4F0E08081877F8C93A5E4B0E0E5E4D6
:10197000F0E0808180648C932AC0EA81FB818081C1
:10198000833079F4A5E4B0E0E5E4F0E0808188609C
:101990008C93A5E4B0E0E5E4F0E080818F7B8C934C
:1019A00016C0EA81FB818081843079F4A5E4B0E03F
:1019B000E5E4F0E0808188608C93A5E4B0E0E5E4A4
:1019C000F0E0808180648C9302C081E08983A5E48B
:1019D000B0E0E5E4F0E080818F7C8C93A5E4B0E09A
:1019E000E5E4F0E08081282FEA81FB818281882F65
:1019F00090E082959295907F9827807F9827822B00
:101A00008C93EA81FB818381813041F4A9E5B0E0C8
:101A1000E9E5F0E0808180688C930FC0EA81FB816A
:101A20008381823041F4A9E5B0E0E9E5F0E080810E
:101A30008F778C9302C081E08983EA81FB81848166
:101A4000813041F4A9E5B0E0E9E5F0E0808180640F
:101A50008C930FC0EA81FB818481823041F4A9E537
:101A6000B0E0E9E5F0E080818F7B8C9302C081E0FB
:101A70008983A5E4B0E0E5E4F0E08081887F8C9381
:101A8000A5E4B0E0E5E4F0E09081EA81FB818181AA
:101A9000892B8C9302C082E0898389810F900F90FB
:101AA0000F90CF91DF910895DF93CF93CDB7DEB73D
:101AB0006A970FB6F894DEBF0FBECDBF9B8B8A8BA3
:101AC0007D8B6C8B1C8681E08B871A8619868A89B0
:101AD0009B89009709F482C0CE010D969F8B8E8B57
:101AE000EAE6F0E0F98FE88FF5E0FA8FE88DF98DFE
:101AF0000080888D998D0196998F888FEE89FF8956
:101B000000828E899F8901969F8B8E8B9A8D915032
:101B10009A8FEA8DEE2351F7CE010D960E94870C25
:101B200083E06AEF70E00E946D078C899D89CC018B
:101B3000A0E0B0E028EE33E040E050E0BC01CD0191
:101B40000E94A010DC01CB018D839E83AF83B887F8
:101B50008D819E81AF81B8852AEF30E040E050E072
:101B6000BC01CD010E94BF10DA01C90189839A83AB
:101B7000AB83BC832BC0E8E5F0E08081881F882719
:101B8000881F813019F589859A859C0140E050E0D5
:101B900089819A81AB81BC81281739074A075B0785
:101BA00049F41B86A8E5B0E0E8E5F0E080818068B4
:101BB0008C930CC089859A8501969A878987A8E5B8
:101BC000B0E0E8E5F0E0808180688C938B8581301F
:101BD00091F28A899B890E94870C02C082E08C87DF
:101BE0008C856A960FB6F894DEBF0FBECDBFCF913D
:101BF000DF910895DF93CF9300D000D000D0CDB710
:101C0000DEB78A837C836B8319828B819C810097EA
:101C100009F470C08A81282F30E03E832D838D81A6
:101C20009E818430910509F43FC02D813E8125308D
:101C3000310584F48D819E818230910539F12D81A9
:101C40003E81233031054CF58D819E818130910597
:101C5000B1F04DC02D813E812630310599F18D8145
:101C60009E81863091053CF12D813E8127303105E2
:101C700081F18D819E818830910591F138C08B81F1
:101C80009C8190937E0080937D0036C08B819C81E7
:101C90009093800080937F002FC08B819C819093D4
:101CA00082008093810028C08B819C819093840066
:101CB0008093830021C08B819C81909386008093C8
:101CC00085001AC08B819C81909388008093870047
:101CD00013C08B819C8190938A00809389000CC0F3
:101CE0008B819C8190938C0080938B0005C081E058
:101CF000898302C082E08983898126960FB6F89491
:101D0000DEBF0FBECDBFCF91DF9108951F920F921E
:101D10000FB60F9211242F933F934F935F936F93BE
:101D20007F938F939F93AF93BF93EF93FF93DF9333
:101D3000CF93CDB7DEB780918B0090918C00009748
:101D400029F0E0918B00F0918C000995CF91DF9103
:101D5000FF91EF91BF91AF919F918F917F916F9183
:101D60005F914F913F912F910F900FBE0F901F9059
:101D700018951F920F920FB60F9211242F933F9335
:101D80004F935F936F937F938F939F93AF93BF9383
:101D9000EF93FF93DF93CF93CDB7DEB780918900A8
:101DA00090918A00009729F0E0918900F0918A00D3
:101DB0000995CF91DF91FF91EF91BF91AF919F91E5
:101DC0008F917F916F915F914F913F912F910F90E4
:101DD0000FBE0F901F9018951F920F920FB60F9283
:101DE00011242F933F934F935F936F937F938F9320
:101DF0009F93AF93BF93EF93FF93DF93CF93CDB7B1
:101E0000DEB78091830090918400009729F0E091E3
:101E10008300F09184000995CF91DF91FF91EF91BC
:101E2000BF91AF919F918F917F916F915F914F91F2
:101E30003F912F910F900FBE0F901F9018951F92FA
:101E40000F920FB60F9211242F933F934F935F93EE
:101E50006F937F938F939F93AF93BF93EF93FF9372
:101E6000DF93CF93CDB7DEB7809185009091860048
:101E7000009729F0E0918500F09186000995CF91B7
:101E8000DF91FF91EF91BF91AF919F918F917F91E2
:101E90006F915F914F913F912F910F900FBE0F90D7
:101EA0001F9018951F920F920FB60F9211242F9327
:101EB0003F934F935F936F937F938F939F93AF93D2
:101EC000BF93EF93FF93DF93CF93CDB7DEB78091AE
:101ED000870090918800009729F0E0918700F091A9
:101EE00088000995CF91DF91FF91EF91BF91AF915C
:101EF0009F918F917F916F915F914F913F912F9122
:101F00000F900FBE0F901F9018951F920F920FB653
:101F10000F9211242F933F934F935F936F937F936F
:101F20008F939F93AF93BF93EF93FF93DF93CF93E1
:101F3000CDB7DEB78091810090918200009729F0A3
:101F4000E0918100F09182000995CF91DF91FF919E
:101F5000EF91BF91AF919F918F917F916F915F9121
:101F60004F913F912F910F900FBE0F901F9018959A
:101F70001F920F920FB60F9211242F933F934F93FE
:101F80005F936F937F938F939F93AF93BF93EF93E1
:101F9000FF93DF93CF93CDB7DEB780917F00909111
:101FA0008000009729F0E0917F00F0918000099572
:101FB000CF91DF91FF91EF91BF91AF919F918F9161
:101FC0007F916F915F914F913F912F910F900FBE35
:101FD0000F901F9018951F920F920FB60F92112419
:101FE0002F933F934F935F936F937F938F939F9321
:101FF000AF93BF93EF93FF93DF93CF93CDB7DEB74C
:1020000080917D0090917E00009729F0E0917D0005
:10201000F0917E000995CF91DF91FF91EF91BF91F3
:10202000AF919F918F917F916F915F914F913F9170
:102030002F910F900FBE0F901F901895DF93CF93A5
:10204000CDB7DEB72A970FB6F894DEBF0FBECDBF6F
:10205000CE0101969F838E83EFE6F0E0F987E88753
:10206000F5E0FA87E885F9850080888599850196ED
:1020700099878887EE81FF8100828E819F810196FA
:102080009F838E839A8591509A87EA85EE2351F734
:102090000E941D060E943005CE0101960E942D0867
:1020A00080E06DE770E00E946D072CE530E182E092
:1020B000B9010E94FA0DFFCFDF93CF93CDB7DEB702
:1020C00080918D008F5F80938D0080918D00813095
:1020D00059F482E067E040E00E94610282E064E03F
:1020E00041E00E94610229C080918D00853031F469
:1020F00082E066E040E00E9461021FC080918D0096
:102100008F3031F482E065E040E00E94610215C04A
:1021100080918D00843189F482E067E041E00E9483
:10212000610282E066E041E00E94610282E065E0D7
:1021300041E00E94610210928D00CF91DF910895DD
:10214000629FD001739FF001829FE00DF11D649F9B
:10215000E00DF11D929FF00D839FF00D749FF00D27
:10216000659FF00D9927729FB00DE11DF91F639FC8
:10217000B00DE11DF91FBD01CF0111240895A1E2A9
:102180001A2EAA1BBB1BFD010DC0AA1FBB1FEE1FF1
:10219000FF1FA217B307E407F50720F0A21BB30B3C
:1021A000E40BF50B661F771F881F991F1A9469F7B8
:1021B00060957095809590959B01AC01BD01CF0114
:1021C000089597FB092E05260ED057FD04D0D7DFC2
:1021D0000AD0001C38F450954095309521953F4F1A
:1021E0004F4F5F4F0895F6F79095809570956195E4
:0C21F0007F4F8F4F9F4F0895F894FFCF52
:1021FC003F065B4F666D7D077F6F03020002020393
:04220C0003000102C8
:00000001FF
