:100000000C942A000C9447000C9447000C94470071
:100010000C94F60E0C94290F0C945C0F0C948F0F1B
:100020000C94C20F0C94F50F0C9428100C945B10D8
:100030000C9447000C9447000C9447000C94470024
:100040000C9447000C9447000C9447000C94470014
:100050000C94470011241FBECFE5D8E0DEBFCDBF12
:1000600010E0A0E6B0E0E4E3F3E202C005900D92F8
:10007000AA37B107D9F710E0AAE7B0E001C01D9296
:10008000A639B107E1F70E948E100C9498110C94D8
:100090000000DF93CF93CDB7DEB728970FB6F89463
:1000A000DEBF0FBECDBF8A836B834C8319828B81E9
:1000B000883008F0F4C08C81882309F077C08A81E9
:1000C000282F30E038872F838F81988581309105E4
:1000D00059F12F813885223031052CF48F81988594
:1000E000009769F060C02F8138852230310589F191
:1000F0008F8198858330910509F440C054C0ABE3EB
:10010000B0E0EBE3F0E08081482F8B81282F30E0D6
:1001100081E090E0022E02C0880F991F0A94E2F756
:10012000809584238C93BDC0A8E3B0E0E8E3F0E0C1
:100130008081482F8B81282F30E081E090E0022ED3
:1001400002C0880F991F0A94E2F7809584238C934C
:10015000A8C0A5E3B0E0E5E3F0E08081482F8B8103
:10016000282F30E081E090E0022E02C0880F991F16
:100170000A94E2F7809584238C9393C0A2E3B0E0C5
:10018000E2E3F0E08081482F8B81282F30E081E08E
:1001900090E0022E02C0880F991F0A94E2F7809522
:1001A00084238C937EC081E089837BC08C818130E5
:1001B00009F072C08A81282F30E03E832D838D8123
:1001C0009E818130910549F12D813E81223031059A
:1001D0002CF48D819E81009761F05BC02D813E8162
:1001E0002230310571F18D819E8183309105E9F1D5
:1001F00050C0ABE3B0E0EBE3F0E08081482F8B81AF
:10020000282F30E081E090E0022E02C0880F991F75
:100210000A94E2F7842B8C9344C0A8E3B0E0E8E3AF
:10022000F0E08081482F8B81282F30E081E090E042
:10023000022E02C0880F991F0A94E2F7842B8C9338
:1002400030C0A5E3B0E0E5E3F0E08081482F8B818A
:10025000282F30E081E090E0022E02C0880F991F25
:100260000A94E2F7842B8C931CC0A2E3B0E0E2E393
:10027000F0E08081482F8B81282F30E081E090E0F2
:10028000022E02C0880F991F0A94E2F7842B8C93E8
:1002900008C081E0898305C081E0898302C081E0D4
:1002A0008983898128960FB6F894DEBF0FBECDBF33
:1002B000CF91DF910895DF93CF9300D000D00F92BC
:1002C000CDB7DEB78A836B8319828A81282F30E00D
:1002D0003D832C838C819D8181309105D1F02C81CF
:1002E0003D81223031052CF48C819D81009761F095
:1002F0001FC02C813D812230310581F08C819D8190
:100300008330910581F014C0EBE3F0E08B818083B2
:1003100011C0E8E3F0E08B8180830CC0E5E3F0E0FE
:100320008B81808307C0E2E3F0E08B81808302C091
:1003300081E0898389810F900F900F900F900F902B
:10034000CF91DF910895DF93CF93CDB7DEB7279795
:100350000FB6F894DEBF0FBECDBF8A836B835D837B
:100360004C8319828C819D81009709F478C08B8120
:10037000883008F074C08A81282F30E03F832E83B4
:100380004E815F814130510559F18E819F818230CC
:10039000910534F42E813F812115310569F05CC04F
:1003A0004E815F814230510579F18E819F8183308A
:1003B000910509F43DC050C0E9E3F0E08081282FA9
:1003C00030E08B81882F90E0A90102C055954795B8
:1003D0008A95E2F7CA018170EC81FD81808341C07A
:1003E000E6E3F0E08081282F30E08B81882F90E0D9
:1003F000A90102C0559547958A95E2F7CA01817017
:10040000EC81FD8180832DC0E3E3F0E08081282F23
:1004100030E08B81882F90E0A90102C05595479567
:100420008A95E2F7CA018170EC81FD81808319C051
:10043000E0E3F0E08081282F30E08B81882F90E08E
:10044000A90102C0559547958A95E2F7CA018170C6
:10045000EC81FD81808305C081E0898302C081E059
:100460008983898127960FB6F894DEBF0FBECDBF72
:10047000CF91DF910895DF93CF9300D000D000D0CB
:10048000CDB7DEB78A837C836B8319828A81282F5C
:1004900030E03E832D838D819E8181309105E1F096
:1004A0002D813E81223031052CF48D819E81009773
:1004B00061F027C02D813E8122303105A1F08D8170
:1004C0009E8183309105B1F01CC0E9E3F0E08081AA
:1004D000EB81FC81808317C0E6E3F0E08081EB8153
:1004E000FC81808310C0E3E3F0E08081EB81FC813C
:1004F000808309C0E0E3F0E08081EB81FC818083B0
:1005000002C081E08983898126960FB6F894DEBF08
:100510000FBECDBFCF91DF910895DF93CF93CDB7BD
:10052000DEB7AFE5B0E0EFE5F0E0808180688C9366
:10053000CF91DF910895DF93CF93CDB7DEB7AFE5CD
:10054000B0E0EFE5F0E080818F778C93CF91DF9181
:100550000895DF93CF93CDB7DEB760970FB6F894C9
:10056000DEBF0FBECDBF69877A878B879C872D87BB
:100570003E874F87588B81E090E0A0E0B0E08D830C
:100580009E83AF83B88719821A821B821C821DC08A
:100590008D819E81AF81B88529853A854B855C85A3
:1005A000BC01CD010E942811DC01CB018D839E830B
:1005B000AF83B88789819A81AB81BC810196A11DE7
:1005C000B11D89839A83AB83BC832D853E854F857E
:1005D000588989819A81AB81BC8182179307A407CE
:1005E000B507B0F28D819E81AF81B885BC01CD0188
:1005F00060960FB6F894DEBF0FBECDBFCF91DF91EE
:100600000895AF92BF92CF92DF92EF92FF920F9335
:100610001F93DF93CF93CDB7DEB764970FB6F894EF
:10062000DEBF0FBECDBF6D837E838F839887298702
:100630003A874B875C87ED86FE860F87188BA98AE1
:10064000BA8ACB8ADC8A29893A894B895C898D856B
:100650009E85AF85B88979018A01E81AF90A0A0BE3
:100660001B0B29A13AA14BA15CA18D819E81AF8179
:10067000B885281B390B4A0B5B0BC801B7010E94D8
:1006800028117B018C0129853A854B855C858D81FC
:100690009E81AF81B885281B390B4A0B5B0BC801C3
:1006A000B7010E947D11DA01C9019C01AD018D8560
:1006B0009E85AF85B889820F931FA41FB51F8983BC
:1006C0009A83AB83BC8389819A81AB81BC81BC0155
:1006D000CD0164960FB6F894DEBF0FBECDBFCF91AB
:1006E000DF911F910F91FF90EF90DF90CF90BF901F
:1006F000AF900895DF93CF93CDB7DEB7EAE3F0E094
:100700008FEF8083E7E3F0E08FE08083E4E3F0E0C5
:100710008FEF8083E1E3F0E08BEB8083EBE3F0E0AD
:100720001082E8E3F0E01082E5E3F0E01082E2E31B
:10073000F0E01082CF91DF910895AF92BF92CF92F7
:10074000DF92EF92FF920F931F93DF93CF9300D02E
:1007500000D000D0CDB7DEB78C837E836D838D81D2
:100760009E810097F1F18C81882F90E0A0E0B0E0AD
:1007700000D000D0EDB7FEB7319680839183A2837D
:10078000B38360E070E080E090E024EB30E040E094
:1007900050E00F2EF0E9EF2EF1E0FF2EF0E00F2FEA
:1007A000F0E01F2FF02D0F2EF1E6AF2EFAE0BF2E56
:1007B000F0E0CF2EF0E0DF2EF02D0E9401030F902D
:1007C0000F900F900F90DC01CB019A8389838D816C
:1007D0009E8129813A8160E27EE4A9010E94890A12
:1007E00002C082E08B838B8126960FB6F894DEBF21
:1007F0000FBECDBFCF91DF911F910F91FF90EF9072
:10080000DF90CF90BF90AF900895DF93CF93CDB797
:10081000DEB780918C0090918D00A0918E00B091F8
:100820008F000196A11DB11D80938C0090938D00C7
:10083000A0938E00B0938F0020918C0030918D009A
:1008400040918E0050918F00809190009091910086
:10085000A0919200B0919300281739074A075B07CF
:10086000F1F4E0918A00F0918B00099510928C00D0
:1008700010928D0010928E0010928F008091940043
:10088000813029F480E062E00E94460508C0809132
:100890009400823021F480E061E00E944605CF910F
:1008A000DF910895DF93CF9300D000D000D0CDB773
:1008B000DEB78A837C836B8319828A81282F30E09C
:1008C0003E832D838D819E8183309105B9F02D81EA
:1008D0003E8124303105C9F08D819E81009719F544
:1008E0008B819C818F3F910509F028F4E2E5F0E0CF
:1008F0008B8180831AC081E0898317C0ECE4F0E02B
:100900008B819C819183808310C08B819C818F3FE0
:10091000910509F028F4E4E4F0E08B81808305C0C0
:1009200081E0898302C081E08983898126960FB6A0
:10093000F894DEBF0FBECDBFCF91DF910895DF9356
:10094000CF9300D000D000D0CDB7DEB78A837C83B0
:100950006B8319828A81282F30E03E832D838D811D
:100960009E818330910599F02D813E81243031059F
:10097000B9F08D819E810097E9F4E2E5F0E0808195
:10098000882F90E0EB81FC819183808315C0ECE49B
:10099000F0E080819181EB81FC81918380830CC0A8
:1009A000E4E4F0E08081882F90E0EB81FC8191838A
:1009B000808302C081E08983898126960FB6F894EE
:1009C000DEBF0FBECDBFCF91DF910895DF93CF93F0
:1009D00000D000D000D0CDB7DEB78A837C836B8394
:1009E00019828A81282F30E03E832D838D819E815C
:1009F0008130910519F12D813E81223031052CF491
:100A00008D819E81009761F035C02D813E8122301D
:100A10003105D9F08D819E8184309105E9F02AC09D
:100A20008B819C818F3F910509F028F4ECE5F0E083
:100A30008B81808321C081E089831EC0EAE4F0E0DD
:100A40008B819C819183808317C0E8E4F0E08B81E7
:100A50009C819183808310C08B819C818F3F910505
:100A600009F028F4E3E4F0E08B81808305C081E0A5
:100A7000898302C081E08983898126960FB6F89424
:100A8000DEBF0FBECDBFCF91DF910895DF93CF932F
:100A9000CDB7DEB727970FB6F894DEBF0FBECDBF38
:100AA0008A836B8319828B81813009F077C08A81B8
:100AB000282F30E03F832E838E819F8183309105E4
:100AC00009F441C02E813F81243031057CF48E81B0
:100AD0009F818130910539F12E813F81223031058E
:100AE000D4F58E819F810097B1F055C02E813F8152
:100AF00025303105C1F18E819F8185309105DCF073
:100B00002E813F8126303105B1F18E819F81873062
:100B10009105C9F140C0A9E5B0E0E9E5F0E08081C8
:100B200080688C93B8C0A9E5B0E0E9E5F0E0808189
:100B300080648C93B0C0A9E5B0E0E9E5F0E0808185
:100B400080628C93A8C0A9E5B0E0E9E5F0E080817F
:100B500080618C93A0C0A9E5B0E0E9E5F0E0808178
:100B600088608C9398C0A9E5B0E0E9E5F0E0808169
:100B700084608C9390C0A9E5B0E0E9E5F0E0808165
:100B800082608C9388C0A9E5B0E0E9E5F0E080815F
:100B900081608C9380C081E089837DC08B818230AD
:100BA00009F077C08A81282F30E03D832C838C8127
:100BB0009D818330910509F441C02C813D81243011
:100BC00031057CF48C819D818130910539F12C8136
:100BD0003D8122303105D4F58C819D810097B1F0A3
:100BE00055C02C813D8125303105C1F18C819D811D
:100BF00085309105DCF02C813D8126303105B1F145
:100C00008C819D8187309105C9F140C0A9E5B0E094
:100C1000E9E5F0E080818F778C933DC0A9E5B0E0F5
:100C2000E9E5F0E080818F7B8C9335C0A9E5B0E0E9
:100C3000E9E5F0E080818F7D8C932DC0A9E5B0E0DF
:100C4000E9E5F0E080818F7E8C9325C0A9E5B0E0D6
:100C5000E9E5F0E08081877F8C931DC0A9E5B0E0D5
:100C6000E9E5F0E080818B7F8C9315C0A9E5B0E0C9
:100C7000E9E5F0E080818D7F8C930DC0A9E5B0E0BF
:100C8000E9E5F0E080818E7F8C9305C081E0898367
:100C900002C081E08983898127960FB6F894DEBF70
:100CA0000FBECDBFCF91DF910895DF93CF9300D0DA
:100CB0000F92CDB7DEB79B838A8319828A819B818D
:100CC000009709F4B6C0EA81FB818081813079F414
:100CD000A3E5B0E0E3E5F0E08081877F8C93A3E5B6
:100CE000B0E0E3E5F0E080818F7B8C933EC0EA8149
:100CF000FB818081823079F4A3E5B0E0E3E5F0E0A8
:100D00008081877F8C93A3E5B0E0E3E5F0E080810C
:100D100080648C932AC0EA81FB818081833079F4DE
:100D2000A3E5B0E0E3E5F0E0808188608C93A3E583
:100D3000B0E0E3E5F0E080818F7B8C9316C0EA8120
:100D4000FB818081843079F4A3E5B0E0E3E5F0E055
:100D5000808188608C93A3E5B0E0E3E5F0E08081DA
:100D600080648C9302C081E08983A3E5B0E0E3E571
:100D7000F0E080818F7C8C93A3E5B0E0E3E5F0E0C8
:100D80008081282FEA81FB818281882F90E08295E3
:100D90009295907F9827807F9827822B8C93EA8169
:100DA000FB818381813041F4A9E5B0E0E9E5F0E021
:100DB000808182608C930FC0EA81FB8183818230C5
:100DC00041F4A9E5B0E0E9E5F0E080818D7F8C9306
:100DD00002C081E08983EA81FB818481813041F412
:100DE000A9E5B0E0E9E5F0E0808181608C930FC077
:100DF000EA81FB818481823041F4A9E5B0E0E9E534
:100E0000F0E080818E7F8C9302C081E08983A3E52E
:100E1000B0E0E3E5F0E08081887F8C93A3E5B0E06B
:100E2000E3E5F0E09081EA81FB818181892B8C935D
:100E300002C082E0898389810F900F900F90CF913B
:100E4000DF910895DF93CF93CDB7DEB76A970FB6E2
:100E5000F894DEBF0FBECDBF9B8B8A8B7D8B6C8BD6
:100E60001C8681E08B871A8619868A899B89009760
:100E700009F484C0CE010D969F8B8E8BE0E6F0E0E6
:100E8000F98FE88FF5E0FA8FE88DF98D0080888D75
:100E9000998D0196998F888FEE89FF8900828E89BE
:100EA0009F8901969F8B8E8B9A8D91509A8FEA8D98
:100EB000EE2351F780E06AEF70E00E94E6048C892F
:100EC0009D89CC01A0E0B0E028EE33E040E050E0A6
:100ED000BC01CD010E942811DC01CB018D839E83D2
:100EE000AF83B8878D819E81AF81B8852AEF30E0CE
:100EF00040E050E0BC01CD010E945B11DA01C90164
:100F000089839A83AB83BC83CE010D960E945506DC
:100F10002DC0E8E5F0E080818695882F90E0817013
:100F20009070882319F189859A859C0140E050E0F2
:100F300089819A81AB81BC81281739074A075B07F1
:100F400049F41B86A8E5B0E0E8E5F0E08081826026
:100F50008C930CC089859A8501969A878987A8E524
:100F6000B0E0E8E5F0E0808182608C938B85813091
:100F700081F28A899B890E94550602C082E08C8793
:100F80008C856A960FB6F894DEBF0FBECDBFCF91A9
:100F9000DF910895DF93CF9300D00F92CDB7DEB7E6
:100FA0009B838A8319828A819B81009709F496C268
:100FB000EA81FB8180818130E9F4AEE4B0E0EEE4C7
:100FC000F0E080818F7E8C93AEE4B0E0EEE4F0E060
:100FD0008081877F8C93AFE4B0E0EFE4F0E0808124
:100FE0008D7F8C93AFE4B0E0EFE4F0E080818E7F02
:100FF0008C93DEC1EA81FB8180818230E9F4AEE42A
:10100000B0E0EEE4F0E080818F7E8C93AEE4B0E05F
:10101000EEE4F0E08081877F8C93AFE4B0E0EFE412
:10102000F0E080818D7F8C93AFE4B0E0EFE4F0E0FE
:10103000808181608C93BCC1EA81FB818081833097
:10104000E9F4AEE4B0E0EEE4F0E080818F7E8C93D2
:10105000AEE4B0E0EEE4F0E08081877F8C93AFE413
:10106000B0E0EFE4F0E0808182608C93AFE4B0E028
:10107000EFE4F0E080818E7F8C939AC1EA81FB815E
:1010800080818430E9F4AEE4B0E0EEE4F0E0808109
:101090008F7E8C93AEE4B0E0EEE4F0E08081877F59
:1010A0008C93AFE4B0E0EFE4F0E0808182608C9359
:1010B000AFE4B0E0EFE4F0E0808181608C9378C130
:1010C000EA81FB8180818530E9F4AEE4B0E0EEE4B2
:1010D000F0E080818F7E8C93AEE4B0E0EEE4F0E04F
:1010E000808188608C93AFE4B0E0EFE4F0E0808131
:1010F0008D7F8C93AFE4B0E0EFE4F0E080818E7FF1
:101100008C9356C1EA81FB8180818630E9F4AEE49C
:10111000B0E0EEE4F0E080818F7E8C93AEE4B0E04E
:10112000EEE4F0E0808188608C93AFE4B0E0EFE41F
:10113000F0E080818D7F8C93AFE4B0E0EFE4F0E0ED
:10114000808181608C9334C1EA81FB81808187300A
:10115000E9F4AEE4B0E0EEE4F0E080818F7E8C93C1
:10116000AEE4B0E0EEE4F0E0808188608C93AFE420
:10117000B0E0EFE4F0E0808182608C93AFE4B0E017
:10118000EFE4F0E080818E7F8C9312C1EA81FB81D5
:1011900080818830E9F4AEE4B0E0EEE4F0E08081F4
:1011A0008F7E8C93AEE4B0E0EEE4F0E08081886066
:1011B0008C93AFE4B0E0EFE4F0E0808182608C9348
:1011C000AFE4B0E0EFE4F0E0808181608C93F0C0A8
:1011D000EA81FB8180818930E9F4AEE4B0E0EEE49D
:1011E000F0E0808180618C93AEE4B0E0EEE4F0E06A
:1011F0008081877F8C93AFE4B0E0EFE4F0E0808102
:101200008D7F8C93AFE4B0E0EFE4F0E080818E7FDF
:101210008C93CEC0EA81FB8180818A30E9F4AEE410
:10122000B0E0EEE4F0E0808180618C93AEE4B0E069
:10123000EEE4F0E08081877F8C93AFE4B0E0EFE4F0
:10124000F0E080818D7F8C93AFE4B0E0EFE4F0E0DC
:10125000808181608C93ACC0EA81FB8180818B307E
:10126000E9F4AEE4B0E0EEE4F0E0808180618C93DC
:10127000AEE4B0E0EEE4F0E08081877F8C93AFE4F1
:10128000B0E0EFE4F0E0808182608C93AFE4B0E006
:10129000EFE4F0E080818E7F8C938AC0EA81FB814D
:1012A00080818C30E9F4AEE4B0E0EEE4F0E08081DF
:1012B00080618C93AEE4B0E0EEE4F0E08081877F63
:1012C0008C93AFE4B0E0EFE4F0E0808182608C9337
:1012D000AFE4B0E0EFE4F0E0808181608C9368C01F
:1012E000EA81FB8180818D30E9F4AEE4B0E0EEE488
:1012F000F0E0808180618C93AEE4B0E0EEE4F0E059
:10130000808188608C93AFE4B0E0EFE4F0E080810E
:101310008D7F8C93AFE4B0E0EFE4F0E080818E7FCE
:101320008C9346C0EA81FB8180818E30E9F4AEE483
:10133000B0E0EEE4F0E0808180618C93AEE4B0E058
:10134000EEE4F0E0808188608C93AFE4B0E0EFE4FD
:10135000F0E0808182608C93AFE4B0E0EFE4F0E0F5
:1013600080818E7F8C9324C0EA81FB8180818F30C5
:10137000E9F4AEE4B0E0EEE4F0E0808180618C93CB
:10138000AEE4B0E0EEE4F0E0808188608C93AFE4FE
:10139000B0E0EFE4F0E0808182608C93AFE4B0E0F5
:1013A000EFE4F0E0808181608C9302C081E089836A
:1013B000AFE4B0E0EFE4F0E080818F708C93AFE4B5
:1013C000B0E0EFE4F0E08081282FEA81FB818381A7
:1013D000882F90E082959295907F9827807F98271C
:1013E000822B8C93AFE4B0E0EFE4F0E08081282F13
:1013F000EA81FB818281882F90E000249695879571
:101400000794969587950794982F802D822B8C931F
:10141000EA81FB818481813041F4A9E5B0E0E9E50E
:10142000F0E0808180618C930FC0EA81FB81848130
:10143000823041F4A9E5B0E0E9E5F0E080818F7EFB
:101440008C9302C081E08983EA81FB8185818130B0
:1014500041F4A9E5B0E0E9E5F0E0808188608C9393
:101460000FC0EA81FB818581823041F4A9E5B0E0BB
:10147000E9E5F0E08081877F8C9302C081E0898379
:10148000EA81FB818681813041F4A9E5B0E0E9E59C
:10149000F0E0808184608C930FC0EA81FB818681BB
:1014A000823041F4A9E5B0E0E9E5F0E080818B7F8E
:1014B0008C9302C081E08983AEE4B0E0EEE4F0E01A
:1014C0008081887F8C93AEE4B0E0EEE4F0E0908120
:1014D000EA81FB818181892B8C9302C082E0898320
:1014E00089810F900F900F90CF91DF910895DF9336
:1014F000CF9300D0CDB7DEB79A838983E6E4F0E0DE
:1015000089819A81918380830F900F90CF91DF9191
:101510000895DF93CF93CDB7DEB729970FB6F89430
:10152000DEBF0FBECDBF9B838A837D836C835F83C9
:101530004E8319828A819B81009709F49CC0EA81BD
:10154000FB8180818E3009F093C0EA81FB8181812B
:10155000282F30E039872887888599858330910541
:1015600079F128853985243031055CF488859985A1
:101570008130910589F02885398522303105C9F0FF
:1015800047C0888599858430910539F1288539854A
:101590002530310589F13CC0E6E4F0E08C819D8185
:1015A000880F991F880F991F880F991F9183808337
:1015B00031C0E6E4F0E08C819D81918380832AC074
:1015C000E6E4F0E08C819D819695879596958795C8
:1015D00096958795918380831DC0E6E4F0E08C8129
:1015E0009D8196958795929582958F7089279F709A
:1015F0008927918380830EC0E6E4F0E08C819D8191
:10160000880F892F881F990B91959183808302C041
:1016100081E089832E813F818C819D818217930790
:1016200020F1EA81FB818281823059F4EA81FB81D9
:101630008381882331F4EAE4F0E08E819F819183F5
:101640008083EA81FB818381823061F4EA81FB81BE
:101650008281882339F4E8E4F0E08E819F819183D0
:1016600080830BC081E0898308C081E0898305C045
:1016700081E0898302C082E08983898129960FB63F
:10168000F894DEBF0FBECDBFCF91DF910895DF93F9
:10169000CF9300D00F92CDB7DEB79B838A83198298
:1016A0008A819B81009709F4B6C0EA81FB81808121
:1016B000813079F4A5E4B0E0E5E4F0E08081877F53
:1016C0008C93A5E4B0E0E5E4F0E080818F7B8C931F
:1016D0003EC0EA81FB818081823079F4A5E4B0E0EC
:1016E000E5E4F0E08081877F8C93A5E4B0E0E5E459
:1016F000F0E0808180648C932AC0EA81FB81808144
:10170000833079F4A5E4B0E0E5E4F0E0808188601E
:101710008C93A5E4B0E0E5E4F0E080818F7B8C93CE
:1017200016C0EA81FB818081843079F4A5E4B0E0C1
:10173000E5E4F0E0808188608C93A5E4B0E0E5E426
:10174000F0E0808180648C9302C081E08983A5E40D
:10175000B0E0E5E4F0E080818F7C8C93A5E4B0E01C
:10176000E5E4F0E08081282FEA81FB818281882FE7
:1017700090E082959295907F9827807F9827822B82
:101780008C93EA81FB818381813041F4A9E5B0E04B
:10179000E9E5F0E0808180688C930FC0EA81FB81ED
:1017A0008381823041F4A9E5B0E0E9E5F0E0808191
:1017B0008F778C9302C081E08983EA81FB818481E9
:1017C000813041F4A9E5B0E0E9E5F0E08081806492
:1017D0008C930FC0EA81FB818481823041F4A9E5BA
:1017E000B0E0E9E5F0E080818F7B8C9302C081E07E
:1017F0008983A5E4B0E0E5E4F0E08081887F8C9304
:10180000A5E4B0E0E5E4F0E09081EA81FB8181812C
:10181000892B8C9302C082E0898389810F900F907D
:101820000F90CF91DF910895DF93CF93CDB7DEB7BF
:101830006A970FB6F894DEBF0FBECDBF9B8B8A8B25
:101840007D8B6C8B1C8681E08B871A8619868A8932
:101850009B89009709F482C0CE010D969F8B8E8BD9
:10186000E5E6F0E0F98FE88FF5E0FA8FE88DF98D85
:101870000080888D998D0196998F888FEE89FF89D8
:1018800000828E899F8901969F8B8E8B9A8D9150B5
:101890009A8FEA8DEE2351F784E06AEF70E00E94A0
:1018A000E6048C899D89CC01A0E0B0E028EE33E00D
:1018B00040E050E0BC01CD010E942811DC01CB01C9
:1018C0008D839E83AF83B8878D819E81AF81B885DC
:1018D0002AEF30E040E050E0BC01CD010E945B11F6
:1018E000DA01C90189839A83AB83BC83CE010D964B
:1018F0000E94470B2BC0E8E5F0E08081881F882715
:10190000881F813019F589859A859C0140E050E057
:1019100089819A81AB81BC81281739074A075B0707
:1019200049F41B86A8E5B0E0E8E5F0E08081806836
:101930008C930CC089859A8501969A878987A8E53A
:10194000B0E0E8E5F0E0808180688C938B858130A1
:1019500091F28A899B890E94470B02C082E08C87A2
:101960008C856A960FB6F894DEBF0FBECDBFCF91BF
:10197000DF910895DF93CF93CDB7DEB76B970FB6A6
:10198000F894DEBF0FBECDBF9C8B8B8B7E8B6D8B97
:101990001D8681E08C871A8619868B899C89009721
:1019A00009F485C0CE010E96988F8F8BEAE6F0E0A1
:1019B000FA8FE98FF5E0FB8FE98DFA8D0080898D34
:1019C0009A8D01969A8F898FEF89F88D00828F8981
:1019D000988D0196988F8F8B9B8D91509B8FEB8D5F
:1019E000EE2351F78FEF8B870DC08B85282F30E0CA
:1019F0008D899E89B9010E944711009731F08B852E
:101A000081508B878B85882381F78B85282F30E049
:101A100084E0B9010E94E6048B85282F30E040E085
:101A200050E08D819E81AF81B885BC01CD010E94BF
:101A30005B11DA01C90189839A83AB83BC83CE0130
:101A40000E960E94470B2BC0E8E5F0E08081881FCE
:101A50008827881F813019F589859A859C0140E087
:101A600050E089819A81AB81BC81281739074A07E8
:101A70005B0749F41C86A8E5B0E0E8E5F0E080816A
:101A800080688C930CC089859A8501969A8789878E
:101A9000A8E5B0E0E8E5F0E0808180688C938C8573
:101AA000813091F28B899C890E94470B02C082E0B1
:101AB0008D878D856B960FB6F894DEBF0FBECDBFB8
:101AC000CF91DF9108958F929F92AF92BF92CF9264
:101AD000DF92EF92FF920F931F93DF93CF9300D08B
:101AE00000D0CDB7DEB79B838A836C8319828A814D
:101AF0009B81009709F444C0EA81FB818081843096
:101B0000E1F5EA81FB8182818230B9F50F2EF3E4A1
:101B10008F2E9924F02D8C81882F90E0A0E0B0E0EA
:101B200000D000D0EDB7FEB7319680839183A283B9
:101B3000B38360E070E080E090E024E630E040E0D5
:101B400050E0EE24FF2487010F2EFFEFAF2EF0E0D0
:101B5000BF2EF0E0CF2EF0E0DF2EF02D0E9401032B
:101B60000F900F900F900F90DC01CB01F401808358
:101B70008A819B810E94470B05C081E0898302C056
:101B800082E0898389810F900F900F900F90CF9101
:101B9000DF911F910F91FF90EF90DF90CF90BF905A
:101BA000AF909F908F900895DF93CF93CDB7DEB71E
:101BB0006A970FB6F894DEBF0FBECDBF9A8B898BA4
:101BC0007C8B6B8B4D8B1B861A8619868B899C8927
:101BD000009709F46AC08B899C8990938B0080934D
:101BE0008A0085E094E090937B0080937A00CE0198
:101BF0000C969F8B8E8BEFE6F0E0F98FE88FF5E087
:101C0000FA8FE88DF98D0080888D998D0196998FD6
:101C1000888FEE89FF8900828E899F8901969F8B2C
:101C20008E8B9A8D91509A8FEA8DEE2351F784E036
:101C30006AEF70E00E94E60489899A89CC01A0E0ED
:101C4000B0E028EE33E040E050E0BC01CD010E945E
:101C50002811DC01CB018D839E83AF83B8878D81F2
:101C60009E81AF81B8852AEF30E040E050E0BC01B2
:101C7000CD010E945B11DA01C90189839A83AB838C
:101C8000BC838D898093940089819A81AB81BC81CA
:101C90008093900090939100A0939200B093930052
:101CA000CE010C960E94470B02C082E08B878B8589
:101CB0006A960FB6F894DEBF0FBECDBFCF91DF910D
:101CC0000895DF93CF9300D00F92CDB7DEB78A830C
:101CD0006B8319828A81813041F4AEE4B0E0EEE496
:101CE000F0E0808180648C930DC08A81882341F468
:101CF000AEE4B0E0EEE4F0E080818F7B8C9302C034
:101D000081E089838B81813041F4A9E5B0E0E9E588
:101D1000F0E0808180628C930DC08B81823041F431
:101D2000A9E5B0E0E9E5F0E080818F7D8C9302C009
:101D300081E0898389810F900F900F90CF91DF917F
:101D40000895DF93CF9300D0CDB7DEB78A83198291
:101D50008A81813041F4AEE4B0E0EEE4F0E08081CD
:101D600080648C930DC08A81882341F4AEE4B0E096
:101D7000EEE4F0E080818F7B8C9302C081E0898368
:101D800089810F900F90CF91DF910895DF93CF93CA
:101D9000CDB7DEB7E6E4F0E080819181CF91DF91AD
:101DA0000895DF93CF9300D000D0CDB7DEB78A83FC
:101DB0007C836B8319828B819C81009769F08A8177
:101DC000882F90E0880F991FFC01E658FF4F8B8108
:101DD0009C819183808302C082E0898389810F90F6
:101DE0000F900F900F90CF91DF9108951F920F9257
:101DF0000FB60F9211242F933F934F935F936F93DE
:101E00007F938F939F93AF93BF93EF93FF93DF9352
:101E1000CF93CDB7DEB780917A0090917B00009789
:101E200029F0E0917A00F0917B000995CF91DF9144
:101E3000FF91EF91BF91AF919F918F917F916F91A2
:101E40005F914F913F912F910F900FBE0F901F9078
:101E500018951F920F920FB60F9211242F933F9354
:101E60004F935F936F937F938F939F93AF93BF93A2
:101E7000EF93FF93DF93CF93CDB7DEB780917C00D4
:101E800090917D00009729F0E0917C00F0917D0019
:101E90000995CF91DF91FF91EF91BF91AF919F9104
:101EA0008F917F916F915F914F913F912F910F9003
:101EB0000FBE0F901F9018951F920F920FB60F92A2
:101EC00011242F933F934F935F936F937F938F933F
:101ED0009F93AF93BF93EF93FF93DF93CF93CDB7D0
:101EE000DEB78091820090918300009729F0E09105
:101EF0008200F09183000995CF91DF91FF91EF91DE
:101F0000BF91AF919F918F917F916F915F914F9111
:101F10003F912F910F900FBE0F901F9018951F9219
:101F20000F920FB60F9211242F933F934F935F930D
:101F30006F937F938F939F93AF93BF93EF93FF9391
:101F4000DF93CF93CDB7DEB7809180009091810071
:101F5000009729F0E0918000F09181000995CF91E0
:101F6000DF91FF91EF91BF91AF919F918F917F9101
:101F70006F915F914F913F912F910F900FBE0F90F6
:101F80001F9018951F920F920FB60F9211242F9346
:101F90003F934F935F936F937F938F939F93AF93F1
:101FA000BF93EF93FF93DF93CF93CDB7DEB78091CD
:101FB0007E0090917F00009729F0E0917E00F091E3
:101FC0007F000995CF91DF91FF91EF91BF91AF9184
:101FD0009F918F917F916F915F914F913F912F9141
:101FE0000F900FBE0F901F9018951F920F920FB673
:101FF0000F9211242F933F934F935F936F937F938F
:102000008F939F93AF93BF93EF93FF93DF93CF9300
:10201000CDB7DEB78091840090918500009729F0BC
:10202000E0918400F09185000995CF91DF91FF91B7
:10203000EF91BF91AF919F918F917F916F915F9140
:102040004F913F912F910F900FBE0F901F901895B9
:102050001F920F920FB60F9211242F933F934F931D
:102060005F936F937F938F939F93AF93BF93EF9300
:10207000FF93DF93CF93CDB7DEB780918600909129
:102080008700009729F0E0918600F091870009957C
:10209000CF91DF91FF91EF91BF91AF919F918F9180
:1020A0007F916F915F914F913F912F910F900FBE54
:1020B0000F901F9018951F920F920FB60F92112438
:1020C0002F933F934F935F936F937F938F939F9340
:1020D000AF93BF93EF93FF93DF93CF93CDB7DEB76B
:1020E0008091880090918900009729F0E091880004
:1020F000F09189000995CF91DF91FF91EF91BF9108
:10210000AF919F918F917F916F915F914F913F918F
:102110002F910F900FBE0F901F901895DF93CF93C4
:10212000CDB7DEB763970FB6F894DEBF0FBECDBF55
:1021300087E0FE013396DF01282F1D922A95E9F7EB
:102140008EE08B8382E08C8382E08D8382E08F83BC
:1021500082E08887CE010A96988B8F87A4E7B0E04B
:10216000BA8BA98BB5E0BB8BE989FA890080898994
:102170009A8901969A8B898BAF85B8890C92EF85E5
:10218000F8893196F88BEF87FB89F150FB8B2B890F
:10219000222351F70E947A03CE0103960E94CA07B8
:1021A00029E031E188EE93E0B90142E00E94D40DCC
:1021B0000E948D021A8210C09E012D5F3F4F8A81BE
:1021C000B9010E949D03CE010A966FE070E00E9463
:1021D00022078A818F5F8A838A81853B68F319820F
:1021E00014C094EB8981A92FA81B8A2F9E012D5F13
:1021F0003F4FB9010E949D03CE010A966FE070E047
:102200000E94220789818F5F89838981853B48F3FA
:10221000D1CFDF93CF93CDB7DEB7809195008823E0
:1022200049F480E060E041E00E94490081E0809351
:1022300095000BC080919500813039F480E060E01A
:1022400040E00E94490010929500CF91DF910895DF
:10225000629FD001739FF001829FE00DF11D649F8A
:10226000E00DF11D929FF00D839FF00D749FF00D16
:10227000659FF00D9927729FB00DE11DF91F639FB7
:10228000B00DE11DF91FBD01CF0111240895AA1B56
:10229000BB1B51E107C0AA1FBB1FA617B70710F051
:1022A000A61BB70B881F991F5A95A9F78095909583
:1022B000BC01CD010895A1E21A2EAA1BBB1BFD0192
:1022C0000DC0AA1FBB1FEE1FFF1FA217B307E40715
:1022D000F50720F0A21BB30BE40BF50B661F771F6D
:1022E000881F991F1A9469F760957095809590954D
:1022F0009B01AC01BD01CF01089597FB092E052676
:102300000ED057FD04D0D7DF0AD0001C38F450950A
:102310004095309521953F4F4F4F5F4F0895F6F709
:1023200090958095709561957F4F8F4F9F4F089541
:04233000F894FFCF4F
:10233400030200020203020002020302000202037B
:0A2344000200010203020002020081
:00000001FF
