:100000000C942A000C9447000C9447000C94470071
:100010000C9447000C9447000C9447000C94470044
:100020000C9447000C9447000C9447000C94470034
:100030000C9447000C9447000C9447000C94470024
:100040000C9413070C9447000C9447000C94470041
:100050000C94470011241FBECFE5D8E0DEBFCDBF12
:1000600011E0A0E6B0E0E4E8F9E202C005900D92EC
:10007000A234B107D9F711E0A2E4B1E001C01D92AA
:10008000AB34B107E1F70E94E9130C94C0140C944F
:100090000000EF92FF920F931F937B018C0120E0F1
:1000A00030E040E05FE40E94490388238CF0C801FF
:1000B000B70120E030E040E05FE40E94C1010E940F
:1000C000A9039B01AC01205030404040504806C07D
:1000D000C801B7010E94A9039B01AC01B901CA0183
:1000E0001F910F91FF90EF900895A0E0B0E0EBE733
:1000F000F0E00C948914DC012B01FA019C91923000
:1001000008F439C1EB018881823008F433C194309E
:1001100069F4843009F02FC111969C91119789815F
:10012000981709F428C1A0EBB0E025C1843009F488
:1001300021C18230A9F4923009F01DC19A01AD01AC
:1001400088E0EA010990AE01E90109929E0181501F
:10015000C1F7E201898111969C918923818308C1AD
:10016000923009F407C112962D903C901397EB0141
:100170008A819B811496AD90BD90CD90DC901797AD
:10018000EC80FD800E811F819101281B390BB90184
:1001900037FF04C066277727621B730B6032710537
:1001A0000CF061C0121613066CF537014801062EDB
:1001B00004C096948794779467940A94D2F721E0C8
:1001C00030E040E050E004C0220F331F441F551FB1
:1001D0006A95D2F721503040404050402E213F21B7
:1001E00040235123211531054105510521F021E01E
:1001F00030E040E050E079018A01E628F72808293C
:1002000019293CC0232BD1F1260E371E350146019A
:10021000062E04C096948794779467940A94D2F734
:1002200021E030E040E050E004C0220F331F441FC3
:10023000551F6A95D2F721503040404050402A2146
:100240003B214C215D21211531054105510521F04E
:1002500021E030E040E050E059016A01A628B728CB
:10026000C828D9280BC0821593052CF01C01AA249C
:10027000BB24650103C0EE24FF24870111969C91E5
:10028000D20111968C91981709F445C0992339F041
:10029000A80197012A193B094C095D0906C0A6016E
:1002A00095012E193F09400B510B57FD08C01182D3
:1002B0003382228224833583468357831DC081E0A5
:1002C00081833382228288279927DC01821B930B4A
:1002D000A40BB50B84839583A683B7830DC0220F2F
:1002E000331F441F551F24833583468357838281E0
:1002F000938101979383828324813581468157813D
:10030000DA01C9010197A109B1098F5F9F4FAF4F72
:10031000BF4328F30BC0918333822282EA0CFB1C7B
:100320000C1D1D1DE482F5820683178383E0808304
:10033000248135814681578157FF1AC0C901AA27F8
:1003400097FDA095BA2F81709070A070B0705695EF
:10035000479537952795822B932BA42BB52B848318
:100360009583A683B7838281938101969383828349
:10037000DF0101C0D201CD01CDB7DEB7E2E10C94BF
:10038000A514A0E2B0E0E7ECF1E00C9495146983C9
:100390007A838B839C832D833E834F835887E9E048
:1003A000EE2EF12CEC0EFD1ECE010196B7010E943F
:1003B000D2048E010F5E1F4FCE010596B8010E9438
:1003C000D2048A8991E089278A8BC701B801AE01DE
:1003D000475E5F4F0E9475000E94FD03A096E6E015
:1003E0000C94B114A0E2B0E0E8EFF1E00C949514A5
:1003F00069837A838B839C832D833E834F835887C5
:10040000F9E0EF2EF12CEC0EFD1ECE010196B701A6
:100410000E94D2048E010F5E1F4FCE010596B801D7
:100420000E94D204C701B801AE01475E5F4F0E942F
:1004300075000E94FD03A096E6E00C94B114A0E2C2
:10044000B0E0E5E2F2E00C94891469837A838B834F
:100450009C832D833E834F835887CE010196BE0136
:10046000675F7F4F0E94D204CE010596BE016F5E8A
:100470007F4F0E94D2049985923088F0898982301A
:10048000C8F0943019F4823051F404C0843029F457
:10049000923081F480EB90E0C6C0923049F420E0C5
:1004A0009A858A89981321E02A87CE010996BBC0D4
:1004B000823049F420E09A858A89981321E02A8BBA
:1004C000CE014196B0C02D843E844F8458886D88FB
:1004D0007E888F88988CEE24FF248701AA24BB2471
:1004E000650140E050E060E070E0E0E0F0E0C10174
:1004F00081709070892BE9F0E60CF71C081D191D1E
:100500009A01AB012A0D3B1D4C1D5D1D80E090E062
:10051000A0E0B0E0E614F7040805190520F481E036
:1005200090E0A0E0B0E0BA01A901480F591F6A1F8E
:100530007B1FAA0CBB1CCC1CDD1C97FE08C081E0F5
:1005400090E0A0E0B0E0A82AB92ACA2ADB2A3196B6
:10055000E032F10549F0660C771C881C991C569412
:10056000479437942794C3CFFA85EA892B893C892D
:100570008B859C85280F391F2E5F3F4F17C0CA01FE
:1005800081709070892B61F016950795F794E79428
:1005900080E090E0A0E0B0E8E82AF92A0A2B1B2BC3
:1005A00076956795579547952F5F3F4F77FDE7CF36
:1005B0000CC0440F551F661F771F17FD4160EE0CDE
:1005C000FF1C001F111F21503040403090E05907A0
:1005D00090E0690790E4790760F32B8F3C8FDB0193
:1005E000CA018F779070A070B07080349105A1051A
:1005F000B10561F447FD0AC0E114F10401051105DC
:1006000029F0405C5F4F6F4F7F4F40781A8EFE1786
:1006100011F081E08A8F4D8F5E8F6F8F78A383E01A
:10062000898FCE0149960E94FD03A096E2E10C94C9
:10063000A514A8E1B0E0EFE1F3E00C949514698310
:100640007A838B839C832D833E834F83588789E0F5
:10065000E82EF12CEC0EFD1ECE010196B7010E9492
:10066000D2048E010F5E1F4FCE010596B8010E9485
:10067000D2048985823040F08989823028F0C70110
:10068000B8010E944A0501C08FEF6896E6E00C941D
:10069000B114A8E1B0E0EFE4F3E00C9495146983A1
:1006A0007A838B839C832D833E834F83588789E095
:1006B000E82EF12CEC0EFD1ECE010196B7010E9432
:1006C000D2048E010F5E1F4FCE010596B8010E9425
:1006D000D2048985823040F08989823028F0C701B0
:1006E000B8010E944A0501C08FEF6896E6E00C94BD
:1006F000B114A8E1B0E0EFE7F3E00C94951469833E
:100700007A838B839C832D833E834F83588789E034
:10071000E82EF12CEC0EFD1ECE010196B7010E94D1
:10072000D2048E010F5E1F4FCE010596B8010E94C4
:10073000D2048985823040F08989823028F0C7014F
:10074000B8010E944A0501C081E06896E6E00C9479
:10075000B114ACE0B0E0EFEAF3E00C9499146983D3
:100760007A838B839C83CE010196BE016B5F7F4FA2
:100770000E94D2048D81823061F1823050F1843048
:1007800021F48E81882351F12EC02F81388537FDC9
:1007900020C06E812F3131051CF06623F9F023C093
:1007A0008EE190E0821B930B29853A854B855C8511
:1007B00004C056954795379527958A95D2F76623B5
:1007C000B1F050954095309521953F4F4F4F5F4F79
:1007D0000EC020E030E040E050E009C02FEF3FEFD6
:1007E0004FEF5FE704C020E030E040E050E8B9019F
:1007F000CA012C96E2E00C94B514DF92EF92FF92BE
:100800000F931F93FC01E480F58006811781D1804E
:100810008081823048F480E090E0A0E1B0E0E82AF6
:10082000F92A0A2B1B2BA5C0843009F49FC0823003
:1008300021F4EE24FF24870105C0E114F104010531
:10084000110519F4E0E0F0E096C0628173819FEF3A
:10085000623879070CF05BC022E83FEF261B370BAC
:100860002A3131052CF020E030E040E050E02AC091
:10087000B801A701022E04C0769567955795479554
:100880000A94D2F781E090E0A0E0B0E004C0880FC5
:10089000991FAA1FBB1F2A95D2F70197A109B10979
:1008A0008E219F21A023B1230097A105B10521F03E
:1008B00081E090E0A0E0B0E09A01AB01282B392B59
:1008C0004A2B5B2BDA01C9018F779070A070B07052
:1008D00080349105A105B10539F427FF09C0205CDA
:1008E0003F4F4F4F5F4F04C0215C3F4F4F4F5F4F13
:1008F000E0E0F0E02030A0E03A07A0E04A07A0E402
:100900005A0710F0E1E0F0E079018A0127C0603871
:10091000710564F5FB01E158FF4FD801C7018F77DE
:100920009070A070B07080349105A105B10539F4C4
:10093000E7FE0DC080E490E0A0E0B0E004C08FE3EB
:1009400090E0A0E0B0E0E80EF91E0A1F1B1F17FFA1
:1009500005C016950795F794E794319687E01695AC
:100960000795F794E7948A95D1F705C0EE24FF2404
:100970008701EFEFF0E06E2F679566276795902F60
:100980009F77D794DD24D7948E2F8695492F462BB9
:10099000582F5D29B701CA011F910F91FF90EF9069
:1009A000DF900895FC01DB01408151812281622F9B
:1009B0006F7770E0221F2227221F9381892F880FD3
:1009C000822B282F30E0991F9927991F11969C930D
:1009D000119721153105A9F54115510561057105DD
:1009E00011F482E037C082E89FEF13969C938E93B8
:1009F00012979A01AB0167E0220F331F441F551F66
:100A00006A95D1F783E08C930DC0220F331F441FEA
:100A1000551F12968D919C911397019713969C9355
:100A20008E931297203080E0380780E0480780E4FA
:100A3000580758F314962D933D934D935C93179755
:100A400008952F3F310579F4411551056105710570
:100A500019F484E08C93089564FF03C081E08C93C3
:100A600012C01C9210C02F57304013963C932E9307
:100A7000129783E08C9387E0440F551F661F771F02
:100A80008A95D1F7706414964D935D936D937C9322
:100A9000179708951F93DC01FB019C91923008F495
:100AA00047C08081823008F443C0943051F41196DD
:100AB0001C91843099F58181682F70E0611B710968
:100AC0003FC0843021F0923031F48230B9F181811D
:100AD000882389F12DC011961C9111978230F1F075
:100AE00081811817D9F412962D913C911397828128
:100AF00093818217930794F028173907BCF0149656
:100B00008D919D910D90BC91A02D248135814681C0
:100B10005781281739074A075B0718F4112341F05A
:100B20000AC082179307A407B50740F4112319F0F0
:100B300061E070E005C06FEF7FEF02C060E070E041
:100B4000CB011F910895DF93CF93CDB7DEB7A7E216
:100B5000B0E0E7E2F0E080818F778C93A7E2B0E02D
:100B6000E7E2F0E0808180648C93A7E2B0E0E7E206
:100B7000F0E0808180628C93A6E2B0E0E6E2F0E0F3
:100B800080818F7D8C93A6E2B0E0E6E2F0E0808188
:100B9000877F8C93A6E2B0E0E6E2F0E08081887F78
:100BA0008C93A6E2B0E0E6E2F0E0808187608C936F
:100BB000A6E2B0E0E6E2F0E0808180688C93CF911D
:100BC000DF910895DF93CF93CDB7DEB728970FB6A7
:100BD000F894DEBF0FBECDBF8E8378876F831A82F5
:100BE0001B821C821D82198280914601882309F094
:100BF00065C08F819885009719F482E0898360C071
:100C000081E080934601A7E2B0E0E7E2F0E0808176
:100C1000807E8C93A7E2B0E0E7E2F0E090818E81E5
:100C2000892B8C93A6E2B0E0E6E2F0E0808180645C
:100C30008C930BC08A819B81AC81BD810196A11DE3
:100C4000B11D8A839B83AC83BD83E6E2F0E08081A3
:100C500082958F70882F90E081709070009761F47A
:100C60008A819B81AC81BD81803523EC920720E095
:100C7000A20720E0B207F1F68A819B81AC81BD8199
:100C8000803523EC920720E0A20720E0B20719F498
:100C900081E0898315C0A6E2B0E0E6E2F0E0808161
:100CA00080618C93E5E2F0E08081882F90E0EF8115
:100CB000F885918380831092460102C083E0898386
:100CC000898128960FB6F894DEBF0FBECDBFCF91B5
:100CD000DF910895DF93CF9300D000D000D0CDB73F
:100CE000DEB78A837C836B835E834D831982809118
:100CF00046018823D1F581E0809346018B819C8158
:100D0000009721F08D819E81009719F482E08983FC
:100D10002EC0109247018B819C8190934301809358
:100D200042018D819E819093450180934401A7E209
:100D3000B0E0E7E2F0E08081807E8C93A7E2B0E053
:100D4000E7E2F0E090818A81892B8C93A6E2B0E003
:100D5000E6E2F0E0808180648C93A6E2B0E0E6E217
:100D6000F0E0808188608C9302C083E08983898170
:100D700026960FB6F894DEBF0FBECDBFCF91DF91A0
:100D80000895DF93CF9300D00F92CDB7DEB79B834A
:100D90008A831982809146018823E1F581E080935E
:100DA00046018A819B81009719F482E0898334C0CF
:100DB00081E0809347018A819B81909349018093D0
:100DC000480110924A01A7E2B0E0E7E2F0E080813A
:100DD000807E8C93A7E2B0E0E7E2F0E04081809172
:100DE0004A01282F30E08A819B81FC01E20FF31F2A
:100DF0008081842B8C93A6E2B0E0E6E2F0E0808173
:100E000080648C93A6E2B0E0E6E2F0E08081886046
:100E10008C9302C083E0898389810F900F900F909B
:100E2000CF91DF9108951F920F920FB60F92112468
:100E30002F933F934F935F936F937F938F939F93E2
:100E4000AF93BF93EF93FF93DF93CF93CDB7DEB70D
:100E5000809147018823D1F4A0914201B0914301D0
:100E6000E5E2F0E08081882F90E08D939C931092D2
:100E70004601E0914401F09145010995A6E2B0E0F8
:100E8000E6E2F0E08081877F8C935CC0809147012F
:100E9000813009F057C0E0914801F091490190A1DB
:100EA00080914A01981791F4E0914801F09149012D
:100EB00001A0F2A1E02D0995A6E2B0E0E6E2F0E0A3
:100EC0008081877F8C93109246013CC060914801DD
:100ED0007091490180914A01282F30E0E5E2F0E06D
:100EE0008081482F50E0C901880F991F860F971FF6
:100EF000FC01B3965183408380914A018F5F8093B8
:100F00004A01A7E2B0E0E7E2F0E08081807E8C93C6
:100F1000A7E2B0E0E7E2F0E04081209148013091A3
:100F2000490180914A01882F90E0F901E80FF91FEB
:100F30008081842B8C93A6E2B0E0E6E2F0E0808131
:100F400080648C93CF91DF91FF91EF91BF91AF912E
:100F50009F918F917F916F915F914F913F912F91D1
:100F60000F900FBE0F901F901895DF93CF93CDB7C2
:100F7000DEB72E970FB6F894DEBF0FBECDBF0E942E
:100F8000690F80E064E00E946F0E80E690E00E94AE
:100F9000C50D80E090E8ABE3B5E48B879C87AD8717
:100FA000BE876B857C858D859E8520E030E04AEF8D
:100FB00054E40E941F02DC01CB018F839887A9872C
:100FC000BA876F81788589859A8520E030E040E88E
:100FD0005FE30E94790388232CF481E090E09E83F4
:100FE0008D833FC06F81788589859A8520E03FEFAA
:100FF0004FE757E40E94190318164CF56B857C8562
:101000008D859E8520E030E040E251E40E941F0281
:10101000DC01CB01BC01CD010E944900DC01CB0108
:101020009E838D830FC088EC90E09C838B838B81A3
:101030009C810197F1F79C838B838D819E81019721
:101040009E838D838D819E81009769F714C06F8187
:10105000788589859A850E944900DC01CB019E83B1
:101060008D838D819E819A83898389819A8101975D
:10107000F1F79A8389832E960FB6F894DEBF0FBEE0
:10108000CDBFCF91DF910895DF93CF9300D000D0F3
:10109000CDB7DEB79C838B838B819C81009739F120
:1010A0000E94690F88E690E00E94C50D19821CC05D
:1010B0000E94D3118A838A818F3FD1F38A81882F3E
:1010C00090E0A0E0B0E0BC01CD010E94DA0E898181
:1010D000282F30E08B819C81FC01E20FF31F8A8175
:1010E000808389818F5F89838981843008F30F90A1
:1010F0000F900F900F90CF91DF910895DF93CF93D2
:1011000000D000D0CDB7DEB79C838B838B819C81D0
:10111000009759F10E94690F82E790E00E94C50D87
:1011200081E060E00E946F0E19821CC00E94D31102
:101130008A838A818F3FD1F38A81882F90E0A0E053
:10114000B0E0BC01CD010E94DA0E8981282F30E089
:101150008B819C81FC01E20FF31F8A81808389814E
:101160008F5F89838981843008F30F900F900F90EF
:101170000F90CF91DF910895DF93CF93CDB7DEB776
:10118000E5970FB6F894DEBF0FBECDBF98AB8FA723
:101190007AAB69AB5CAB4BAB1EA689A99AA9009749
:1011A00009F401C28FA598A9009709F4FCC18BA985
:1011B0009CA9009709F4F7C18FA598A90E948513EF
:1011C0002FA538A983E0B9010E94411381E08DA7C2
:1011D00051C18BA99CA9FC0133969081E9A9FAA978
:1011E0008081981719F58BA99CA9FC013296208162
:1011F00089A99AA9FC01319680812817B9F48BA995
:101200009CA9FC013196208189A99AA9FC013296FA
:101210008081281759F4EBA9FCA9208189A99AA9F2
:10122000FC0133968081281709F421C18DA58330F4
:1012300009F097C00E94690F82E890E00E94C50DF6
:1012400083E08CA77BC08CA52FA538A9B9010E948B
:10125000411380E090E0AAE7B4E48FA398A7A9A780
:10126000BAA76FA178A589A59AA520E030E04AEF3A
:1012700054E40E941F02DC01CB018BA39CA3ADA30D
:10128000BEA36BA17CA18DA19EA120E030E040E82F
:101290005FE30E94790388232CF481E090E09AA315
:1012A00089A33FC06BA17CA18DA19EA120E03FEF4F
:1012B0004FE757E40E94190318164CF56FA178A563
:1012C00089A59AA520E030E040E251E40E941F0287
:1012D000DC01CB01BC01CD010E944900DC01CB0146
:1012E0009AA389A30FC088EC90E098A38F8F8F8D6D
:1012F00098A10197F1F798A38F8F89A19AA10197DF
:101300009AA389A389A19AA1009769F714C06BA138
:101310007CA18DA19EA10E944900DC01CB019AA372
:1013200089A389A19AA19E8F8D8F8D8D9E8D019706
:10133000F1F79E8F8D8F8CA581508CA78CA588236B
:101340000CF081CF8FA598A90E94B71383E060E0CD
:101350000E9485100E94690F81E08EA72EA52DABFB
:1013600024C193E08DA5292F281B822F2FA538A9F2
:10137000B9010E9441130E94690F8AE890E00E941F
:10138000C50D80E090E0AAE7B4E4898F9A8FAB8F17
:10139000BC8F698D7A8D8B8D9C8D20E030E04AEF7B
:1013A00054E40E941F02DC01CB018D8B9E8BAF8B1E
:1013B000B88F6D897E898F89988D20E030E040E874
:1013C0005FE30E94790388232CF481E090E09C8BFA
:1013D0008B8B3FC06D897E898F89988D20E03FEF90
:1013E0004FE757E40E94190318164CF5698D7A8D62
:1013F0008B8D9C8D20E030E040E251E40E941F0282
:10140000DC01CB01BC01CD010E944900DC01CB0114
:101410009C8B8B8B0FC088EC90E09A8B898B898991
:101420009A890197F1F79A8B898B8B899C8901970F
:101430009C8B8B8B8B899C89009769F714C06D8975
:101440007E898F89988D0E944900DC01CB019C8B9D
:101450008B8B8B899C89988B8F878F859889019737
:10146000F1F7988B8F878BA99CA90E947E088DA588
:101470008F5F8DA78DA5843008F4ABCE8FA598A97A
:101480000E94B7130E94690F85E990E00E94C50D84
:101490001BA614C08BA5282F30E089A99AA9FC01AE
:1014A000E20FF31F8081882F90E0A0E0B0E0BC0144
:1014B000CD010E94DA0E8BA58F5F8BA78BA58430A0
:1014C00048F380E090E8ABE3B5E48B879C87AD8779
:1014D000BE876B857C858D859E8520E030E04AEF58
:1014E00054E40E941F02DC01CB018F839887A987F7
:1014F000BA876F81788589859A8520E030E040E859
:101500005FE30E94790388232CF481E090E09E83BE
:101510008D833FC06F81788589859A8520E03FEF74
:101520004FE757E40E94190318164CF56B857C852C
:101530008D859E8520E030E040E251E40E941F024C
:10154000DC01CB01BC01CD010E944900DC01CB01D3
:101550009E838D830FC088EC90E09C838B838B816E
:101560009C810197F1F79C838B838D819E810197EC
:101570009E838D838D819E81009769F714C06F8152
:10158000788589859A850E944900DC01CB019E837C
:101590008D838D819E819A83898389819A81019728
:1015A000F1F79A8389838EA58DAB8DA9E5960FB649
:1015B000F894DEBF0FBECDBFCF91DF910895AF92FB
:1015C000BF92CF92DF92EF92FF920F931F93DF9320
:1015D000CF93CDB7DEB763970FB6F894DEBF0FBEDB
:1015E000CDBF8091010190910201CC01A0E0B0E05B
:1015F00000D000D0EDB7FEB7319680839183A283EF
:10160000B38360E070E080E090E02FEF30E040E0F6
:1016100050E0EE24FF2487010F2EF8E8AF2EF3E10F
:10162000BF2EF0E0CF2EF0E0DF2EF02D0E94A312AF
:101630000F900F900F900F90DC01CB01998B888B4E
:10164000888999892AE030E0B9010E943814CB01D9
:10165000998B888B8091030190910401CC01A0E0CB
:10166000B0E000D000D0EDB7FEB731968083918313
:10167000A283B38360E070E080E090E02CED30E086
:1016800040E050E0EE24FF2487016894E3F8AA24A8
:10169000BB2465010E94A3120F900F900F900F9032
:1016A000DC01CB018F870E94690F8EE990E00E94D8
:1016B000C50D88899989CC01A0E0B0E0BC01CD01BD
:1016C0000E94DA0E85EA90E00E94C50D81E060E09C
:1016D0000E946F0E89EA90E00E94C50D8F85882FC9
:1016E00090E0A0E0B0E0BC01CD010E94DA0E888954
:1016F00099898B31910568F080E06FE00E946F0E50
:101700008DE40E94270D80E062E041E00E94730FAB
:101710000CC080E06FE00E946F0E80E20E94270DF7
:1017200080E062E040E00E94730F8F85282F30E058
:101730003B8B2A8B8A899B898430910509F449C0A7
:101740002A893B8925303105E4F48A899B898130D7
:10175000910509F44DC02A893B892230310534F4C2
:101760008A899B89009709F448C04BC02A893B8924
:1017700022303105C1F18A899B898330910571F14D
:1017800040C02A893B8926303105C9F08A899B8966
:1017900086309105CCF02A893B892730310551F0FC
:1017A0008A899B898830910561F581E06FEF0E94FD
:1017B000851027C081E06EEF0E94851022C081E075
:1017C0006CEF0E9485101DC081E068EF0E948510BB
:1017D00018C081E060EF0E94851013C081E060EEC8
:1017E0000E9485100EC081E060EC0E94851009C047
:1017F00081E060E80E94851004C081E060E00E9402
:10180000851080E063E040E00E94730F80E090E08C
:10181000AAE7B4E48B879C87AD87BE876B857C8500
:101820008D859E8520E030E04AEF54E40E941F023F
:10183000DC01CB018F839887A987BA876F81788570
:1018400089859A8520E030E040E85FE30E947903D3
:1018500088232CF481E090E09E838D833FC06F81CC
:10186000788589859A8520E03FEF4FE757E40E940D
:10187000190318164CF56B857C858D859E8520E0B7
:1018800030E040E251E40E941F02DC01CB01BC01C8
:10189000CD010E944900DC01CB019E838D830FC0E6
:1018A00088EC90E09C838B838B819C810197F1F77E
:1018B0009C838B838D819E8101979E838D838D81F7
:1018C0009E81009769F714C06F81788589859A8514
:1018D0000E944900DC01CB019E838D838D819E8116
:1018E0009A83898389819A810197F1F79A83898301
:1018F00063960FB6F894DEBF0FBECDBFCF91DF91D8
:101900001F910F91FF90EF90DF90CF90BF90AF901D
:101910000895DF93CF93CDB7DEB72F970FB6F89426
:10192000DEBF0FBECDBF8F8780E067E040E00E9442
:10193000730F80E066E040E00E94730F82E06F85E5
:101940000E94851080E065E041E00E94730F80E016
:1019500090E0A0E0B0E48B879C87AD87BE876B8565
:101960007C858D859E8520E030E04AEF54E40E941E
:101970001F02DC01CB018F839887A987BA876F810B
:10198000788589859A8520E030E040E85FE30E9411
:10199000790388232CF481E090E09E838D833FC0FF
:1019A0006F81788589859A8520E03FEF4FE757E47E
:1019B0000E94190318164CF56B857C858D859E85D4
:1019C00020E030E040E251E40E941F02DC01CB0144
:1019D000BC01CD010E944900DC01CB019E838D83B7
:1019E0000FC088EC90E09C838B838B819C81019756
:1019F000F1F79C838B838D819E8101979E838D83DC
:101A00008D819E81009769F714C06F8178858985E3
:101A10009A850E944900DC01CB019E838D838D81D4
:101A20009E819A83898389819A810197F1F79A83AC
:101A3000898380E065E040E00E94730F2F960FB627
:101A4000F894DEBF0FBECDBFCF91DF910895DF9335
:101A5000CF93CDB7DEB72F970FB6F894DEBF0FBE8A
:101A6000CDBF8F8780E067E041E00E94730F80E088
:101A700066E040E00E94730F82E06F850E9485104F
:101A800080E065E041E00E94730F80E090E0A0E01C
:101A9000B0E48B879C87AD87BE876B857C858D8501
:101AA0009E8520E030E04AEF54E40E941F02DC01F2
:101AB000CB018F839887A987BA876F8178858985BD
:101AC0009A8520E030E040E85FE30E9479038823B4
:101AD0002CF481E090E09E838D833FC06F817885F8
:101AE00089859A8520E03FEF4FE757E40E9419036C
:101AF00018164CF56B857C858D859E8520E030E041
:101B000040E251E40E941F02DC01CB01BC01CD0187
:101B10000E944900DC01CB019E838D830FC088ECBD
:101B200090E09C838B838B819C810197F1F79C8350
:101B30008B838D819E8101979E838D838D819E8174
:101B4000009769F714C06F81788589859A850E940E
:101B50004900DC01CB019E838D838D819E819A8318
:101B6000898389819A810197F1F79A83898380E03B
:101B700065E040E00E94730F2F960FB6F894DEBF29
:101B80000FBECDBFCF91DF910895DF93CF9300D0EB
:101B9000CDB7DEB79A8389830AC0E981FA81808153
:101BA0000E94270D89819A8101969A838983E98110
:101BB000FA818081882389F70F900F90CF91DF9170
:101BC0000895DF93CF93CDB7DEB72E970FB6F89475
:101BD000DEBF0FBECDBF80E090E0A0E2B2E48B8715
:101BE0009C87AD87BE876B857C858D859E8520E033
:101BF00030E04AEF54E40E941F02DC01CB018F83E6
:101C00009887A987BA876F81788589859A8520E02A
:101C100030E040E85FE30E94790388232CF481E000
:101C200090E09E838D833FC06F81788589859A85FA
:101C300020E03FEF4FE757E40E94190318164CF5D8
:101C40006B857C858D859E8520E030E040E251E407
:101C50000E941F02DC01CB01BC01CD010E944900A2
:101C6000DC01CB019E838D830FC088EC90E09C83C8
:101C70008B838B819C810197F1F79C838B838D8172
:101C80009E8101979E838D838D819E81009769F748
:101C900014C06F81788589859A850E944900DC018E
:101CA000CB019E838D838D819E819A8389838981D7
:101CB0009A810197F1F79A83898388E30E94890CBE
:101CC0008CE00E94890C81E00E94890C2E960FB650
:101CD000F894DEBF0FBECDBFCF91DF910895DF93A3
:101CE000CF9300D00F92CDB7DEB78A836B838A8102
:101CF000882319F48B81898306C08A81813019F485
:101D00008B81805C898389818068898389810E9435
:101D1000890C0F900F900F90CF91DF910895DF9372
:101D2000CF9300D000D00F92CDB7DEB79C838B83CA
:101D30006D838D81882F90E0880F991F880F991FE0
:101D4000880F991F898389818064898389810E9492
:101D5000890C1A820EC08A81282F30E08B819C81E9
:101D6000FC01E20FF31F80810E94270D8A818F5FA3
:101D70008A838A81883078F30F900F900F900F90AC
:101D80000F90CF91DF910895DF93CF9300D00F9202
:101D9000CDB7DEB789836A834B838A816B810E94CA
:101DA0006F0E89810E94270D0F900F900F90CF9199
:101DB000DF910895DF93CF93CDB7DEB72B970FB6A2
:101DC000F894DEBF0FBECDBF688779878A879B876F
:101DD00081E08F831E821BC08E818F5F8E838E81F8
:101DE000282F30E040E050E06AE070E080E090E0D2
:101DF0000E944B129B01AC0188859985AA85BB8501
:101E0000BC01CD010E944C14DA01C9018F838F817E
:101E1000882311F78E81882F90E00197AA2797FDDC
:101E2000A095BA2F89839A83AB83BC8342C0298152
:101E30003A814B815C816AE070E080E090E00E9432
:101E40004B129B01AC0188859985AA85BB85BC0195
:101E5000CD010E944C14DA01C9018D8329813A8198
:101E60004B815C816AE070E080E090E00E944B1260
:101E70009B01AC0188859985AA85BB85BC01CD01F4
:101E80000E944C14DC01CB0188879987AA87BB8705
:101E90008D81805D8D838D810E94270D89819A813E
:101EA000AB81BC810197A109B10989839A83AB8376
:101EB000BC8389819A81AB81BC81BB230CF0B7CFF5
:101EC0002B960FB6F894DEBF0FBECDBFCF91DF913A
:101ED0000895DF93CF93CDB7DEB781E00E94890CE0
:101EE000CF91DF910895DF93CF93CDB7DEB72897D9
:101EF0000FB6F894DEBF0FBECDBF8A836B834C83D1
:101F000019828B81883008F0F4C08C81882309F015
:101F100077C08A81282F30E038872F838F8198857A
:101F20008130910559F12F813885223031052CF40B
:101F30008F819885009769F060C02F8138852230A5
:101F4000310589F18F8198858330910509F440C06E
:101F500054C0ABE3B0E0EBE3F0E08081482F8B812D
:101F6000282F30E081E090E0022E02C0880F991FF8
:101F70000A94E2F7809584238C93BDC0A8E3B0E077
:101F8000E8E3F0E08081482F8B81282F30E081E06A
:101F900090E0022E02C0880F991F0A94E2F7809504
:101FA00084238C93A8C0A5E3B0E0E5E3F0E0808152
:101FB000482F8B81282F30E081E090E0022E02C074
:101FC000880F991F0A94E2F7809584238C9393C01D
:101FD000A2E3B0E0E2E3F0E08081482F8B81282F7C
:101FE00030E081E090E0022E02C0880F991F0A9431
:101FF000E2F7809584238C937EC081E089837BC047
:102000008C81813009F072C08A81282F30E03E83B4
:102010002D838D819E818130910549F12D813E81F5
:10202000223031052CF48D819E81009761F05BC0D8
:102030002D813E812230310571F18D819E81833069
:102040009105E9F150C0ABE3B0E0EBE3F0E0808153
:10205000482F8B81282F30E081E090E0022E02C0D3
:10206000880F991F0A94E2F7842B8C9344C0A8E34D
:10207000B0E0E8E3F0E08081482F8B81282F30E04A
:1020800081E090E0022E02C0880F991F0A94E2F7C7
:10209000842B8C9330C0A5E3B0E0E5E3F0E08081D1
:1020A000482F8B81282F30E081E090E0022E02C083
:1020B000880F991F0A94E2F7842B8C931CC0A2E32B
:1020C000B0E0E2E3F0E08081482F8B81282F30E000
:1020D00081E090E0022E02C0880F991F0A94E2F777
:1020E000842B8C9308C081E0898305C081E08983BB
:1020F00002C081E08983898128960FB6F894DEBFFB
:102100000FBECDBFCF91DF910895DF93CF9300D065
:1021100000D00F92CDB7DEB78A836B8319828A8194
:10212000282F30E03D832C838C819D818130910567
:10213000D1F02C813D81223031052CF48C819D81A0
:10214000009761F01FC02C813D812230310581F064
:102150008C819D818330910581F014C0EBE3F0E028
:102160008B81808311C0E8E3F0E08B8180830CC019
:10217000E5E3F0E08B81808307C0E2E3F0E08B8150
:10218000808302C081E0898389810F900F900F9036
:102190000F900F90CF91DF910895DF93CF93CDB73C
:1021A000DEB727970FB6F894DEBF0FBECDBF8A8388
:1021B0006B835D834C8319828C819D81009709F428
:1021C00078C08B81883008F074C08A81282F30E075
:1021D0003F832E834E815F814130510559F18E81BD
:1021E0009F818230910534F42E813F812115310584
:1021F00069F05CC04E815F814230510579F18E817A
:102200009F818330910509F43DC050C0E9E3F0E0BF
:102210008081282F30E08B81882F90E0A90102C0B7
:10222000559547958A95E2F7CA018170EC81FD8149
:10223000808341C0E6E3F0E08081282F30E08B818D
:10224000882F90E0A90102C0559547958A95E2F73D
:10225000CA018170EC81FD8180832DC0E3E3F0E051
:102260008081282F30E08B81882F90E0A90102C067
:10227000559547958A95E2F7CA018170EC81FD81F9
:10228000808319C0E0E3F0E08081282F30E08B816B
:10229000882F90E0A90102C0559547958A95E2F7ED
:1022A000CA018170EC81FD81808305C081E0898352
:1022B00002C081E08983898127960FB6F894DEBF3A
:1022C0000FBECDBFCF91DF910895DF93CF9300D0A4
:1022D00000D000D0CDB7DEB78A837C836B831982B0
:1022E0008A81282F30E03E832D838D819E8181302D
:1022F0009105E1F02D813E81223031052CF48D8154
:102300009E81009761F027C02D813E8122303105EA
:10231000A1F08D819E8183309105B1F01CC0E9E36D
:10232000F0E08081EB81FC81808317C0E6E3F0E080
:102330008081EB81FC81808310C0E3E3F0E0808149
:10234000EB81FC81808309C0E0E3F0E08081EB81D8
:10235000FC81808302C081E08983898126960FB643
:10236000F894DEBF0FBECDBFCF91DF910895DF930C
:10237000CF93CDB7DEB7AFE5B0E0EFE5F0E0808119
:1023800080688C93CF91DF910895DF93CF93CDB781
:10239000DEB7AFE5B0E0EFE5F0E080818F778C93BA
:1023A000CF91DF910895DF93CF9300D000D00F92AB
:1023B000CDB7DEB78FEF8B831A825EC08A81882FFC
:1023C00090E0FC01E454FF4F908183E0692F40E0EE
:1023D0000E94730F19823DC08981882F90E0FC0113
:1023E000E854FF4F90819E012C5F3F4F83E0692F9F
:1023F000A9010E94CD108C81882341F58981482F45
:1024000050E08A81282F30E0CA01880F991F880F79
:10241000991F820F931FFC01E054FF4F80818B8333
:102420000FC08981882F90E0FC01E854FF4F908114
:102430009E012C5F3F4F83E0692FA9010E94CD10C0
:102440008C81882371F38B818D831CC089818F5F80
:1024500089838981843008F4BFCF8A81882F90E0F6
:10246000FC01E454FF4F908183E0692F41E00E941A
:10247000730F8A818F5F8A838A81843008F49ECFAC
:102480008B818D838D810F900F900F900F900F9007
:10249000CF91DF910895DF93CF93CDB7DEB76097EB
:1024A0000FB6F894DEBF0FBECDBF69877A878B87E2
:1024B0009C872D873E874F87588B81E090E0A0E076
:1024C000B0E08D839E83AF83B88719821A821B8206
:1024D0001C821DC08D819E81AF81B88529853A857A
:1024E0004B855C85BC01CD010E941914DC01CB0138
:1024F0008D839E83AF83B88789819A81AB81BC81AC
:102500000196A11DB11D89839A83AB83BC832D8560
:102510003E854F85588989819A81AB81BC8182171C
:102520009307A407B507B0F28D819E81AF81B8856E
:10253000BC01CD0160960FB6F894DEBF0FBECDBFD3
:10254000CF91DF910895AF92BF92CF92DF92EF9239
:10255000FF920F931F93DF93CF93CDB7DEB76497AE
:102560000FB6F894DEBF0FBECDBF6D837E838F8321
:10257000988729873A874B875C87ED86FE860F8789
:10258000188BA98ABA8ACB8ADC8A29893A894B892D
:102590005C898D859E85AF85B88979018A01E81AA5
:1025A000F90A0A0B1B0B29A13AA14BA15CA18D8151
:1025B0009E81AF81B885281B390B4A0B5B0BC80184
:1025C000B7010E9419147B018C0129853A854B853E
:1025D0005C858D819E81AF81B885281B390B4A0BA4
:1025E0005B0BC801B7010E946E14DA01C9019C019E
:1025F000AD018D859E85AF85B889820F931FA41F7D
:10260000B51F89839A83AB83BC8389819A81AB810F
:10261000BC81BC01CD0164960FB6F894DEBF0FBE3D
:10262000CDBFCF91DF911F910F91FF90EF90DF9081
:10263000CF90BF90AF900895DF93CF93CDB7DEB723
:10264000EAE3F0E08CEF8083E7E3F0E08FEF808354
:10265000E4E3F0E08FEF8083E1E3F0E08FE080835C
:10266000EBE3F0E088E08083E8E3F0E01082E5E36C
:10267000F0E01082E2E3F0E08FEF8083CF91DF9112
:102680000895DF93CF9300D000D0CDB7DEB78A8313
:102690007C836B8319828A818A3068F5EB81FC81A7
:1026A0008081813089F4EB81FC8121818A81882FAE
:1026B00090E0FC01E053FF4F8081982F9095822F8E
:1026C000692F0E94851019C0EB81FC8180818823CD
:1026D00079F4EB81FC8121818A81882F90E0FC01D3
:1026E000E053FF4F9081822F692F0E94851005C013
:1026F00081E0898302C081E0898389810F900F90F6
:102700000F900F90CF91DF910895DF93CF9300D07A
:102710000F92CDB7DEB79B838A831982EA81FB8152
:102720008081813059F4EA81FB818281EA81FB81D9
:102730009381692F41E00E94730F12C0EA81FB81EF
:102740008081882359F4EA81FB818281EA81FB81BF
:102750009381692F40E00E94730F02C081E089835A
:1027600089810F900F900F90CF91DF910895DF93A3
:10277000CF9300D00F92CDB7DEB79B838A831982A7
:10278000EA81FB818081813059F4EA81FB81828179
:10279000EA81FB819381692F40E00E94730F12C090
:1027A000EA81FB818081882359F4EA81FB8182815F
:1027B000EA81FB819381692F41E00E94730F02C07F
:1027C00081E0898389810F900F900F90CF91DF91E5
:1027D0000895DF93CF93CDB7DEB729970FB6F8945E
:1027E000DEBF0FBECDBF0E941C130E94A3050E9436
:1027F000E10D0E94B7110E94B507CE0102960E941A
:102800004408CE0106960E947E088AED90E09E0163
:102810002E5F3F4FAE014A5F5F4FB9010E94BC0877
:10282000898389818823E9F78EED90E00E94C106B3
:10283000F8CF629FD001739FF001829FE00DF11DE0
:10284000649FE00DF11D929FF00D839FF00D749F2A
:10285000F00D659FF00D9927729FB00DE11DF91FD6
:10286000639FB00DE11DF91FBD01CF011124089533
:10287000AA1BBB1B51E107C0AA1FBB1FA617B707A6
:1028800010F0A61BB70B881F991F5A95A9F78095C2
:102890009095BC01CD010895A1E21A2EAA1BBB1B85
:1028A000FD010DC0AA1FBB1FEE1FFF1FA217B3071C
:1028B000E407F50720F0A21BB30BE40BF50B661F32
:1028C000771F881F991F1A9469F7609570958095F6
:1028D00090959B01AC01BD01CF01089597FB092E96
:1028E00005260ED057FD04D0D7DF0AD0001C38F4DF
:1028F00050954095309521953F4F4F4F5F4F08952C
:10290000F6F790958095709561957F4F8F4F9F4F0B
:1029100008952F923F924F925F926F927F928F9283
:102920009F92AF92BF92CF92DF92EF92FF920F935E
:102930001F93CF93DF93CDB7DEB7CA1BDB0B0FB668
:10294000F894DEBF0FBECDBF09942A883988488825
:102950005F846E847D848C849B84AA84B984C884BB
:10296000DF80EE80FD800C811B81AA81B981CE0FB2
:10297000D11D0FB6F894DEBF0FBECDBFED01089597
:04298000F894FFCFF9
:1029840057454C434F4D4500456E7465722049448C
:102994003A00456E7465722050617373776F726488
:1029A4003A00425945204259450054525920414762
:1029B40041494E210057656C636F6D652000546575
:1029C4006D703A2000202763004C4544533A2000A0
:1029D40000000000000000000405060703020100D7
:1029E4000001020304050607080965716C7264732B
:1029F4003F065B4F666D7D077F6F00010004010099
:102A040000000000000000000000000000000000C2
:102A1400000000000000000000000000000002DFD1
:102A24000A00000000000000000000000000000098
:102A34000000000000000000000000000000000092
:102A44000000000000000000000000000000000082
:102A54000000000000000000000000000000000072
:022A6400000070
:00000001FF
