:100000000C942A000C943C000C943C000C943C0092
:100010000C943C000C943C000C943C000C943C0070
:100020000C943C000C943C000C943C000C943C0060
:100030000C9428040C943C000C943C000C943C0060
:100040000C943C000C943C000C943C000C943C0040
:100050000C943C0011241FBECFE5D8E0DEBFCDBF1D
:1000600010E0A0E6B0E001C01D92A236B107E1F7B2
:100070000E944A040C944F040C940000DF93CF9329
:10008000CDB7DEB728970FB6F894DEBF0FBECDBF51
:100090008A836B834C8319828B81883008F0F4C08B
:1000A0008C81882309F077C08A81282F30E0388737
:1000B0002F838F8198858130910559F12F81388563
:1000C000223031052CF48F819885009769F060C04B
:1000D0002F8138852230310589F18F8198858330D1
:1000E000910509F440C054C0ABE3B0E0EBE3F0E0AD
:1000F0008081482F8B81282F30E081E090E0022E14
:1001000002C0880F991F0A94E2F7809584238C938C
:10011000BDC0A8E3B0E0E8E3F0E08081482F8B8128
:10012000282F30E081E090E0022E02C0880F991F56
:100130000A94E2F7809584238C93A8C0A5E3B0E0ED
:10014000E5E3F0E08081482F8B81282F30E081E0CB
:1001500090E0022E02C0880F991F0A94E2F7809562
:1001600084238C9393C0A2E3B0E0E2E3F0E08081CB
:10017000482F8B81282F30E081E090E0022E02C0D2
:10018000880F991F0A94E2F7809584238C937EC090
:1001900081E089837BC08C81813009F072C08A81C3
:1001A000282F30E03E832D838D819E818130910503
:1001B00049F12D813E81223031052CF48D819E81C3
:1001C000009761F05BC02D813E812230310571F1D5
:1001D0008D819E8183309105E9F150C0ABE3B0E0A1
:1001E000EBE3F0E08081482F8B81282F30E081E025
:1001F00090E0022E02C0880F991F0A94E2F7842B28
:100200008C9344C0A8E3B0E0E8E3F0E08081482F9D
:100210008B81282F30E081E090E0022E02C0880F11
:10022000991F0A94E2F7842B8C9330C0A5E3B0E0C9
:10023000E5E3F0E08081482F8B81282F30E081E0DA
:1002400090E0022E02C0880F991F0A94E2F7842BD7
:100250008C931CC0A2E3B0E0E2E3F0E08081482F81
:100260008B81282F30E081E090E0022E02C0880FC1
:10027000991F0A94E2F7842B8C9308C081E089834C
:1002800005C081E0898302C081E089838981289645
:100290000FB6F894DEBF0FBECDBFCF91DF910895AA
:1002A000DF93CF9300D000D00F92CDB7DEB78A8313
:1002B0006B8319828A81282F30E03D832C838C81C7
:1002C0009D8181309105D1F02C813D812230310515
:1002D0002CF48C819D81009761F01FC02C813D81A1
:1002E0002230310581F08C819D818330910581F030
:1002F00014C0EBE3F0E08B81808311C0E8E3F0E011
:100300008B8180830CC0E5E3F0E08B81808307C0A4
:10031000E2E3F0E08B81808302C081E08983898100
:100320000F900F900F900F900F90CF91DF91089545
:10033000DF93CF93CDB7DEB727970FB6F894DEBF24
:100340000FBECDBF8A836B835D834C8319828C8102
:100350009D81009709F478C08B81883008F074C0C3
:100360008A81282F30E03F832E834E815F81413088
:10037000510559F18E819F818230910534F42E818F
:100380003F812115310569F05CC04E815F814230AB
:10039000510579F18E819F818330910509F43DC02B
:1003A00050C0E9E3F0E08081282F30E08B81882F76
:1003B00090E0A90102C0559547958A95E2F7CA01D8
:1003C0008170EC81FD81808341C0E6E3F0E08081B3
:1003D000282F30E08B81882F90E0A90102C055952D
:1003E00047958A95E2F7CA018170EC81FD8180838F
:1003F0002DC0E3E3F0E08081282F30E08B81882F4F
:1004000090E0A90102C0559547958A95E2F7CA0187
:100410008170EC81FD81808319C0E0E3F0E0808190
:10042000282F30E08B81882F90E0A90102C05595DC
:1004300047958A95E2F7CA018170EC81FD8180833E
:1004400005C081E0898302C081E089838981279684
:100450000FB6F894DEBF0FBECDBFCF91DF910895E8
:10046000DF93CF9300D000D000D0CDB7DEB78A8322
:100470007C836B8319828A81282F30E03E832D8311
:100480008D819E8181309105E1F02D813E81223068
:1004900031052CF48D819E81009761F027C02D815C
:1004A0003E8122303105A1F08D819E8183309105FE
:1004B000B1F01CC0E9E3F0E08081EB81FC81808336
:1004C00017C0E6E3F0E08081EB81FC81808310C0FF
:1004D000E3E3F0E08081EB81FC81808309C0E0E30D
:1004E000F0E08081EB81FC81808302C081E0898320
:1004F000898126960FB6F894DEBF0FBECDBFCF918F
:10050000DF910895DF93CF9300D000D00F92CDB745
:10051000DEB78A836B8319828B81883008F072C0C2
:100520008A81282F30E03D832C838C819D8181300E
:10053000910549F12C813D81223031052CF48C81CB
:100540009D81009761F05BC02C813D812230310597
:1005500071F18C819D8183309105E9F150C0ABE34D
:10056000B0E0EBE3F0E08081482F8B81282F30E072
:1005700081E090E0022E02C0880F991F0A94E2F7F2
:1005800084278C9341C0A8E3B0E0E8E3F0E08081E9
:10059000482F8B81282F30E081E090E0022E02C0AE
:1005A000880F991F0A94E2F784278C932DC0A5E346
:1005B000B0E0E5E3F0E08081482F8B81282F30E028
:1005C00081E090E0022E02C0880F991F0A94E2F7A2
:1005D00084278C9319C0A2E3B0E0E2E3F0E08081CD
:1005E000482F8B81282F30E081E090E0022E02C05E
:1005F000880F991F0A94E2F784278C9305C081E045
:10060000898302C081E0898389810F900F900F90C8
:100610000F900F90CF91DF910895DF93CF93CDB7D7
:10062000DEB7EAE3F0E08FEF8083E7E3F0E01082EB
:10063000E4E3F0E01082E1E3F0E082E08083EBE3CA
:10064000F0E01082E8E3F0E01082E5E3F0E01082F1
:10065000E2E3F0E01082CF91DF910895DF93CF9332
:10066000CDB7DEB7ADE2B0E0EDE2F0E080818061D1
:100670008C93ADE2B0E0EDE2F0E0808180688C9395
:10068000ADE2B0E0EDE2F0E0808180628C93ADE21B
:10069000B0E0EDE2F0E08081877F8C93ADE2B0E0E6
:1006A000EDE2F0E080818B7F8C93AEE2B0E0EEE291
:1006B000F0E0808181608C93ADE2B0E0EDE2F0E0AB
:1006C00080818D7F8C93ADE2B0E0EDE2F0E080813F
:1006D00081608C93ADE2B0E0EDE2F0E08081806477
:1006E0008C93CF91DF910895DF93CF93CDB7DEB791
:1006F000ADE2B0E0EDE2F0E080818F7E8C93ADE280
:10070000B0E0EDE2F0E0808180688C93ADE2B0E093
:10071000EDE2F0E0808180628C93ADE2B0E0EDE24A
:10072000F0E08081877F8C93ADE2B0E0EDE2F0E015
:1007300080818B7F8C93ADE2B0E0EDE2F0E08081D0
:1007400080648C93CF91DF910895DF93CF93CDB7E1
:10075000DEB728970FB6F894DEBF0FBECDBF8E83ED
:1007600078876F831D828F8198850097D9F11982D0
:100770001A821B821C82EFE2F0E08E8180830BC024
:1007800089819A81AB81BC810196A11DB11D8983AC
:100790009A83AB83BC83EEE2F0E08081882364F02F
:1007A00089819A81AB81BC81803221EA920727E05E
:1007B000A20720E0B20721F789819A81AB81BC8131
:1007C000803221EA920727E0A20720E0B20719F45D
:1007D00081E08D8309C0EFE2F0E08081EF81F88550
:1007E000808302C082E08D838D8128960FB6F894B5
:1007F000DEBF0FBECDBFCF91DF910895DF93CF93C2
:1008000000D000D0CDB7DEB78A837C836B8319829A
:100810008B819C81009791F0ADE2B0E0EDE2F0E0D9
:10082000808180688C93EFE2F0E08A8180838B8105
:100830009C81909361008093600002C082E0898374
:1008400089810F900F900F900F90CF91DF910895B5
:100850001F920F920FB60F9211248F93AF93BF93F5
:10086000EF93FF93DF93CF93CDB7DEB7E0916000B6
:10087000F0916100AFE2B0E08C918083CF91DF9185
:10088000FF91EF91BF91AF918F910F900FBE0F909D
:100890001F901895DF93CF93CDB7DEB7FFCFF894B5
:0208A000FFCF88
:00000001FF
