:100000000C942A000C9447000C9447000C94470071
:100010000C9450150C9483150C94B6150C94E9159A
:100020000C941C160C944F160C9482160C94B51656
:100030000C9447000C9447000C9447000C94470024
:100040000C9447000C9447000C9447000C94470014
:100050000C94470011241FBECFE5D8E0DEBFCDBF12
:1000600010E0A0E6B0E0ECEEF0E302C005900D92E7
:10007000A838B107D9F710E0A8E8B0E001C01D9298
:10008000A33AB107E1F70E94E8160C9474180C9497
:100090000000EF92FF920F931F937B018C0120E0F1
:1000A00030E040E05FE40E94490388238CF0C801FF
:1000B000B70120E030E040E05FE40E94C1010E940F
:1000C000A9039B01AC01205030404040504806C07D
:1000D000C801B7010E94A9039B01AC01B901CA0183
:1000E0001F910F91FF90EF900895A0E0B0E0EBE733
:1000F000F0E00C943D18DC012B01FA019C91923048
:1001000008F439C1EB018881823008F433C194309E
:1001100069F4843009F02FC111969C91119789815F
:10012000981709F428C1AAE6B0E025C1843009F483
:1001300021C18230A9F4923009F01DC19A01AD01AC
:1001400088E0EA010990AE01E90109929E0181501F
:10015000C1F7E201898111969C918923818308C1AD
:10016000923009F407C112962D903C901397EB0141
:100170008A819B811496AD90BD90CD90DC901797AD
:10018000EC80FD800E811F819101281B390BB90184
:1001900037FF04C066277727621B730B6032710537
:1001A0000CF061C0121613066CF537014801062EDB
:1001B00004C096948794779467940A94D2F721E0C8
:1001C00030E040E050E004C0220F331F441F551FB1
:1001D0006A95D2F721503040404050402E213F21B7
:1001E00040235123211531054105510521F021E01E
:1001F00030E040E050E079018A01E628F72808293C
:1002000019293CC0232BD1F1260E371E350146019A
:10021000062E04C096948794779467940A94D2F734
:1002200021E030E040E050E004C0220F331F441FC3
:10023000551F6A95D2F721503040404050402A2146
:100240003B214C215D21211531054105510521F04E
:1002500021E030E040E050E059016A01A628B728CB
:10026000C828D9280BC0821593052CF01C01AA249C
:10027000BB24650103C0EE24FF24870111969C91E5
:10028000D20111968C91981709F445C0992339F041
:10029000A80197012A193B094C095D0906C0A6016E
:1002A00095012E193F09400B510B57FD08C01182D3
:1002B0003382228224833583468357831DC081E0A5
:1002C00081833382228288279927DC01821B930B4A
:1002D000A40BB50B84839583A683B7830DC0220F2F
:1002E000331F441F551F24833583468357838281E0
:1002F000938101979383828324813581468157813D
:10030000DA01C9010197A109B1098F5F9F4FAF4F72
:10031000BF4328F30BC0918333822282EA0CFB1C7B
:100320000C1D1D1DE482F5820683178383E0808304
:10033000248135814681578157FF1AC0C901AA27F8
:1003400097FDA095BA2F81709070A070B0705695EF
:10035000479537952795822B932BA42BB52B848318
:100360009583A683B7838281938101969383828349
:10037000DF0101C0D201CD01CDB7DEB7E2E10C94BF
:100380005918A0E2B0E0E7ECF1E00C944918698359
:100390007A838B839C832D833E834F835887E9E048
:1003A000EE2EF12CEC0EFD1ECE010196B7010E943F
:1003B000D2048E010F5E1F4FCE010596B8010E9438
:1003C000D2048A8991E089278A8BC701B801AE01DE
:1003D000475E5F4F0E9475000E94FD03A096E6E015
:1003E0000C946518A0E2B0E0E8EFF1E00C94491835
:1003F00069837A838B839C832D833E834F835887C5
:10040000F9E0EF2EF12CEC0EFD1ECE010196B701A6
:100410000E94D2048E010F5E1F4FCE010596B801D7
:100420000E94D204C701B801AE01475E5F4F0E942F
:1004300075000E94FD03A096E6E00C946518A0E20A
:10044000B0E0E5E2F2E00C943D1869837A838B8397
:100450009C832D833E834F835887CE010196BE0136
:10046000675F7F4F0E94D204CE010596BE016F5E8A
:100470007F4F0E94D2049985923088F0898982301A
:10048000C8F0943019F4823051F404C0843029F457
:10049000923081F48AE690E0C6C0923049F420E0C0
:1004A0009A858A89981321E02A87CE010996BBC0D4
:1004B000823049F420E09A858A89981321E02A8BBA
:1004C000CE014196B0C02D843E844F8458886D88FB
:1004D0007E888F88988CEE24FF248701AA24BB2471
:1004E000650140E050E060E070E0E0E0F0E0C10174
:1004F00081709070892BE9F0E60CF71C081D191D1E
:100500009A01AB012A0D3B1D4C1D5D1D80E090E062
:10051000A0E0B0E0E614F7040805190520F481E036
:1005200090E0A0E0B0E0BA01A901480F591F6A1F8E
:100530007B1FAA0CBB1CCC1CDD1C97FE08C081E0F5
:1005400090E0A0E0B0E0A82AB92ACA2ADB2A3196B6
:10055000E032F10549F0660C771C881C991C569412
:10056000479437942794C3CFFA85EA892B893C892D
:100570008B859C85280F391F2E5F3F4F17C0CA01FE
:1005800081709070892B61F016950795F794E79428
:1005900080E090E0A0E0B0E8E82AF92A0A2B1B2BC3
:1005A00076956795579547952F5F3F4F77FDE7CF36
:1005B0000CC0440F551F661F771F17FD4160EE0CDE
:1005C000FF1C001F111F21503040403090E05907A0
:1005D00090E0690790E4790760F32B8F3C8FDB0193
:1005E000CA018F779070A070B07080349105A1051A
:1005F000B10561F447FD0AC0E114F10401051105DC
:1006000029F0405C5F4F6F4F7F4F40781A8EFE1786
:1006100011F081E08A8F4D8F5E8F6F8F78A383E01A
:10062000898FCE0149960E94FD03A096E2E10C94C9
:100630005918A8E1B0E0EFE1F3E00C9449186983A0
:100640007A838B839C832D833E834F83588789E0F5
:10065000E82EF12CEC0EFD1ECE010196B7010E9492
:10066000D2048E010F5E1F4FCE010596B8010E9485
:10067000D2048985823040F08989823028F0C70110
:10068000B8010E944A0501C08FEF6896E6E00C941D
:100690006518A8E1B0E0EFE4F3E00C944918698331
:1006A0007A838B839C832D833E834F83588789E095
:1006B000E82EF12CEC0EFD1ECE010196B7010E9432
:1006C000D2048E010F5E1F4FCE010596B8010E9425
:1006D000D2048985823040F08989823028F0C701B0
:1006E000B8010E944A0501C08FEF6896E6E00C94BD
:1006F0006518A8E1B0E0EFE7F3E00C9449186983CE
:100700007A838B839C832D833E834F83588789E034
:10071000E82EF12CEC0EFD1ECE010196B7010E94D1
:10072000D2048E010F5E1F4FCE010596B8010E94C4
:10073000D2048985823040F08989823028F0C7014F
:10074000B8010E944A0501C081E06896E6E00C9479
:100750006518ACE0B0E0EFEAF3E00C944D18698363
:100760007A838B839C83CE010196BE016B5F7F4FA2
:100770000E94D2048D81823061F1823050F1843048
:1007800021F48E81882351F12EC02F81388537FDC9
:1007900020C06E812F3131051CF06623F9F023C093
:1007A0008EE190E0821B930B29853A854B855C8511
:1007B00004C056954795379527958A95D2F76623B5
:1007C000B1F050954095309521953F4F4F4F5F4F79
:1007D0000EC020E030E040E050E009C02FEF3FEFD6
:1007E0004FEF5FE704C020E030E040E050E8B9019F
:1007F000CA012C96E2E00C946918DF92EF92FF9206
:100800000F931F93FC01E480F58006811781D1804E
:100810008081823048F480E090E0A0E1B0E0E82AF6
:10082000F92A0A2B1B2BA5C0843009F49FC0823003
:1008300021F4EE24FF24870105C0E114F104010531
:10084000110519F4E0E0F0E096C0628173819FEF3A
:10085000623879070CF05BC022E83FEF261B370BAC
:100860002A3131052CF020E030E040E050E02AC091
:10087000B801A701022E04C0769567955795479554
:100880000A94D2F781E090E0A0E0B0E004C0880FC5
:10089000991FAA1FBB1F2A95D2F70197A109B10979
:1008A0008E219F21A023B1230097A105B10521F03E
:1008B00081E090E0A0E0B0E09A01AB01282B392B59
:1008C0004A2B5B2BDA01C9018F779070A070B07052
:1008D00080349105A105B10539F427FF09C0205CDA
:1008E0003F4F4F4F5F4F04C0215C3F4F4F4F5F4F13
:1008F000E0E0F0E02030A0E03A07A0E04A07A0E402
:100900005A0710F0E1E0F0E079018A0127C0603871
:10091000710564F5FB01E158FF4FD801C7018F77DE
:100920009070A070B07080349105A105B10539F4C4
:10093000E7FE0DC080E490E0A0E0B0E004C08FE3EB
:1009400090E0A0E0B0E0E80EF91E0A1F1B1F17FFA1
:1009500005C016950795F794E794319687E01695AC
:100960000795F794E7948A95D1F705C0EE24FF2404
:100970008701EFEFF0E06E2F679566276795902F60
:100980009F77D794DD24D7948E2F8695492F462BB9
:10099000582F5D29B701CA011F910F91FF90EF9069
:1009A000DF900895FC01DB01408151812281622F9B
:1009B0006F7770E0221F2227221F9381892F880FD3
:1009C000822B282F30E0991F9927991F11969C930D
:1009D000119721153105A9F54115510561057105DD
:1009E00011F482E037C082E89FEF13969C938E93B8
:1009F00012979A01AB0167E0220F331F441F551F66
:100A00006A95D1F783E08C930DC0220F331F441FEA
:100A1000551F12968D919C911397019713969C9355
:100A20008E931297203080E0380780E0480780E4FA
:100A3000580758F314962D933D934D935C93179755
:100A400008952F3F310579F4411551056105710570
:100A500019F484E08C93089564FF03C081E08C93C3
:100A600012C01C9210C02F57304013963C932E9307
:100A7000129783E08C9387E0440F551F661F771F02
:100A80008A95D1F7706414964D935D936D937C9322
:100A9000179708951F93DC01FB019C91923008F495
:100AA00047C08081823008F443C0943051F41196DD
:100AB0001C91843099F58181682F70E0611B710968
:100AC0003FC0843021F0923031F48230B9F181811D
:100AD000882389F12DC011961C9111978230F1F075
:100AE00081811817D9F412962D913C911397828128
:100AF00093818217930794F028173907BCF0149656
:100B00008D919D910D90BC91A02D248135814681C0
:100B10005781281739074A075B0718F4112341F05A
:100B20000AC082179307A407B50740F4112319F0F0
:100B300061E070E005C06FEF7FEF02C060E070E041
:100B4000CB011F910895DF93CF93CDB7DEB72F97D9
:100B50000FB6F894DEBF0FBECDBF8F8780E067E091
:100B600040E00E948D0880E066E040E00E948D0831
:100B700082E06F850E949F0980E065E041E00E946D
:100B80008D0880E090E0A0E0B0E48B879C87AD8783
:100B9000BE876B857C858D859E8520E030E04AEFA1
:100BA00054E40E941F02DC01CB018F839887A98740
:100BB000BA876F81788589859A8520E030E040E8A2
:100BC0005FE30E94790388232CF481E090E09E8308
:100BD0008D833FC06F81788589859A8520E03FEFBE
:100BE0004FE757E40E94190318164CF56B857C8576
:100BF0008D859E8520E030E040E251E40E941F0296
:100C0000DC01CB01BC01CD010E944900DC01CB011C
:100C10009E838D830FC088EC90E09C838B838B81B7
:100C20009C810197F1F79C838B838D819E81019735
:100C30009E838D838D819E81009769F714C06F819B
:100C4000788589859A850E944900DC01CB019E83C5
:100C50008D838D819E819A83898389819A81019771
:100C6000F1F79A83898380E065E040E00E948D0877
:100C70002F960FB6F894DEBF0FBECDBFCF91DF9198
:100C80000895DF93CF93CDB7DEB72F970FB6F894C3
:100C9000DEBF0FBECDBF8F8780E067E041E00E94DE
:100CA0008D0880E066E040E00E948D0882E06F855C
:100CB0000E949F0980E065E041E00E948D0880E08D
:100CC00090E0A0E0B0E48B879C87AD87BE876B8502
:100CD0007C858D859E8520E030E04AEF54E40E94BB
:100CE0001F02DC01CB018F839887A987BA876F81A8
:100CF000788589859A8520E030E040E85FE30E94AE
:100D0000790388232CF481E090E09E838D833FC09B
:100D10006F81788589859A8520E03FEF4FE757E41A
:100D20000E94190318164CF56B857C858D859E8570
:100D300020E030E040E251E40E941F02DC01CB01E0
:100D4000BC01CD010E944900DC01CB019E838D8353
:100D50000FC088EC90E09C838B838B819C810197F2
:100D6000F1F79C838B838D819E8101979E838D8378
:100D70008D819E81009769F714C06F817885898580
:100D80009A850E944900DC01CB019E838D838D8171
:100D90009E819A83898389819A810197F1F79A8349
:100DA000898380E065E040E00E948D082F960FB6B1
:100DB000F894DEBF0FBECDBFCF91DF910895DF93D2
:100DC000CF9300D0CDB7DEB79A8389830AC0E9817B
:100DD000FA8180810E94410689819A8101969A83D5
:100DE0008983E981FA818081882389F70F900F90A8
:100DF000CF91DF910895DF93CF93CDB7DEB72E97D4
:100E00000FB6F894DEBF0FBECDBF80E090E0A0E249
:100E1000B2E48B879C87AD87BE876B857C858D858B
:100E20009E8520E030E04AEF54E40E941F02DC017E
:100E3000CB018F839887A987BA876F817885898549
:100E40009A8520E030E040E85FE30E947903882340
:100E50002CF481E090E09E838D833FC06F81788584
:100E600089859A8520E03FEF4FE757E40E941903F8
:100E700018164CF56B857C858D859E8520E030E0CD
:100E800040E251E40E941F02DC01CB01BC01CD0114
:100E90000E944900DC01CB019E838D830FC088EC4A
:100EA00090E09C838B838B819C810197F1F79C83DD
:100EB0008B838D819E8101979E838D838D819E8101
:100EC000009769F714C06F81788589859A850E949B
:100ED0004900DC01CB019E838D838D819E819A83A5
:100EE000898389819A810197F1F79A83898388E3BD
:100EF0000E94A3058CE00E94A30581E00E94A30547
:100F00002E960FB6F894DEBF0FBECDBFCF91DF9106
:100F10000895DF93CF9300D00F92CDB7DEB78A83C9
:100F20006B838A81882319F48B81898306C08A8127
:100F3000813019F48B81805C898389818068898301
:100F400089810E94A3050F900F900F90CF91DF91A0
:100F50000895DF93CF9300D000D00F92CDB7DEB7C6
:100F60009C838B836D838D81882F90E0880F991FE0
:100F7000880F991F880F991F8983898180648983CD
:100F800089810E94A3051A820EC08A81282F30E031
:100F90008B819C81FC01E20FF31F80810E9441063E
:100FA0008A818F5F8A838A81883078F30F900F90CF
:100FB0000F900F900F90CF91DF910895DF93CF9313
:100FC00000D00F92CDB7DEB789836A834B838A81C5
:100FD0006B810E94890789810E9441060F900F90C2
:100FE0000F90CF91DF910895DF93CF93CDB7DEB708
:100FF0002B970FB6F894DEBF0FBECDBF68877987F9
:101000008A879B8781E08F831E821BC08E818F5FC2
:101010008E838E81282F30E040E050E06AE070E05F
:1010200080E090E00E94ED0A9B01AC0188859985E3
:10103000AA85BB85BC01CD010E940018DA01C90157
:101040008F838F81882311F78E81882F90E00197FD
:10105000AA2797FDA095BA2F89839A83AB83BC8377
:1010600042C029813A814B815C816AE070E080E076
:1010700090E00E94ED0A9B01AC0188859985AA85C4
:10108000BB85BC01CD010E940018DA01C9018D8326
:1010900029813A814B815C816AE070E080E090E0D8
:1010A0000E94ED0A9B01AC0188859985AA85BB85C4
:1010B000BC01CD010E940018DC01CB018887998713
:1010C000AA87BB878D81805D8D838D810E944106BB
:1010D00089819A81AB81BC810197A109B10989837A
:1010E0009A83AB83BC8389819A81AB81BC81BB230A
:1010F0000CF0B7CF2B960FB6F894DEBF0FBECDBF66
:10110000CF91DF910895DF93CF93CDB7DEB781E024
:101110000E94A305CF91DF910895DF93CF93CDB7C0
:10112000DEB728970FB6F894DEBF0FBECDBF8A8317
:101130006B834C8319828B81883008F0F4C08C81DA
:10114000882309F077C08A81282F30E038872F83E1
:101150008F8198858130910559F12F813885223012
:1011600031052CF48F819885009769F060C02F813C
:1011700038852230310589F18F819885833091053A
:1011800009F440C054C0ABE3B0E0EBE3F0E0808191
:10119000482F8B81282F30E081E090E0022E02C0A2
:1011A000880F991F0A94E2F7809584238C93BDC021
:1011B000A8E3B0E0E8E3F0E08081482F8B81282F9E
:1011C00030E081E090E0022E02C0880F991F0A945F
:1011D000E2F7809584238C93A8C0A5E3B0E0E5E313
:1011E000F0E08081482F8B81282F30E081E090E073
:1011F000022E02C0880F991F0A94E2F7809584237B
:101200008C9393C0A2E3B0E0E2E3F0E08081482F4A
:101210008B81282F30E081E090E0022E02C0880F01
:10122000991F0A94E2F7809584238C937EC081E015
:1012300089837BC08C81813009F072C08A81282F1C
:1012400030E03E832D838D819E818130910549F16F
:101250002D813E81223031052CF48D819E810097B5
:1012600061F05BC02D813E812230310571F18D81AD
:101270009E8183309105E9F150C0ABE3B0E0EBE330
:10128000F0E08081482F8B81282F30E081E090E0D2
:10129000022E02C0880F991F0A94E2F7842B8C93C8
:1012A00044C0A8E3B0E0E8E3F0E08081482F8B8100
:1012B000282F30E081E090E0022E02C0880F991FB5
:1012C0000A94E2F7842B8C9330C0A5E3B0E0E5E309
:1012D000F0E08081482F8B81282F30E081E090E082
:1012E000022E02C0880F991F0A94E2F7842B8C9378
:1012F0001CC0A2E3B0E0E2E3F0E08081482F8B81E4
:10130000282F30E081E090E0022E02C0880F991F64
:101310000A94E2F7842B8C9308C081E0898305C08E
:1013200081E0898302C081E08983898128960FB694
:10133000F894DEBF0FBECDBFCF91DF910895DF934C
:10134000CF9300D000D00F92CDB7DEB78A836B83E6
:1013500019828A81282F30E03D832C838C819D81E6
:1013600081309105D1F02C813D81223031052CF462
:101370008C819D81009761F01FC02C813D812230BE
:10138000310581F08C819D818330910581F014C0FD
:10139000EBE3F0E08B81808311C0E8E3F0E08B8128
:1013A00080830CC0E5E3F0E08B81808307C0E2E33B
:1013B000F0E08B81808302C081E0898389810F9076
:1013C0000F900F900F900F90CF91DF910895DF93C2
:1013D000CF93CDB7DEB727970FB6F894DEBF0FBE19
:1013E000CDBF8A836B835D834C8319828C819D8101
:1013F000009709F478C08B81883008F074C08A8126
:10140000282F30E03F832E834E815F81413051058C
:1014100059F18E819F818230910534F42E813F8174
:101420002115310569F05CC04E815F814230510564
:1014300079F18E819F818330910509F43DC050C0C0
:10144000E9E3F0E08081282F30E08B81882F90E065
:10145000A90102C0559547958A95E2F7CA018170A6
:10146000EC81FD81808341C0E6E3F0E08081282F9C
:1014700030E08B81882F90E0A90102C055954795F7
:101480008A95E2F7CA018170EC81FD8180832DC0CD
:10149000E3E3F0E08081282F30E08B81882F90E01B
:1014A000A90102C0559547958A95E2F7CA01817056
:1014B000EC81FD81808319C0E0E3F0E08081282F7A
:1014C00030E08B81882F90E0A90102C055954795A7
:1014D0008A95E2F7CA018170EC81FD81808305C0A5
:1014E00081E0898302C081E08983898127960FB6D4
:1014F000F894DEBF0FBECDBFCF91DF910895DF938B
:10150000CF9300D000D000D0CDB7DEB78A837C83E4
:101510006B8319828A81282F30E03E832D838D8151
:101520009E8181309105E1F02D813E81223031058F
:101530002CF48D819E81009761F027C02D813E8122
:1015400022303105A1F08D819E8183309105B1F06B
:101550001CC0E9E3F0E08081EB81FC81808317C04F
:10156000E6E3F0E08081EB81FC81808310C0E3E35F
:10157000F0E08081EB81FC81808309C0E0E3F0E052
:101580008081EB81FC81808302C081E08983898135
:1015900026960FB6F894DEBF0FBECDBFCF91DF9178
:1015A0000895DF93CF93CDB7DEB7AFE5B0E0EFE5B9
:1015B000F0E0808180688C93CF91DF910895DF9374
:1015C000CF93CDB7DEB7AFE5B0E0EFE5F0E08081D7
:1015D0008F778C93CF91DF910895DF93CF93CDB721
:1015E000DEB760970FB6F894DEBF0FBECDBF698738
:1015F0007A878B879C872D873E874F87588B81E022
:1016000090E0A0E0B0E08D839E83AF83B88719821D
:101610001A821B821C821DC08D819E81AF81B8857C
:1016200029853A854B855C85BC01CD010E94CD178B
:10163000DC01CB018D839E83AF83B88789819A813A
:10164000AB81BC810196A11DB11D89839A83AB83B7
:10165000BC832D853E854F85588989819A81AB81D0
:10166000BC8182179307A407B507B0F28D819E81D4
:10167000AF81B885BC01CD0160960FB6F894DEBF8E
:101680000FBECDBFCF91DF910895AF92BF92CF92A1
:10169000DF92EF92FF920F931F93DF93CF93CDB71B
:1016A000DEB764970FB6F894DEBF0FBECDBF6D8373
:1016B0007E838F83988729873A874B875C87ED865F
:1016C000FE860F87188BA98ABA8ACB8ADC8A298979
:1016D0003A894B895C898D859E85AF85B88979016A
:1016E0008A01E81AF90A0A0B1B0B29A13AA14BA19E
:1016F0005CA18D819E81AF81B885281B390B4A0B77
:101700005B0BC801B7010E94CD177B018C012985B5
:101710003A854B855C858D819E81AF81B885281B7C
:10172000390B4A0B5B0BC801B7010E942218DA0182
:10173000C9019C01AD018D859E85AF85B889820F59
:10174000931FA41FB51F89839A83AB83BC838981B0
:101750009A81AB81BC81BC01CD0164960FB6F8942F
:10176000DEBF0FBECDBFCF91DF911F910F91FF90D4
:10177000EF90DF90CF90BF90AF900895DF93CF931D
:10178000CDB7DEB7EAE3F0E08FEF8083E7E3F0E088
:101790008FE08083E4E3F0E08FEF8083E1E3F0E02B
:1017A0008BEB8083EBE3F0E01082E8E3F0E0108263
:1017B000E5E3F0E01082E2E3F0E01082CF91DF9108
:1017C0000895DF93CF9300D000D000D0CDB7DEB71F
:1017D0008A837C836B8319828A81282F30E03E8341
:1017E0002D838D819E8183309105B9F02D813E81BD
:1017F00024303105C9F08D819E81009719F58B81C8
:101800009C818F3F910509F028F4E2E5F0E08B819F
:1018100080831AC081E0898317C0ECE4F0E08B81FB
:101820009C819183808310C08B819C818F3F910527
:1018300009F028F4E4E4F0E08B81808305C081E0C6
:10184000898302C081E08983898126960FB6F89446
:10185000DEBF0FBECDBFCF91DF910895DF93CF9351
:1018600000D000D000D0CDB7DEB78A837C836B83F5
:1018700019828A81282F30E03E832D838D819E81BD
:101880008330910599F02D813E8124303105B9F0E6
:101890008D819E810097E9F4E2E5F0E08081882F58
:1018A00090E0EB81FC819183808315C0ECE4F0E053
:1018B00080819181EB81FC81918380830CC0E4E481
:1018C000F0E08081882F90E0EB81FC819183808320
:1018D00002C081E08983898126960FB6F894DEBF25
:1018E0000FBECDBFCF91DF910895DF93CF9300D08E
:1018F00000D000D0CDB7DEB78A837C836B8319829A
:101900008A81282F30E03E832D838D819E81813016
:10191000910519F12D813E81223031052CF48D8104
:101920009E81009761F035C02D813E8122303105C6
:10193000D9F08D819E8184309105E9F02AC08B8198
:101940009C818F3F910509F028F4ECE5F0E08B8154
:10195000808321C081E089831EC0EAE4F0E08B81AE
:101960009C819183808317C0E8E4F0E08B819C81A7
:101970009183808310C08B819C818F3F910509F0FA
:1019800028F4E3E4F0E08B81808305C081E0898363
:1019900002C081E08983898126960FB6F894DEBF64
:1019A0000FBECDBFCF91DF910895DF93CF9300D0CD
:1019B0000F92CDB7DEB78A836B8319828A8181301B
:1019C00041F4AEE4B0E0EEE4F0E0808180648C931A
:1019D0000DC08A81882341F4AEE4B0E0EEE4F0E08B
:1019E00080818F7B8C9302C081E089838B818130E1
:1019F00041F4A9E5B0E0E9E5F0E0808180628C93F4
:101A00000DC08B81823041F4A9E5B0E0E9E5F0E05A
:101A100080818F7D8C9302C081E0898389810F90C2
:101A20000F900F90CF91DF910895DF93CF9300D067
:101A3000CDB7DEB78A8319828A81813041F4AEE462
:101A4000B0E0EEE4F0E0808180648C930DC08A8188
:101A5000882341F4AEE4B0E0EEE4F0E080818F7BD7
:101A60008C9302C081E0898389810F900F90CF9180
:101A7000DF910895DF93CF93CDB7DEB7E6E4F0E0D2
:101A800080819181CF91DF910895DF93CF93CDB77E
:101A9000DEB727970FB6F894DEBF0FBECDBF8A839F
:101AA0006B8319828B81813009F077C08A81282F5E
:101AB00030E03F832E838E819F818330910509F42E
:101AC00041C02E813F81243031057CF48E819F817D
:101AD0008130910539F12E813F8122303105D4F5D5
:101AE0008E819F810097B1F055C02E813F812530B6
:101AF0003105C1F18E819F8185309105DCF02E8109
:101B00003F8126303105B1F18E819F81873091056B
:101B1000C9F140C0A9E5B0E0E9E5F0E08081806866
:101B20008C93B8C0A9E5B0E0E9E5F0E0808180647D
:101B30008C93B0C0A9E5B0E0E9E5F0E08081806277
:101B40008C93A8C0A9E5B0E0E9E5F0E08081806170
:101B50008C93A0C0A9E5B0E0E9E5F0E08081886061
:101B60008C9398C0A9E5B0E0E9E5F0E0808184605D
:101B70008C9390C0A9E5B0E0E9E5F0E08081826057
:101B80008C9388C0A9E5B0E0E9E5F0E08081816050
:101B90008C9380C081E089837DC08B81823009F085
:101BA00077C08A81282F30E03D832C838C819D81F2
:101BB0008330910509F441C02C813D8124303105E9
:101BC0007CF48C819D818130910539F12C813D819E
:101BD00022303105D4F58C819D810097B1F055C03C
:101BE0002C813D8125303105C1F18C819D8185306D
:101BF0009105DCF02C813D8126303105B1F18C81DD
:101C00009D8187309105C9F140C0A9E5B0E0E9E5C3
:101C1000F0E080818F778C933DC0A9E5B0E0E9E5E5
:101C2000F0E080818F7B8C9335C0A9E5B0E0E9E5D9
:101C3000F0E080818F7D8C932DC0A9E5B0E0E9E5CF
:101C4000F0E080818F7E8C9325C0A9E5B0E0E9E5C6
:101C5000F0E08081877F8C931DC0A9E5B0E0E9E5C5
:101C6000F0E080818B7F8C9315C0A9E5B0E0E9E5B9
:101C7000F0E080818D7F8C930DC0A9E5B0E0E9E5AF
:101C8000F0E080818E7F8C9305C081E0898302C063
:101C900081E08983898127960FB6F894DEBF0FBE55
:101CA000CDBFCF91DF910895DF93CF9300D00F92F6
:101CB000CDB7DEB79B838A8319828A819B81009787
:101CC00009F4B6C0EA81FB818081813079F4A3E513
:101CD000B0E0E3E5F0E08081877F8C93A3E5B0E09E
:101CE000E3E5F0E080818F7B8C933EC0EA81FB814D
:101CF0008081823079F4A3E5B0E0E3E5F0E0808113
:101D0000877F8C93A3E5B0E0E3E5F0E08081806419
:101D10008C932AC0EA81FB818081833079F4A3E52A
:101D2000B0E0E3E5F0E0808188608C93A3E5B0E06B
:101D3000E3E5F0E080818F7B8C9316C0EA81FB8124
:101D40008081843079F4A3E5B0E0E3E5F0E08081C0
:101D500088608C93A3E5B0E0E3E5F0E080818064E7
:101D60008C9302C081E08983A3E5B0E0E3E5F0E075
:101D700080818F7C8C93A3E5B0E0E3E5F0E0808187
:101D8000282FEA81FB818281882F90E082959295AD
:101D9000907F9827807F9827822B8C93EA81FB8104
:101DA0008381813041F4A9E5B0E0E9E5F0E080818C
:101DB00082608C930FC0EA81FB818381823041F481
:101DC000A9E5B0E0E9E5F0E080818D7F8C9302C069
:101DD00081E08983EA81FB818481813041F4A9E536
:101DE000B0E0E9E5F0E0808181608C930FC0EA818A
:101DF000FB818481823041F4A9E5B0E0E9E5F0E0BF
:101E000080818E7F8C9302C081E08983A3E5B0E05E
:101E1000E3E5F0E08081887F8C93A3E5B0E0E3E523
:101E2000F0E09081EA81FB818181892B8C9302C053
:101E300082E0898389810F900F900F90CF91DF917D
:101E40000895DF93CF9300D00F92CDB7DEB79B8379
:101E50008A8319828A819B81009709F496C2EA815C
:101E6000FB8180818130E9F4AEE4B0E0EEE4F0E0A3
:101E700080818F7E8C93AEE4B0E0EEE4F0E0808170
:101E8000877F8C93AFE4B0E0EFE4F0E080818D7F5A
:101E90008C93AFE4B0E0EFE4F0E080818E7F8C9330
:101EA000DEC1EA81FB8180818230E9F4AEE4B0E0FA
:101EB000EEE4F0E080818F7E8C93AEE4B0E0EEE45F
:101EC000F0E08081877F8C93AFE4B0E0EFE4F0E056
:101ED00080818D7F8C93AFE4B0E0EFE4F0E080810F
:101EE00081608C93BCC1EA81FB8180818330E9F4FD
:101EF000AEE4B0E0EEE4F0E080818F7E8C93AEE45F
:101F0000B0E0EEE4F0E08081877F8C93AFE4B0E056
:101F1000EFE4F0E0808182608C93AFE4B0E0EFE426
:101F2000F0E080818E7F8C939AC1EA81FB81808171
:101F30008430E9F4AEE4B0E0EEE4F0E080818F7E3E
:101F40008C93AEE4B0E0EEE4F0E08081877F8C9388
:101F5000AFE4B0E0EFE4F0E0808182608C93AFE426
:101F6000B0E0EFE4F0E0808181608C9378C1EA8199
:101F7000FB8180818530E9F4AEE4B0E0EEE4F0E08E
:101F800080818F7E8C93AEE4B0E0EEE4F0E080815F
:101F900088608C93AFE4B0E0EFE4F0E080818D7F67
:101FA0008C93AFE4B0E0EFE4F0E080818E7F8C931F
:101FB00056C1EA81FB8180818630E9F4AEE4B0E06D
:101FC000EEE4F0E080818F7E8C93AEE4B0E0EEE44E
:101FD000F0E0808188608C93AFE4B0E0EFE4F0E063
:101FE00080818D7F8C93AFE4B0E0EFE4F0E08081FE
:101FF00081608C9334C1EA81FB8180818730E9F470
:10200000AEE4B0E0EEE4F0E080818F7E8C93AEE44D
:10201000B0E0EEE4F0E0808188608C93AFE4B0E063
:10202000EFE4F0E0808182608C93AFE4B0E0EFE415
:10203000F0E080818E7F8C9312C1EA81FB818081E8
:102040008830E9F4AEE4B0E0EEE4F0E080818F7E29
:102050008C93AEE4B0E0EEE4F0E0808188608C9395
:10206000AFE4B0E0EFE4F0E0808182608C93AFE415
:10207000B0E0EFE4F0E0808181608C93F0C0EA8111
:10208000FB8180818930E9F4AEE4B0E0EEE4F0E079
:10209000808180618C93AEE4B0E0EEE4F0E080817A
:1020A000877F8C93AFE4B0E0EFE4F0E080818D7F38
:1020B0008C93AFE4B0E0EFE4F0E080818E7F8C930E
:1020C000CEC0EA81FB8180818A30E9F4AEE4B0E0E1
:1020D000EEE4F0E0808180618C93AEE4B0E0EEE469
:1020E000F0E08081877F8C93AFE4B0E0EFE4F0E034
:1020F00080818D7F8C93AFE4B0E0EFE4F0E08081ED
:1021000081608C93ACC0EA81FB8180818B30E9F4E3
:10211000AEE4B0E0EEE4F0E0808180618C93AEE468
:10212000B0E0EEE4F0E08081877F8C93AFE4B0E034
:10213000EFE4F0E0808182608C93AFE4B0E0EFE404
:10214000F0E080818E7F8C938AC0EA81FB81808160
:102150008C30E9F4AEE4B0E0EEE4F0E08081806140
:102160008C93AEE4B0E0EEE4F0E08081877F8C9366
:10217000AFE4B0E0EFE4F0E0808182608C93AFE404
:10218000B0E0EFE4F0E0808181608C9368C0EA8188
:10219000FB8180818D30E9F4AEE4B0E0EEE4F0E064
:1021A000808180618C93AEE4B0E0EEE4F0E0808169
:1021B00088608C93AFE4B0E0EFE4F0E080818D7F45
:1021C0008C93AFE4B0E0EFE4F0E080818E7F8C93FD
:1021D00046C0EA81FB8180818E30E9F4AEE4B0E054
:1021E000EEE4F0E0808180618C93AEE4B0E0EEE458
:1021F000F0E0808188608C93AFE4B0E0EFE4F0E041
:10220000808182608C93AFE4B0E0EFE4F0E0808105
:102210008E7F8C9324C0EA81FB8180818F30E9F42A
:10222000AEE4B0E0EEE4F0E0808180618C93AEE457
:10223000B0E0EEE4F0E0808188608C93AFE4B0E041
:10224000EFE4F0E0808182608C93AFE4B0E0EFE4F3
:10225000F0E0808181608C9302C081E08983AFE4EB
:10226000B0E0EFE4F0E080818F708C93AFE4B0E0F9
:10227000EFE4F0E08081282FEA81FB818381882FC1
:1022800090E082959295907F9827807F9827822B67
:102290008C93AFE4B0E0EFE4F0E08081282FEA8196
:1022A000FB818281882F90E0002496958795079482
:1022B000969587950794982F802D822B8C93EA8191
:1022C000FB818481813041F4A9E5B0E0E9E5F0E0EB
:1022D000808180618C930FC0EA81FB818481823090
:1022E00041F4A9E5B0E0E9E5F0E080818F7E8C93D0
:1022F00002C081E08983EA81FB818581813041F4DC
:10230000A9E5B0E0E9E5F0E0808188608C930FC03A
:10231000EA81FB818581823041F4A9E5B0E0E9E5FD
:10232000F0E08081877F8C9302C081E08983EA811D
:10233000FB818681813041F4A9E5B0E0E9E5F0E078
:10234000808184608C930FC0EA81FB81868182301A
:1023500041F4A9E5B0E0E9E5F0E080818B7F8C9362
:1023600002C081E08983AEE4B0E0EEE4F0E0808179
:10237000887F8C93AEE4B0E0EEE4F0E09081EA81F7
:10238000FB818181892B8C9302C082E089838981C2
:102390000F900F900F90CF91DF910895DF93CF931F
:1023A00000D0CDB7DEB79A838983E6E4F0E0898177
:1023B0009A81918380830F900F90CF91DF91089540
:1023C000DF93CF93CDB7DEB729970FB6F894DEBF72
:1023D0000FBECDBF9B838A837D836C835F834E83D7
:1023E00019828A819B81009709F49CC0EA81FB8154
:1023F00080818E3009F093C0EA81FB818181282F92
:1024000030E039872887888599858330910579F16F
:1024100028853985243031055CF48885998581309B
:10242000910589F02885398522303105C9F047C0EA
:10243000888599858430910539F12885398525303D
:10244000310589F13CC0E6E4F0E08C819D81880F84
:10245000991F880F991F880F991F9183808331C01E
:10246000E6E4F0E08C819D81918380832AC0E6E4DC
:10247000F0E08C819D8196958795969587959695A8
:102480008795918380831DC0E6E4F0E08C819D8177
:1024900096958795929582958F7089279F70892749
:1024A000918380830EC0E6E4F0E08C819D81880FEB
:1024B000892F881F990B91959183808302C081E0B9
:1024C00089832E813F818C819D818217930720F122
:1024D000EA81FB818281823059F4EA81FB81838128
:1024E000882331F4EAE4F0E08E819F819183808338
:1024F000EA81FB818381823061F4EA81FB81828100
:10250000882339F4E8E4F0E08E819F819183808311
:102510000BC081E0898308C081E0898305C081E028
:10252000898302C082E08983898129960FB6F89455
:10253000DEBF0FBECDBFCF91DF910895DF93CF9364
:1025400000D00F92CDB7DEB79B838A8319828A8130
:102550009B81009709F4B6C0EA81FB8180818130BC
:1025600079F4A5E4B0E0E5E4F0E08081877F8C9326
:10257000A5E4B0E0E5E4F0E080818F7B8C933EC081
:10258000EA81FB818081823079F4A5E4B0E0E5E462
:10259000F0E08081877F8C93A5E4B0E0E5E4F0E093
:1025A000808180648C932AC0EA81FB8180818330A2
:1025B00079F4A5E4B0E0E5E4F0E0808188608C93F4
:1025C000A5E4B0E0E5E4F0E080818F7B8C9316C059
:1025D000EA81FB818081843079F4A5E4B0E0E5E410
:1025E000F0E0808188608C93A5E4B0E0E5E4F0E061
:1025F000808180648C9302C081E08983A5E4B0E08F
:10260000E5E4F0E080818F7C8C93A5E4B0E0E5E424
:10261000F0E08081282FEA81FB818281882F90E081
:1026200082959295907F9827807F9827822B8C9314
:10263000EA81FB818381813041F4A9E5B0E0E9E5DD
:10264000F0E0808180688C930FC0EA81FB818381F8
:10265000823041F4A9E5B0E0E9E5F0E080818F77D0
:102660008C9302C081E08983EA81FB81848181307F
:1026700041F4A9E5B0E0E9E5F0E0808180648C9365
:102680000FC0EA81FB818481823041F4A9E5B0E08A
:10269000E9E5F0E080818F7B8C9302C081E0898343
:1026A000A5E4B0E0E5E4F0E08081887F8C93A5E4C8
:1026B000B0E0E5E4F0E09081EA81FB818181892B43
:1026C0008C9302C082E0898389810F900F900F90D4
:1026D000CF91DF910895DF93CF93CDB7DEB76A979F
:1026E0000FB6F894DEBF0FBECDBF9B8B8A8B7D8B60
:1026F0006C8B1C8681E08B871A8619868A899B8958
:10270000009709F482C0CE010D969F8B8E8BE2E775
:10271000F0E0F98FE88FF5E0FA8FE88DF98D008011
:10272000888D998D0196998F888FEE89FF89008217
:102730008E899F8901969F8B8E8B9A8D91509A8F4F
:10274000EA8DEE2351F784E06AEF70E00E94750C89
:102750008C899D89CC01A0E0B0E028EE33E040E018
:1027600050E0BC01CD010E94CD17DC01CB018D836F
:102770009E83AF83B8878D819E81AF81B8852AEF14
:1027800030E040E050E0BC01CD010E940018DA01C9
:10279000C90189839A83AB83BC83CE010D960E94C5
:1027A0009E122BC0E8E5F0E08081881F8827881FF3
:1027B000813019F589859A859C0140E050E0898136
:1027C0009A81AB81BC81281739074A075B0749F416
:1027D0001B86A8E5B0E0E8E5F0E0808180688C9396
:1027E0000CC089859A8501969A878987A8E5B0E00B
:1027F000E8E5F0E0808180688C938B85813091F2F0
:102800008A899B890E949E1202C082E08C878C85F7
:102810006A960FB6F894DEBF0FBECDBFCF91DF91A1
:102820000895DF93CF93CDB7DEB76B970FB6F894CB
:10283000DEBF0FBECDBF9C8B8B8B7E8B6D8B1D86C1
:1028400081E08C871A8619868B899C89009709F408
:1028500085C0CE010E96988F8F8BE7E7F0E0FA8F58
:10286000E98FF5E0FB8FE98DFA8D0080898D9A8DD7
:1028700001969A8F898FEF89F88D00828F89988DC4
:102880000196988F8F8B9B8D91509B8FEB8DEE23B4
:1028900051F78FEF8B870DC08B85282F30E08D8906
:1028A0009E89B9010E94EC17009731F08B85815009
:1028B0008B878B85882381F78B85282F30E084E0F8
:1028C000B9010E94750C8B85282F30E040E050E064
:1028D0008D819E81AF81B885BC01CD010E94001819
:1028E000DA01C90189839A83AB83BC83CE010E963A
:1028F0000E949E122BC0E8E5F0E08081881F8827A7
:10290000881F813019F589859A859C0140E050E047
:1029100089819A81AB81BC81281739074A075B07F7
:1029200049F41C86A8E5B0E0E8E5F0E08081806825
:102930008C930CC089859A8501969A878987A8E52A
:10294000B0E0E8E5F0E0808180688C938C85813090
:1029500091F28B899C890E949E1202C082E08D8731
:102960008D856B960FB6F894DEBF0FBECDBFCF91AD
:10297000DF9108958F929F92AF92BF92CF92DF9294
:10298000EF92FF920F931F93DF93CF9300D000D06D
:10299000CDB7DEB79B838A836C8319828A819B8142
:1029A000009709F444C0EA81FB8180818430E1F51D
:1029B000EA81FB8182818230B9F50F2EF3E48F2EFC
:1029C0009924F02D8C81882F90E0A0E0B0E000D019
:1029D00000D0EDB7FEB7319680839183A283B38395
:1029E00060E070E080E090E024E630E040E050E01D
:1029F000EE24FF2487010F2EFFEFAF2EF0E0BF2E55
:102A0000F0E0CF2EF0E0DF2EF02D0E94450B0F906E
:102A10000F900F900F90DC01CB01F40180838A812D
:102A20009B810E949E1205C081E0898302C082E0E2
:102A3000898389810F900F900F900F90CF91DF9134
:102A40001F910F91FF90EF90DF90CF90BF90AF90CC
:102A50009F908F900895DF93CF9300D000D0CDB793
:102A6000DEB78A837C836B8319828B819C8100977C
:102A700069F08A81882F90E0880F991FFC01E85740
:102A8000FF4F8B819C819183808302C082E0898388
:102A900089810F900F900F900F90CF91DF91089543
:102AA0001F920F920FB60F9211242F933F934F93C3
:102AB0005F936F937F938F939F93AF93BF93EF93A6
:102AC000FF93DF93CF93CDB7DEB7809188009091CD
:102AD0008900009729F0E0918800F091890009951C
:102AE000CF91DF91FF91EF91BF91AF919F918F9126
:102AF0007F916F915F914F913F912F910F900FBEFA
:102B00000F901F9018951F920F920FB60F921124DD
:102B10002F933F934F935F936F937F938F939F93E5
:102B2000AF93BF93EF93FF93DF93CF93CDB7DEB710
:102B300080918A0090918B00009729F0E0918A00A3
:102B4000F0918B000995CF91DF91FF91EF91BF91AB
:102B5000AF919F918F917F916F915F914F913F9135
:102B60002F910F900FBE0F901F9018951F920F92EC
:102B70000FB60F9211242F933F934F935F936F9350
:102B80007F938F939F93AF93BF93EF93FF93DF93C5
:102B9000CF93CDB7DEB780919000909191000097D0
:102BA00029F0E0919000F09191000995CF91DF918B
:102BB000FF91EF91BF91AF919F918F917F916F9115
:102BC0005F914F913F912F910F900FBE0F901F90EB
:102BD00018951F920F920FB60F9211242F933F93C7
:102BE0004F935F936F937F938F939F93AF93BF9315
:102BF000EF93FF93DF93CF93CDB7DEB780918E0035
:102C000090918F00009729F0E0918E00F0918F0055
:102C10000995CF91DF91FF91EF91BF91AF919F9176
:102C20008F917F916F915F914F913F912F910F9075
:102C30000FBE0F901F9018951F920F920FB60F9214
:102C400011242F933F934F935F936F937F938F93B1
:102C50009F93AF93BF93EF93FF93DF93CF93CDB742
:102C6000DEB780918C0090918D00009729F0E09163
:102C70008C00F0918D000995CF91DF91FF91EF913C
:102C8000BF91AF919F918F917F916F915F914F9184
:102C90003F912F910F900FBE0F901F9018951F928C
:102CA0000F920FB60F9211242F933F934F935F9380
:102CB0006F937F938F939F93AF93BF93EF93FF9304
:102CC000DF93CF93CDB7DEB78091920090919300C0
:102CD000009729F0E0919200F09193000995CF912F
:102CE000DF91FF91EF91BF91AF919F918F917F9174
:102CF0006F915F914F913F912F910F900FBE0F9069
:102D00001F9018951F920F920FB60F9211242F93B8
:102D10003F934F935F936F937F938F939F93AF9363
:102D2000BF93EF93FF93DF93CF93CDB7DEB780913F
:102D3000940090919500009729F0E0919400F09113
:102D400095000995CF91DF91FF91EF91BF91AF91E0
:102D50009F918F917F916F915F914F913F912F91B3
:102D60000F900FBE0F901F9018951F920F920FB6E5
:102D70000F9211242F933F934F935F936F937F9301
:102D80008F939F93AF93BF93EF93FF93DF93CF9373
:102D9000CDB7DEB78091960090919700009729F00B
:102DA000E0919600F09197000995CF91DF91FF9106
:102DB000EF91BF91AF919F918F917F916F915F91B3
:102DC0004F913F912F910F900FBE0F901F9018952C
:102DD000DF93CF93CDB7DEB766970FB6F894DEBF1B
:102DE0000FBECDBFCE0101969E878D87E1E8F0E052
:102DF000F88BEF87F7E0F98BEF85F88900808F85F6
:102E000098890196988B8F87ED85FE8500828D8548
:102E10009E8501969E878D8799899150998BE98926
:102E2000EE2351F7CE0108969B8B8A8BECE7F0E0FE
:102E3000FD8BEC8BF5E0FE8BEC89FD8900808C89A5
:102E40009D8901969D8B8C8BEA89FB8900828A89FA
:102E50009B8901969B8B8A8B9E8991509E8BEE89D4
:102E6000EE2351F70E94BE0B2AE737E184E0B90157
:102E70000E942B1581E061E00E94D50C0E94FB06A8
:102E8000CE0101960E94210FCE01089669E10E94B1
:102E9000BA140E94D10A80919800909199000097ED
:102EA00031F480919A0090919B000097A1F380E00B
:102EB00060E00E9489078091980090919900CC0170
:102EC000A0E0B0E0BC01CD010E94F40781E060E029
:102ED0000E94890780E690E00E94DF0680919A00B8
:102EE00090919B00CC01A0E0B0E0BC01CD010E941C
:102EF000F407FFCFDF93CF93CDB7DEB780919C006F
:102F00008F5F80939C0080919C00813039F40E94F7
:102F10003A0D9093A2008093A1003CC080919C0048
:102F20008230D1F40E943A0D9093A00080939F00CC
:102F300020919F003091A0008091A1009091A2006B
:102F4000A901481B590BCA019093990080939800DE
:102F500080E00E94150D1EC080919C008330D1F44A
:102F60000E943A0D90939E0080939D0020919D00B9
:102F700030919E0080919F009091A000A901481B74
:102F8000590BCA0190939B0080939A0084E062E001
:102F90000E94450DCF91DF910895629FD001739FEC
:102FA000F001829FE00DF11D649FE00DF11D929FE5
:102FB000F00D839FF00D749FF00D659FF00D992724
:102FC000729FB00DE11DF91F639FB00DE11DF91F48
:102FD000BD01CF0111240895AA1BBB1B51E107C0FD
:102FE000AA1FBB1FA617B70710F0A61BB70B881F99
:102FF000991F5A95A9F780959095BC01CD01089528
:10300000A1E21A2EAA1BBB1BFD010DC0AA1FBB1FEC
:10301000EE1FFF1FA217B307E407F50720F0A21B5E
:10302000B30BE40BF50B661F771F881F991F1A94CB
:1030300069F760957095809590959B01AC01BD01F5
:10304000CF01089597FB092E05260ED057FD04D019
:10305000D7DF0AD0001C38F4509540953095219563
:103060003F4F4F4F5F4F0895F6F7909580957095BD
:1030700061957F4F8F4F9F4F08952F923F924F92B0
:103080005F926F927F928F929F92AF92BF92CF92F8
:10309000DF92EF92FF920F931F93CF93DF93CDB701
:1030A000DEB7CA1BDB0B0FB6F894DEBF0FBECDBF79
:1030B00009942A88398848885F846E847D848C844A
:1030C0009B84AA84B984C884DF80EE80FD800C8153
:1030D0001B81AA81B981CE0FD11D0FB6F894DEBF36
:0C30E0000FBECDBFED010895F894FFCFA6
:1030EC004F6E205469636B733D00000000000000BC
:1030FC0000000302000202030200020204050202A5
:08310C000201020000020202B0
:00000001FF
